:100000000C943F000C9473000C9473000C945B05EB
:100010000C9457050C9453050C9473000C944A06E9
:100020000C9473000C9473000C9473000C94730084
:100030000C9473000C9473000C9473000C941905C9
:100040000C9473000C9473000C9473000C94730064
:100050000C9473000C9473000C9473000C94730054
:100060000C94A6050C9473000C9473000C9473000C
:100070000C9473000C9473000C947300720611249A
:100080001FBECFEFCDBFDFE3DEBF80914000809386
:100090004000811105C098ED21E094BF20934100FC
:1000A0008CBB18E3A0E0B8E3EEE4F4E102C00590F5
:1000B0000D92A630B107D9F729E3A6E0B8E301C055
:1000C0001D92AE31B207E1F710E0CFE3D0E004C0FB
:1000D0002197FE010E94E309CE33D107C9F70E94A0
:1000E0009D060C94F8090C9400009FB7F89488E0E2
:1000F0008093840A80918E0A81FFFCCF80918D0AC3
:10010000E091A20AF091A30A20917D3830917E38C7
:1001100040917F38509180389FBF80FF07C0E73003
:10012000F10520F42F5F3F4F4F4F5F4FBF01769592
:100130006795CF01860F911DE62FE695E695762F00
:1001400072957F70E71BFF0B67FD3196E80FF91F73
:10015000A0E3B3E00E94C4096E0F7F1F811D911DB3
:100160000895CF92DF92EF92FF92CF93DF936B01CE
:100170007C010E947500EB010E9475006C1B7D0BD9
:10018000683E7340A0F0C114D104E104F10439F4D5
:10019000DF91CF91FF90EF90DF90CF90089581E0B5
:1001A000C81AD108E108F108C851DC4FE5CFC114E5
:1001B000D104E104F10401F7EBCFDC011896ED91D5
:1001C000FC9184818860848308959C012B5C3F4F5F
:1001D000DC011F96EC911F971E968C91E81730F466
:1001E000E20FF32FF11D808190E008958FEF9FEFD4
:1001F0000895FC01DC01D59697858685981740F413
:10020000A90FB11D2C919F5F9787822F90E00895D1
:100210008FEF9FEF0895FC0186859785891B990BC9
:100220000895FC01A585A03258F4A80FB92FB11D7F
:1002300055966C9385858F5F858781E090E0089562
:1002400090E080E00895E0912E38F0E0EF57F74C11
:10025000608185EA98E30C941101BF92CF92DF92FE
:10026000EF92FF920F931F93CF93DF937C016A016C
:10027000B62EEB010C2F0B1910E00C151D0530F4F8
:100280006991C7010E941101892BA1F7C801DF9173
:10029000CF911F910F91FF90EF90DF90CF90BF9083
:1002A000089590E080E00895F89420912F383091DF
:1002B000303840913138509132387894AFE3B0E023
:1002C0000E94C40908959091133991112AC0809316
:1002D000153980E29EE4A0E0B0E080931A39909353
:1002E0001B39A0931C39B0931D398FEF80930D39C2
:1002F00010920E3910920F39109210391092113954
:100300001092123981E080931339109214390E94AF
:10031000540160931639709317398093183990936C
:1003200019390895E82FE695E695E695E05EF0E048
:10033000EF57F74CAC014770552721E030E0B90189
:1003400002C0660F771F4A95E2F72081262B208393
:100350000C9463011F93CF93DF9311E09091B33816
:100360008091B4389817D9F185EA98E30E94F90092
:10037000EC012091B3389091B438843268F0291799
:1003800059F085EA98E30E94F90087E090E0DF9158
:10039000CF911F910C949201C0932E382917F1F23E
:1003A0008351823010F41092933885EA98E30E94CA
:1003B000F900DD27FE01EC5CF74C9081CF57D74C5C
:1003C000292F2095388123239823891719F085E058
:1003D00090E0DDCF822B888310932D38BFCFDF9143
:1003E000CF911F91089590E0FC01E65DFB462081CE
:1003F0002F3F79F0885E9B46DC01EC91B0E2EB9FE9
:10040000F0011124FC5F9085922381E019F480E0D3
:1004100008958FEF0895CF93DF93282F30E0E901FF
:10042000C65DDB4688818F3F71F1A901485E5B465E
:10043000DA01EC91B0E2EB9FF0011124FC5F611155
:1004400025C0868390818923A1F4C9018A5F9B46D8
:10045000DC019C913097E1F09830D0F47096E90F70
:10046000F11D9FB7F8948081611115C0877F80834B
:100470009FBF2C503C46F9018081882321F08031B8
:1004800061F08038E1F0DF91CF9108958583DACF74
:10049000F0E0E0E0E6CF8860EACF8881DA019C9165
:1004A000913059F4853010F0880F82959091010AAF
:1004B000809589238093010AE6CF880FF7CF1092A9
:1004C000A006E1CF90E0FC01E65DFB4620812F3FD6
:1004D000B9F0FC01E85EFB46E08130E2E39FF00109
:1004E0001124FC5F60FF0DC021838A5F9B46DC0105
:1004F0008C91E80FF11D808961FF05C08860808BB9
:1005000008952283F2CF877FFACFCF93282F30E050
:10051000F901E65DFB4690819F3F09F445C0C82F75
:10052000F901EC50FC468081803131F08038A1F136
:100530006038710524F00FC06115710549F460E061
:100540008C2F0E940B0261E08C2FCF910C946202E1
:100550006F3F710511F461E0F3CF953048F0990FCA
:10056000285E3B46F9018081E1E0813011F49295EB
:10057000E0E0892F847459F0EC5FF0E0E85DF54F1E
:1005800060838091010A982B9093010ADCCF892F18
:10059000827299F3EE5FF1CF6093A1068091A0067D
:1005A00081648093A006CFCFCF910895CF93DF933E
:1005B000D62FC42F8095682F70E081E00E948502BD
:1005C000D0956D2F70E080E00E948502C0956C2F61
:1005D00070E080E1DF91CF910C9485020F931F931F
:1005E0008B019C019927832F722F612F402F822F1F
:1005F0001F910F910C94D6020F931F93CF93DF930B
:10060000C0918438D0E00091743810917538809191
:10061000FA389091FB380817190789F00E945401A5
:100620006093FE387093FF388093003990930139BE
:100630000093FA381093FB3881E080930839809159
:10064000FC389091FD38C817D90789F00E945401F1
:100650006093FE387093FF3880930039909301398E
:10066000C093FC38D093FD3881E0809308398091A5
:100670001339882309F48BC00E9454010091023978
:10068000109103392091043930910539601B710BA9
:10069000820B930B0091093910910A3920910B3983
:1006A00030910C39061717072807390760F50E94A3
:1006B0005401609302397093033980930439909305
:1006C000053984EF91E0A0E0B0E080930939909380
:1006D0000A39A0930B39B0930C398091063991E017
:1006E000892780930639882309F44AC080911439F8
:1006F0008F5F8093143940910E3960910F3980914A
:100700000D390E94D60290911439809115398917BC
:1007100090F580ED97E0A0E0B0E0809309399093E8
:100720000A39A0930B39B0930C3940E060E080E0C7
:100730000E94D60210921439109206390E94540178
:1007400000911639109117392091183930911939C3
:10075000601B710B820B930B00911A3910911B399E
:1007600020911C3930911D390617170728073907C2
:1007700010F410921339DF91CF911F910F910895CA
:10078000409111396091123980911039BACF0E948D
:1007900054010091FE381091FF38209100393091BA
:1007A0000139601B710B820B930B613E73498440CE
:1007B000910510F01092083980910839811104C018
:1007C00060E070E0CB0147C08091FA389091FB382F
:1007D0008230910509F445C06CF40097C1F101978E
:1007E00009F444C084E090E0DF91CF911F910F9114
:1007F0000C9463018330910519F3049799F70E94D3
:10080000540100910239109103392091043930913B
:100810000539601B710B820B930B653F714081059D
:10082000910580F08091063991E0892780930639FF
:100830000E94540160930239709303398093043904
:100840009093053980910639882309F4B9CF60E087
:1008500070E08FEF90E0DF91CF911F910F910C949A
:10086000EE0260E073E88FEF90E0F5CF8091FC3806
:100870009091FD388130910559F08230910589F3CE
:10088000892B09F0AFCF6FEF70E080E090E0E3CF0D
:1008900060E07FEF80E090E0DECFCF93DF932091A8
:1008A0007438309175382817390789F0EC010E94A7
:1008B00054016093703870937138809372389093BC
:1008C0007338C0937438D09375380E94FC028091BD
:1008D00074389091753880938338DF91CF91089563
:1008E00083E090E00E944D0460E08FE00C940B02E6
:1008F000CF93DF932AE030E090E080E068E071E0A1
:1009000040910006442309F471C060930606709379
:10091000080640910B0640FFFCCF40911006509115
:100920001106840F951F2150310951F76AE070E0DC
:100930000E94B009609358387093593880912C38D0
:10094000882309F450C0209158383091593880914B
:100950002A3890912B388217930708F444C080916D
:10096000583890915938029708F43DC00E9470049D
:10097000C3E0D0E040E060E08FEF0E94D6026CE27E
:1009800071E080E090E00E94B10040E060E080E033
:100990000E94D6026CE271E080E090E00E94B1001B
:1009A000219741F768E071E08AE090E0209100062D
:1009B00049EF52E8222361F060930606709308061F
:1009C00020910B0620FFFCCF40911006509111069C
:1009D00020912A3830912B38265F3F4F421753071A
:1009E00018F3019719F7DF91CF91089549EF52E875
:1009F00098CF0E94780461E08FE00E940B0290E0A3
:100A000080E00E944D040E94540160936838709306
:100A1000693880936A3890936B3808958091743860
:100A200090917538039721F40E9478040C94F9048E
:100A30000895EF93FF93E7E7F8E38F938FB78F93D2
:100A40009F937F9370E080819181805D9C4F808334
:100A50009183885E934018F0808391837F5F9281B9
:100A6000970F928380E09381981F93839481981FBE
:100A700094839581981F958396819F5F9683978134
:100A80009F4F978390859F4F908791859F4F918728
:100A900081E080938D0A7F919F918F918FBF8F917D
:100AA000FF91EF9118950F9304E00C945F050F935D
:100AB00002E00C945F050F9300E00C945F050F9229
:100AC0000FB60F921F921124FF921F932F933F9303
:100AD0004F935F936F937F938F939F93AF93BF9346
:100AE000CF93DF93EF93FF93A0E0B8E3A00FB11D86
:100AF000CD91DC91000F0D5FA02FB0E0FC9010971E
:100B000061F01F2D169518F041F02296FBCFE99168
:100B1000F9913097B9F30995F5CFA02FB0E0FC9289
:100B2000FF91EF91DF91CF91BF91AF919F918F9105
:100B30007F916F915F914F913F912F911F91FF9006
:100B40001F900F900FBE0F900F9118951F920F924C
:100B50000FB60F9211241F932F933F934F935F93E0
:100B60006F937F938F939F93AF93BF93CF93DF93B5
:100B7000EF93FF93CDEAD8E3E881F981838586FF7F
:100B800056C080FF41C0158581FF38C08E81882303
:100B900059F08091333880935000EB85FC85309775
:100BA00019F08E8190E009951C831D821886E985D5
:100BB000FA85309709F009958D81882319F183E032
:100BC0009091500090933338917090935000E88149
:100BD000F9818287FF91EF91DF91CF91BF91AF9122
:100BE0009F918F917F916F915F914F913F912F9145
:100BF0001F910F900FBE0F901F9018951C831E829F
:100C00001F82DDCF86E0DCCF8091333880935000A7
:100C1000EB85FC85309729F08E81882311F090E0D8
:100C200009951E821D821F82188682E0D0CF87FF21
:100C30002FC081FF1EC0887139F08A8183FF04C0F4
:100C40001D82877F8A83F1CF8B818F5F8B838A811F
:100C500088608A83A8858D81A81738F7AC0FBD2FCF
:100C6000B11D1D968C91858788858F5F888783E06D
:100C7000AECF8585EE81E03258F4EC0FFD2FF11DEB
:100C800085A78E818F5F8E83803288F386E09FCF29
:100C900080E09DCF1F920F920FB60F9211248F9379
:100CA0009F93AF93BF9381E08093530180912F383E
:100CB00090913038A0913138B09132380196A11D11
:100CC000B11D80932F3890933038A0933138B09372
:100CD0003238BF91AF919F918F910F900FBE0F90BF
:100CE0001F901895E5EAF8E31282138288EE93E0EC
:100CF000A0E0B0E084839583A683B78380E494E981
:100D00008083918380E198E080879187EAEFF8E320
:100D10001482158216821782108611861286138617
:100D20001486158681E08687138A148A158A168AA6
:100D3000178A108E118E128E089588ED90E084BF70
:100D400090936100E0E0F6E083E582838DE08583A7
:100D500080E2838381E08083109202028093030A01
:100D60009EEF9093260A9093270A9BE09093000AA7
:100D7000E0E8FAE02DEF31E026A737A7118290E8EE
:100D80009283848781E18083789461E081E00E948E
:100D9000620261E080E00E94620261E080E10E9404
:100DA000620261E08FE00E94620261E08FE00E94D7
:100DB0000B0261E08EE00E94620260E085E00E942A
:100DC000620260E084E00E94620262E08BE00E94C6
:100DD000620262E082E00E94620262E083E00E94BE
:100DE000620261E08AE00E94620261E08AE00E94A1
:100DF0000B0240E060E080E00E94D60260E08EE0FE
:100E00000E940B020E94780440E060E08FEF0E9495
:100E1000D60264E670E080E090E00E94B10040E01D
:100E20006FEF80E00E94D60264E670E080E090E020
:100E30000E94B1004FEF60E080E00E94D60264E6BD
:100E400070E080E090E00E94B100E4E3F8E388E520
:100E500098E32FEF21938E179F07E1F71092353813
:100E60001092343883E08093463890E89093443869
:100E7000109245389093493810924A389AEC9093E2
:100E8000813892E0909382389091AF3891FD17C0ED
:100E900092FD15C09091010294FF0CC186E08093F1
:100EA00006048091AF3884608093AF38E091AD380C
:100EB000F091AE388AE48487168681EE81878AEACB
:100EC00091E08093B8389093B93883E291E08093B1
:100ED000B6389093B738E0910438F09105383097E0
:100EE00069F08EE095E0828393839FB7F8948091B8
:100EF0005104887F8360809351049FBF1092470103
:100F000081E58093500181E08093520180915000EF
:100F1000897F8093500080915000816080935000C1
:100F20000E94F904D4E089E0F82EEE24E3940AE06C
:100F300010E0C1E080917638882391F04FEF6FEF99
:100F40008FEF0E94D60264E170E080E090E00E94A2
:100F5000B10040E060E080E00E94D6021092763856
:100F60008091933880FFACC0A0909138B0909238B7
:100F7000BA24AB24BA240E94780480915838909106
:100F800059384F97A816B90608F097C010929338B1
:100F900086E090E00E9492018091913887FF10C016
:100FA0000E947804809158389091593880939238F3
:100FB0008091583890915938892F8F778093913844
:100FC0008091963887FF2FC02AE030E090E080E0E3
:100FD00040910006442309F478C0F0920606E0929E
:100FE000080640910B0640FFFCCF4091100650913F
:100FF0001106840F951F2150310951F7B8010E9445
:10100000B00960935A3870935B3880915A38909148
:101010005B388093973880915A3890915B38892F4C
:101020008F778093963880918638882381F010924C
:10103000863882E090E00E944D040E945401609343
:1010400064387093653880936638909367388091E0
:101050008538882361F0109285380E94540160938E
:101060007038709371388093723890937338809190
:101070008738882321F0109287380E94F90482E093
:101080000E94F3018130A1F10E9454014B015C01E7
:1010900082E00E94F30181111BC06FEF7FEF8FEFA1
:1010A00090E00E94EE0261E070E080E090E00E943B
:1010B000B100EECF80932604F4CED09393386CCF5A
:1010C00081FF6ACF1092933867CF49EF52E891CFF2
:1010D0000E94FC020E945401681979098A099B093F
:1010E00060935C3870935D3880935E3890935F387E
:1010F00080915C3890915D38A0915E38B0915F38F6
:101100000A97A105B10568F180915C3890915D382E
:10111000A0915E38B0915F38803D9740A105B10540
:1011200008F0A4C00E9454016093FE387093FF3809
:101130008093003990930139C093083980917438B5
:1011400090917538039709F082C00E94F9040E94BB
:10115000FC0210925C3810925D3810925E3810924A
:101160005F380E94780480918338853008F093C0FE
:1011700090E00E944D048091743890917538892BCD
:1011800009F08EC00E9454018090683890906938B0
:10119000A0906A38B0906B38681979098A099B0960
:1011A000613E73498440910508F47AC084E090E080
:1011B0000E944D0482E090E00E9492018091893863
:1011C0008823F1F00E94540180906C3890906D3823
:1011D000A0906E38B0906F38681979098A099B0918
:1011E000613375478105910530F089E090E00E94F8
:1011F0009201109289388091893860E0813009F03D
:1012000061E08AE00E940B028091743890917538F9
:101210000197C9F40E945401809070389090713801
:10122000A0907238B0907338681979098A099B09BF
:10123000613C764C8D42910530F083E090E00E9455
:1012400092010E9470040E94FC02889573CE0E9455
:10125000540160936C3870936D3880936E3890931E
:101260006F38C0938938C093883871CF60E070E0E0
:10127000CB010E94EE0260E08FE00E940B0268E862
:1012800073E180E090E00E94B10088ED84BF81E0CE
:1012900080930001FFCF84E090E00E9492016BCF29
:1012A0008091743890917538029739F483E00E94E8
:1012B000F301811102C00E947004809174389091F2
:1012C0007538019779F483E00E94F30181110AC017
:1012D0000E94700468EE73E080E090E00E94B1002C
:1012E0000E94F9048091743890917538029711F139
:1012F0008091743890917538039709F05FCF0E9400
:1013000054018090603890906138A0906238B0901D
:101310006338681979098A099B0961307C458642DE
:10132000954008F44BCF8AE090E00E9492010E9421
:10133000F90444CF0E94540180906438909065383D
:10134000A0906638B0906738681979098A099B09B6
:1013500061367A4E8105910558F20E9470042ECFB5
:1013600097FB072E16F4009407D077FD09D00E9452
:10137000CF0907FC05D03EF4909581959F4F0895C5
:10138000709561957F4F08950E94E909A59F900D82
:10139000B49F900DA49F800D911D11240895AA1B48
:1013A000BB1B51E107C0AA1FBB1FA617B70710F050
:1013B000A61BB70B881F991F5A95A9F78095909582
:1013C000BC01CD010895EE0FFF1F0590F491E02DB3
:1013D0000994A29FB001B39FC001A39F700D811D0E
:1013E0001124911DB29F700D811D1124911D08952E
:0413F000F894FFCF9F
:1013F4001010800000000010101000000000000019
:10140400100004050607050403020100000102039D
:1014140001020300000000000101010101010202B8
:101424000202000000001020408020100804020185
:1014340001020408020408010000000011012D014A
:0A1444005101DD000B01F900E50085
:06144E001A380E380638C2
:00000001FF
