:100000000C943F000C9473000C9473000C94330513
:100010000C942F050C942B050C9473000C94220661
:100020000C9473000C9473000C9473000C94730084
:100030000C9473000C9473000C9473000C94F104F2
:100040000C9473000C9473000C9473000C94730064
:100050000C9473000C9473000C9473000C94730054
:100060000C947E050C9473000C9473000C94730034
:100070000C9473000C9473000C94730031061124DB
:100080001FBECFEFCDBFDFE3DEBF80914000809386
:100090004000811105C098ED21E094BF20934100FC
:1000A0008CBB18E3A0E0B8E3EAEBF2E102C00590F4
:1000B0000D92A630B107D9F729E3A6E0B8E301C055
:1000C0001D92A631B207E1F710E0CFE3D0E004C003
:1000D0002197FE010E941909CE33D107C9F70E946A
:1000E0005A060C942E090C940000282F30E0F901D8
:1000F000EA56FD4690819F3F51F12C573D46D9016C
:10010000EC91F0E0DF01AA0FBB1FA050B84C2D917D
:100110003C9121153105D9F0492F50E0440F551F6E
:10012000240F351FD9016D937C934FB7F8949F012D
:1001300055E0220F331F5A95E1F7E0E1E90FE20F96
:10014000F0E0FC5F8081887F836080834FBF0895EB
:100150009FB7F89488E08093840A80918E0A81FF8B
:10016000FCCF80918D0AE091A20AF091A30A209120
:100170009C3830919D3840919E3850919F389FBF58
:1001800080FF07C0E730F10520F42F5F3F4F4F4F4E
:100190005F4FBF0176956795CF01860F911DE62FC2
:1001A000E695E695762F72957F70E71BFF0B67FD4E
:1001B0003196E80FF91FA0E3B3E00E94FA086E0F32
:1001C0007F1F811D911D0895CF92DF92EF92FF92C4
:1001D000CF93DF936B017C010E94A800EB010E948A
:1001E000A8006C1B7D0B683E7340A0F0C114D104C5
:1001F000E104F10439F4DF91CF91FF90EF90DF90AB
:10020000CF90089581E0C81AD108E108F108C851DB
:10021000DC4FE5CFC114D104E104F10401F7EBCFC9
:100220002FB7F894609198387091993880919A38E6
:1002300090919B382FBF089590910B3991112AC04E
:1002400080930D3980E29EE4A0E0B0E08093123903
:1002500090931339A0931439B09315398FEF80938D
:100260000539109206391092073910920839109208
:10027000093910920A3981E080930B3910920C39B8
:100280000E94100160930E3970930F3980931039DA
:10029000909311390895DC011896ED91FC918481B9
:1002A0008860848308959C012B5C3F4FDC011F967E
:1002B000EC911F971E968C91E81730F4E20FF32F04
:1002C000F11D808190E008958FEF9FEF0895FC016C
:1002D000DC01D59697858685981740F4A90FB11D46
:1002E0002C919F5F9787822F90E008958FEF9FEF6B
:1002F0000895FC0186859785891B990B0895FC015B
:10030000A585A03258F4A80FB92FB11D55966C934E
:1003100085858F5F858781E090E0089590E080E09B
:100320000895E0912E38F0E0E459F74C608180EABE
:1003300098E30C947F01BF92CF92DF92EF92FF92ED
:100340000F931F93CF93DF937C016A01B62EEB01CD
:100350000C2F0B1910E00C151D0530F46991C70125
:100360000E947F01892BA1F7C801DF91CF911F91D6
:100370000F91FF90EF90DF90CF90BF90089590E0A5
:1003800080E008951F93CF93DF9311E09091AE38F2
:100390008091AF389817D9F180EA98E30E946701FD
:1003A000EC012091AE389091AF38843268F0291773
:1003B00059F080EA98E30E94670187E090E0DF91BE
:1003C000CF911F910C941C01C0932E382917F1F284
:1003D0008D50823010F41092783880EA98E30E94B1
:1003E0006701DD27FE01E05DF74C9081C459D74CD1
:1003F000292F2095388123239823891719F085E028
:1004000090E0DDCF822B888310932D38BFCFDF9112
:10041000CF911F910895CF93DF93282F30E0E9010A
:10042000CE58DD4688818F3F71F1A9014C575D465A
:10043000DA01EC91B0E2EB9FF0011124FC5F611155
:1004400025C0868390818923A1F4C9018A569D46DF
:10045000DC019C913097E1F09830D0F47096E90F70
:10046000F11D9FB7F8948081611115C0877F80834B
:100470009FBF205A3D46F9018081882321F08031B9
:1004800061F08038E1F0DF91CF9108958583DACF74
:10049000F0E0E0E0E6CF8860EACF8881DA019C9165
:1004A000913059F4853010F0880F82959091010AAF
:1004B000809589238093010AE6CF880FF7CF1092A9
:1004C000A006E1CF90E0FC01EE58FD4620812F3FD1
:1004D000B9F0FC01EC57FD46E08130E2E39FF0010A
:1004E0001124FC5F60FF0DC021838A569D46DC010C
:1004F0008C91E80FF11D808961FF05C08860808BB9
:1005000008952283F2CF877FFACFCF93282F30E050
:10051000F901EE58FD4690819F3F09F445C0C82F70
:10052000F901E05AFD468081803131F08038A1F137
:100530006038710524F00FC06115710549F460E061
:100540008C2F0E940B0261E08C2FCF910C946202E1
:100550006F3F710511F461E0F3CF953048F0990FCA
:100560002C573D46F9018081E1E0813011F49295EC
:10057000E0E0892F847459F0EC5FF0E0E85DF54F1E
:1005800060838091010A982B9093010ADCCF892F18
:10059000827299F3EE5FF1CF6093A1068091A0067D
:1005A00081648093A006CFCFCF910895CF93DF933E
:1005B000D62FC42F8095682F70E081E00E948502BD
:1005C000D0956D2F70E080E00E948502C0956C2F61
:1005D00070E080E1DF91CF910C9485020F931F931F
:1005E000CF93DF93EC018091F5389091F6388C171A
:1005F0009D0771F00E9410016093F7387093F838EE
:100600008093F9389093FA38C093F538D093F63840
:1006100080910B39882309F48BC00E94100100914E
:10062000FB381091FC382091FD383091FE38601B6A
:10063000710B820B930B00910139109102392091BB
:10064000033930910439061717072807390760F571
:100650000E9410016093FB387093FC388093FD3842
:100660009093FE3884EF91E0A0E0B0E080930139F0
:1006700090930239A0930339B09304398091FF38E5
:1006800091E089278093FF38882309F44AC080913C
:100690000C398F5F80930C3940910639609107398E
:1006A000809105390E94D60290910C3980910D39C4
:1006B000891790F580ED97E0A0E0B0E080930139D4
:1006C00090930239A0930339B093043940E060E07D
:1006D00080E00E94D60210920C391092FF380E94DE
:1006E000100100910E3910910F392091103930917D
:1006F0001139601B710B820B930B00911239109111
:100700001339209114393091153906171707280726
:10071000390710F410920B39DF91CF911F910F918F
:1007200008954091093960910A3980910839BACF0A
:100730000E9410010091F7381091F8382091F93893
:100740003091FA38601B710B820B930B613C77423E
:100750008940910520F040E060E080E047C0809152
:10076000F5389091F6388230910509F445C06CF463
:100770000097C9F14FEF019779F384E090E0DF91A2
:10078000CF911F910F910C941C0184309105B9F108
:1007900014F3059791F70E9410010091FB38109116
:1007A000FC382091FD383091FE38601B710B820BB4
:1007B000930B653F71408105910580F08091FF3872
:1007C00091E089278093FF380E9410016093FB38E5
:1007D0007093FC388093FD389093FE388091FF38F9
:1007E000882309F4B8CF40E060E08FEFDF91CF912C
:1007F0001F910F910C94D60240E06FEFF6CF40E0CE
:100800006FEFABCFCF93DF93209194383091953831
:1008100028173907A9F0EC010E9410016093903865
:10082000709391388093923890939338C093943812
:10083000D093953880919438909195380E94EE022B
:10084000809194389091953880936E38DF91CF9154
:10085000089583E090E00E94020460E08FE00C9431
:100860000B02CF92DF92EF92FF920E9410016B0178
:100870007C018091080486FFFCCF0E9410016C1956
:100880007D098E099F096093583870935938809379
:100890005A3890935B38FF90EF90DF90CF90089597
:1008A000CF93DF932AE030E090E080E068E071E0F1
:1008B00040910006442309F471C0609306067093CA
:1008C000080640910B0640FFFCCF40911006509166
:1008D0001106840F951F2150310951F76AE070E02D
:1008E0000E94E608609354387093553880912C38F4
:1008F000882309F450C020915438309155388091A4
:100900002A3890912B388217930708F444C08091BD
:10091000543890915538029708F43DC00E9429043C
:10092000C3E0D0E040E060E08FEF0E94D6026CE2CE
:1009300071E080E090E00E94E40040E060E080E050
:100940000E94D6026CE271E080E090E00E94E40038
:10095000219741F768E071E08AE090E0209100067D
:1009600049EF52E8222361F060930606709308066F
:1009700020910B0620FFFCCF4091100650911106EC
:1009800020912A3830912B38265F3F4F421753076A
:1009900018F3019719F7DF91CF91089549EF52E8C5
:1009A00098CF0E94500461E08FE00E940B0290E01B
:1009B00080E00E9402040E941001609364387093EA
:1009C000653880936638909367380895809194389D
:1009D00090919538039721F40E9450040C94D1040F
:1009E0000895EF93FF93E6E9F8E38F938FB78F9322
:1009F0009F937F9370E080819181805D9C4F808385
:100A00009183885E934018F0808391837F5F928109
:100A1000970F928380E09381981F93839481981F0E
:100A200094839581981F958396819F5F9683978184
:100A30009F4F978390859F4F908791859F4F918778
:100A400081E080938D0A7F919F918F918FBF8F91CD
:100A5000FF91EF9118950F9304E00C9437050F93D5
:100A600002E00C9437050F9300E00C9437050F92C9
:100A70000FB60F921F921124FF921F932F933F9353
:100A80004F935F936F937F938F939F93AF93BF9396
:100A9000CF93DF93EF93FF93A0E0B8E3A00FB11DD6
:100AA000CD91DC91000F0D5FA02FB0E0FC9010976E
:100AB00061F01F2D169518F041F02296FBCFE991B9
:100AC000F9913097B9F30995F5CFA02FB0E0FC92DA
:100AD000FF91EF91DF91CF91BF91AF919F918F9156
:100AE0007F916F915F914F913F912F911F91FF9057
:100AF0001F900F900FBE0F900F9118951F920F929D
:100B00000FB60F9211241F932F933F934F935F9330
:100B10006F937F938F939F93AF93BF93CF93DF9305
:100B2000EF93FF93C8EAD8E3E881F981838586FFD4
:100B300056C080FF41C0158581FF38C08E81882353
:100B400059F080912F3880935000EB85FC853097C9
:100B500019F08E8190E009951C831D821886E98525
:100B6000FA85309709F009958D81882319F183E082
:100B70009091500090932F38917090935000E8819D
:100B8000F9818287FF91EF91DF91CF91BF91AF9172
:100B90009F918F917F916F915F914F913F912F9195
:100BA0001F910F900FBE0F901F9018951C831E82EF
:100BB0001F82DDCF86E0DCCF80912F3880935000FC
:100BC000EB85FC85309729F08E81882311F090E029
:100BD00009951E821D821F82188682E0D0CF87FF72
:100BE0002FC081FF1EC0887139F08A8183FF04C045
:100BF0001D82877F8A83F1CF8B818F5F8B838A8170
:100C000088608A83A8858D81A81738F7AC0FBD2F1F
:100C1000B11D1D968C91858788858F5F888783E0BD
:100C2000AECF8585EE81E03258F4EC0FFD2FF11D3B
:100C300085A78E818F5F8E83803288F386E09FCF79
:100C400080E09DCF1F920F920FB60F9211248F93C9
:100C500081E0809353018F910F900FBE0F901F90F2
:100C60001895E0EAF8E31282138288EE93E0A0E0A0
:100C7000B0E084839583A683B7838CEA92E980836E
:100C8000918380E198E080879187E5EFF8E3128215
:100C9000138214821582168217821086118612869C
:100CA0001386108A118A128A138A148A158A168A60
:100CB000178A089588ED90E084BF90936100E0E08A
:100CC000F6E083E582838DE0858380E2838381E0A3
:100CD0008083109202028093030A9EEF9093260A6B
:100CE0009093270A9BE09093000AE0E8FAE02DEF4A
:100CF00031E026A737A7118290E89283848781E1AB
:100D00008083789461E081E00E94620261E080E08B
:100D10000E94620261E080E10E94620261E08FE075
:100D20000E94620261E08FE00E940B0260E085E0B9
:100D30000E94620260E084E00E94620262E08BE056
:100D40000E94620262E082E00E94620240E060E093
:100D500080E00E94D6020E94500440E060E08FEFE5
:100D60000E94D60264E670E080E090E00E94E40019
:100D700040E06FEF80E00E94D60264E670E080E021
:100D800090E00E94E4004FEF60E080E00E94D60215
:100D900064E670E080E090E00E94E400E0E3F8E3C5
:100DA0008FEF819328E3E435F207D9F710923038BA
:100DB00083E080933C3890E890933A3810923B3827
:100DC00090933F38109240389AEC90936D3891E0B0
:100DD00090936C389091AA3891FD17C092FD15C080
:100DE0009091010294FF85C186E080930604809172
:100DF000AA3884608093AA38E091A838F091A93885
:100E00008AE48487168681EE818782EC91E0809364
:100E1000B3389093B43881E991E08093B1389093DE
:100E2000B23866EE74E08BE00E94750061E374E016
:100E300082E00E9475001092470181E78093500183
:100E400081E08093520180915000897F846080937B
:100E50005000809150008160809350000E94D10426
:100E600004E089E0F82EEE24E394CAE0D0E011E03B
:100E70008091783880FF43C1C0907638D090773821
:100E8000DC24CD24DC240E945004809154389091BD
:100E900055384F97C816D90608F02EC110927838E9
:100EA00086E090E00E941C018091763887FF10C098
:100EB0000E9450048091543890915538809377382F
:100EC0008091543890915538892F8F778093763858
:100ED00080917B3887FF2FC02AE030E090E080E0EF
:100EE00040910006442309F40FC1F0920606E092F7
:100EF000080640910B0640FFFCCF40911006509130
:100F00001106840F951F2150310951F7BE010E942F
:100F1000E608609356387093573880915638909110
:100F2000573880937C388091563890915738892F64
:100F30008F7780937B3880917038882381F082E0AE
:100F400090E00E9402040E94100160936038709348
:100F50006138809362389093633810927038809132
:100F60006F38882361F010926F380E9410016093EF
:100F70009038709391388093923890939338809101
:100F80007238882321F0109272380E94D104809127
:100F9000583890915938A0915A38B0915B38C2971F
:100FA000A105B10538F18091583890915938A09138
:100FB0005A38B0915B38883B9B40A105B10508F0D9
:100FC000B5C00E9410016093F7387093F838809391
:100FD000F9389093FA388091943890919538039726
:100FE00009F095C00E94D104809194389091953871
:100FF0000E94EE020E94500480916E38863008F004
:10100000A2C090E00E94020480919438909195389B
:10101000892B09F09DC00E94100180906438909047
:101020006538A0906638B0906738681979098A09E0
:101030009B09613E73498440910508F489C085E0AD
:1010400090E00E94020482E090E00E941C018091E6
:101050007E388823F1F00E941001809068389090CB
:101060006938A0906A38B0906B38681979098A0994
:101070009B09613375478105910530F089E090E067
:101080000E941C0110927E3880917E3861E0813090
:1010900009F060E087E00E940B0280919438909103
:1010A0009538019731F08091943890919538049754
:1010B000C9F40E9410018090903890909138A090CF
:1010C0009238B0909338681979098A099B0961337D
:1010D00075478105910530F083E090E00E941C0186
:1010E0000E94290480919438909195380E94EE02D4
:1010F000BFCE809326047BCE00937838D5CE81FF77
:10110000D3CE10927838D0CE49EF52E8FACE0E9472
:101110001001609368387093693880936A389093AF
:101120006B3810937E3810937D385ECF88EDA8958C
:1011300084BF809100018060809300018091010153
:1011400081FDFCCFFFCF84E090E00E941C015CCFCA
:101150008091943890919538029711F1809194384C
:1011600090919538039709F072CF0E9410018090FA
:101170005C3890905D38A0905E38B0905F38681908
:1011800079098A099B0961307C458642954008F4BB
:101190005ECF8AE090E00E941C010E94D10457CFEC
:1011A0000E9410018090603890906138A090623861
:1011B000B0906338681979098A099B0961337547CA
:1011C0008105910558F20E94290441CF97FB072E13
:1011D00016F4009407D077FD09D00E94050907FC9A
:1011E00005D03EF4909581959F4F08957095619537
:1011F0007F4F08950E941F09A59F900DB49F900DE9
:10120000A49F800D911D11240895AA1BBB1B51E1C1
:1012100007C0AA1FBB1FA617B70710F0A61BB70B66
:10122000881F991F5A95A9F780959095BC01CD010B
:101230000895EE0FFF1F0590F491E02D0994A29FF1
:10124000B001B39FC001A39F700D811D1124911D9A
:10125000B29F700D811D1124911D0895F894FFCF48
:1012600010108000000000101010000000000000AE
:101270001000102040802010080402010102040820
:101280000204080100000000010101010101020245
:101290000202000000000405060705040302010025
:1012A0000001020301020300000000007F019B0116
:0A12B000BF014B01790167015301F2
:0612BA001A380E38063858
:00000001FF
