:100000000C943F000C9473000C9473000C949F05A7
:100010000C949B050C9497050C9473000C948E061D
:100020000C9473000C9473000C9473000C94730084
:100030000C9473000C9473000C9473000C945D0585
:100040000C9473000C9473000C9473000C94730064
:100050000C9473000C9473000C9473000C94730054
:100060000C94EA050C9473000C9473000C947300C8
:100070000C9473000C9473000C947300B606112456
:100080001FBECFEFCDBFDFE3DEBF80914000809386
:100090004000811105C098ED21E094BF20934100FC
:1000A0008CBB18E3A0E0B8E3E0E9F9E102C00590F9
:1000B0000D92A630B107D9F729E3A6E0B8E301C055
:1000C0001D92A132B207E1F710E0CFE3D0E004C007
:1000D0002197FE010E947B0ACE33D107C9F70E9407
:1000E000E1060C94990C0C9400009FB7F89488E0FA
:1000F0008093840A80918E0A81FFFCCF80918D0AC3
:10010000E091A20AF091A30A2091803830918138C1
:1001100040918238509183389FBF80FF07C0E730FD
:10012000F10520F42F5F3F4F4F4F5F4FBF01769592
:100130006795CF01860F911DE62FE695E695762F00
:1001400072957F70E71BFF0B67FD3196E80FF91F73
:10015000A0E3B3E00E945C0A6E0F7F1F811D911D1A
:100160000895CF92DF92EF92FF92CF93DF936B01CE
:100170007C010E947500EB010E9475006C1B7D0BD9
:10018000683E7340A0F0C114D104E104F10439F4D5
:10019000DF91CF91FF90EF90DF90CF90089581E0B5
:1001A000C81AD108E108F108C851DC4FE5CFC114E5
:1001B000D104E104F10401F7EBCFDC011896ED91D5
:1001C000FC9184818860848308959C012B5C3F4F5F
:1001D000DC011F96EC911F971E968C91E81730F466
:1001E000E20FF32FF11D808190E008958FEF9FEFD4
:1001F0000895FC01DC01D59697858685981740F413
:10020000A90FB11D2C919F5F9787822F90E00895D1
:100210008FEF9FEF0895FC0186859785891B990BC9
:100220000895FC01A585A03258F4A80FB92FB11D7F
:1002300055966C9385858F5F858781E090E0089562
:1002400090E080E00895E0912E38F0E0EC57F74C14
:10025000608188EA98E30C941101BF92CF92DF92FB
:10026000EF92FF920F931F93CF93DF937C016A016C
:10027000B62EEB010C2F0B1910E00C151D0530F4F8
:100280006991C7010E941101892BA1F7C801DF9173
:10029000CF911F910F91FF90EF90DF90CF90BF9083
:1002A000089590E080E00895F89420912F383091DF
:1002B000303840913138509132387894AFE3B0E023
:1002C0000E945C0A08959091163991112AC080937A
:1002D000183980E29EE4A0E0B0E080931D3990934D
:1002E0001E39A0931F39B09320398FEF80931039B6
:1002F0001092113910921239109213391092143948
:100300001092153981E080931639109217390E94A6
:1003100054016093193970931A3980931B39909363
:100320001C390895CF93DF93D82FC0918838C1111D
:100330000AC00E94540160936E3870936F388093A6
:10034000703890937138CD2BC0938838DF91CF915E
:100350000895E82FE695E695E695E05EF0E0EC5727
:10036000F74C482F477021E030E0B90102C0660F1A
:10037000771F4A95E2F72081262B20830E94630194
:1003800082E00C9492010F931F93CF93DF9301E0CF
:100390009091B6388091B738981709F44DC088EA23
:1003A00098E30E94F900EC01182F843290F09091AC
:1003B000B6388091B7389817C1F088EA98E30E9460
:1003C000F90087E090E0DF91CF911F910F910C949D
:1003D000A901823051F40E945401609372387093E5
:1003E00073388093743890937538C0932E389091F9
:1003F000B6388091B738981759F21151123010F46D
:100400001092943888EA98E30E94F900DD27FE01F3
:10041000EC5CF74C9081CC57D74C292F2095388134
:1004200023239823891719F085E090E0CCCF822B05
:10043000888300932D38ACCFDF91CF911F910F911E
:10044000089590E0FC01E459F64620812F3F79F0B1
:10045000865A9646DC01EC91B0E2EB9FF001112444
:10046000FC5F9085922381E019F480E008958FEF7E
:100470000895CF93DF93282F30E0E901C459D64681
:1004800088818F3F71F1A901465A5646DA01EC91F5
:10049000B0E2EB9FF0011124FC5F611125C086835F
:1004A00090818923A1F4C901885B9646DC019C9167
:1004B0003097E1F09830D0F47096E90FF11D9FB7B6
:1004C000F8948081611115C0877F80839FBF2A5C6B
:1004D0003646F9018081882321F0803161F080382F
:1004E000E1F0DF91CF9108958583DACFF0E0E0E08D
:1004F000E6CF8860EACF8881DA019C91913059F487
:10050000853010F0880F82959091010A809589239B
:100510008093010AE6CF880FF7CF1092A006E1CFB3
:100520008091763890917738039731F4109278382B
:1005300060E08EE00C943902089590E0FC01E459EB
:10054000F64620812F3FB9F0FC01E65AF646E081DD
:1005500030E2E39FF0011124FC5F60FF0DC02183B6
:10056000885B9646DC018C91E80FF11D808961FF64
:1005700005C08860808B08952283F2CF877FFACFF1
:10058000CF93282F30E0F901E459F64690819F3F40
:1005900009F445C0C82FF901EA5CF6468081803134
:1005A00031F08038A1F16038710524F00FC0611579
:1005B000710549F460E08C2F0E94390261E08C2FB4
:1005C000CF910C949D026F3F710511F461E0F3CF60
:1005D000953048F0990F265A3646F9018081E1E0BE
:1005E000813011F49295E0E0892F847459F0EC5F2A
:1005F000F0E0E85DF54F60838091010A982B9093BD
:10060000010ADCCF892F827299F3EE5FF1CF6093FC
:10061000A1068091A00681648093A006CFCFCF91E0
:100620000895CF93DF93D62FC42F8095682F70E065
:1006300081E00E94C002D0956D2F70E087E00E949B
:10064000C002C0956C2F70E086E0DF91CF910C94D2
:10065000C002CF92DF92EF92FF92CF93DF93C091CF
:100660008738D0E0E0907638F09077388091FD3888
:100670009091FE38E816F90689F00E9454016093C3
:100680000139709302398093033990930439E092D1
:10069000FD38F092FE3881E080930B398091FF386D
:1006A00090910039C817D90789F00E9454016093CE
:1006B0000139709302398093033990930439C093C0
:1006C000FF38D093003981E080930B39809116393F
:1006D000882309F48DC00E945401C0900539D09040
:1006E0000639E0900739F09008396C197D098E09B8
:1006F0009F09C0900C39D0900D39E0900E39F090E0
:100700000F39C616D706E806F90660F50E945401AF
:1007100060930539709306398093073990930839AF
:1007200084EF91E0A0E0B0E080930C3990930D3914
:10073000A0930E39B0930F398091093991E0892740
:1007400080930939882309F44CC0809117398F5F51
:100750008093173940911139609112398091103985
:100760000E9411039091173980911839891790F5DB
:1007700080ED97E0A0E0B0E080930C3990930D39C4
:10078000A0930E39B0930F3940E060E080E00E9402
:10079000110310921739109209390E945401C09028
:1007A0001939D0901A39E0901B39F0901C396C1926
:1007B0007D098E099F09C0901D39D0901E39E090A7
:1007C0001F39F0902039C616D706E806F90610F44E
:1007D00010921639DF91CF91FF90EF90DF90CF907C
:1007E0000895409114396091153980911339B8CF2B
:1007F0000E945401C0900139D0900239E090033931
:10080000F09004396C197D098E099F09613E734986
:100810008440910510F010920B3980910B398111B1
:1008200004C040E060E080E090C08091FD3890918D
:10083000FE388230910569F184F4009709F4A2C072
:10084000019709F48AC084E090E0DF91CF91FF9096
:10085000EF90DF90CF900C9463018430910509F400
:1008600049C00CF46FC0059771F70E945401C09005
:100870000139D0900239E0900339F09004396C19B5
:100880007D098E099F0960347F418105910508F03B
:1008900079C00E9454016C197D098E099F0920EDD1
:1008A00037E040E050E00E943A0A0E949E0B6B0144
:1008B0007C01AC019B010E942C0CA70196010E94B7
:1008C0002C0C28E23BE64EEE5FE40E94FD0A20E09D
:1008D00030E04BE553E40E942C0C20E030E04CE08B
:1008E00052E40E94910A0E946F0B862F40E060E064
:1008F00080952BC00E945401C0900539D0900639D4
:10090000E0900739F09008396C197D098E099F092C
:10091000653F71408105910580F08091093991E032
:100920008927809309390E94540160930539709397
:1009300006398093073990930839809109398823C3
:1009400009F46FCF40E060E08FEFDF91CF91FF902F
:10095000EF90DF90CF900C9411038091FF3890912D
:1009600000398130910541F08230910541F0892BA9
:1009700009F069CF4FEF56CF40E06FEF54CF40E022
:1009800063E8E2CF0E9454016C197D098E099F092A
:1009900020ED37E040E050E00E943A0A0E949E0BB2
:1009A0006B017C01AC019B010E942C0CA7019601FC
:1009B0000E942C0C28E23BE64EEE5FE40E94FD0A0A
:1009C00020E030E04BE553E40E942C0C20E030E0C6
:1009D00040E85FE30E94910A0E946F0B40E023CF42
:1009E00020917638309177382817390731F0809385
:1009F0007638909377380E942903809176389091C9
:100A0000773880938638089583E090E00E94F00460
:100A100010928B3860E08FE00C94390282E090E015
:100A20000E94F00410928B380E9454016093663843
:100A3000709367388093683890936938089561E0BF
:100A40008FE00E9439021092783860E08EE00E94B8
:100A5000390290E080E00E94F0040E94540160930B
:100A60006A3870936B3880936C3890936D38089522
:100A70004AE050E030E020E08C5F91E060910006B9
:100A80006623C1F0809306069093080660910B06DA
:100A900060FFFCCF6091100670911106260F371F82
:100AA0004150510959F7C9016AE070E00E94260AD5
:100AB000CB01089569EF72E8F1CFEF93FF93EAE776
:100AC000F8E38F938FB78F939F937F9370E080812C
:100AD0009181805D9C4F80839183885E934018F064
:100AE000808391837F5F9281970F928380E09381CF
:100AF000981F93839481981F94839581981F958361
:100B000096819F5F968397819F4F978390859F4F94
:100B1000908791859F4F918781E080938D0A7F9187
:100B20009F918F918FBF8F91FF91EF9118950F93A8
:100B300004E00C94A3050F9302E00C94A3050F931B
:100B400000E00C94A3050F920FB60F921F92112490
:100B5000FF921F932F933F934F935F936F937F93D6
:100B60008F939F93AF93BF93CF93DF93EF93FF93B5
:100B7000A0E0B8E3A00FB11DCD91DC91000F0D5F97
:100B8000A02FB0E0FC90109761F01F2D169518F083
:100B900041F02296FBCFE991F9913097B9F309958D
:100BA000F5CFA02FB0E0FC92FF91EF91DF91CF91B4
:100BB000BF91AF919F918F917F916F915F914F9175
:100BC0003F912F911F91FF901F900F900FBE0F909C
:100BD0000F9118951F920F920FB60F9211241F9329
:100BE0002F933F934F935F936F937F938F939F9335
:100BF000AF93BF93CF93DF93EF93FF93C0EBD8E313
:100C0000E881F981838586FF56C080FF41C0158544
:100C100081FF38C08E81882359F0809133388093CA
:100C20005000EB85FC85309719F08E8190E0099596
:100C30001C831D821886E985FA85309709F009958D
:100C40008D81882319F183E090915000909333387F
:100C5000917090935000E881F9818287FF91EF9124
:100C6000DF91CF91BF91AF919F918F917F916F91C4
:100C70005F914F913F912F911F910F900FBE0F9059
:100C80001F9018951C831E821F82DDCF86E0DCCF6B
:100C90008091333880935000EB85FC85309729F0A4
:100CA0008E81882311F090E009951E821D821F829B
:100CB000188682E0D0CF87FF2FC081FF1EC08871C9
:100CC00039F08A8183FF04C01D82877F8A83F1CF38
:100CD0008B818F5F8B838A8188608A83A8858D81D1
:100CE000A81738F7AC0FBD2FB11D1D968C918587C5
:100CF00088858F5F888783E0AECF8585EE81E0327F
:100D000058F4EC0FFD2FF11D85A78E818F5F8E8328
:100D1000803288F386E09FCF80E09DCF1F920F92B4
:100D20000FB60F9211248F939F93AF93BF9381E0DF
:100D30008093530180912F3890913038A0913138B1
:100D4000B09132380196A11DB11D80932F38909338
:100D50003038A0933138B0933238BF91AF919F9122
:100D60008F910F900FBE0F901F901895E8EAF8E34F
:100D70001282138288EE93E0A0E0B0E08483958332
:100D8000A683B78382E899E98083918380E198E024
:100D900080879187EDEFF8E314821582168217821F
:100DA00010861186128613861486158681E0868742
:100DB000138A148A158A168A178A108E118E128E3B
:100DC000089588ED90E084BF90936100E0E0F6E044
:100DD00083E582838DE0858380E2838381E0808365
:100DE000109202028093030A9EEF9093260A90933A
:100DF000270A9BE09093000AE0E8FAE02DEF31E04B
:100E000026A737A7118290E89283848781E18083A7
:100E1000789461E081E00E949D0261E087E00E9499
:100E20009D0261E086E00E949D0261E08FE00E94E9
:100E3000390261E08FE00E949D0261E08DE00E9436
:100E4000390261E08DE00E949D0261E08EE00E9427
:100E50009D0260E085E00E949D0260E084E00E94C7
:100E60009D0260E080E00E949D0262E08BE00E94B3
:100E70009D0262E082E00E949D0262E083E00E94A7
:100E80009D0261E08AE00E949D0261E08AE00E948A
:100E9000390240E060E080E00E94110340E060E041
:100EA0008FEF0E94110364E670E080E090E00E9402
:100EB000B10040E06FEF80E00E94110364E670E053
:100EC00080E090E00E94B1004FEF60E080E00E947F
:100ED000110364E670E080E090E00E94B10040E021
:100EE00060E080E00E941103E4E3F8E388E598E322
:100EF0002FEF21938E179F07E1F71092353810924C
:100F0000343893E09093443880E8809347381092C7
:100F100048388093493810924A3880934B38109261
:100F20004C388AEC8093843888E0809385388091AF
:100F3000B23881FD17C082FD15C08091010284FF87
:100F400017C186E0809306048091B2388460809354
:100F5000B238E091B038F091B1388AE484871686CF
:100F600081EE818783EC91E08093BB389093BC380D
:100F700083E291E08093B9389093BA38E0910438D5
:100F8000F0910538309769F080E992E0828393838D
:100F90009FB7F89480915104887F836080935104B7
:100FA0009FBF1092470181E58093500181E08093BB
:100FB000520180915000897F8093500080915000B1
:100FC0008160809350000E941F05CFEFD3E0809195
:100FD0007938882391F04FEF6FEF8FEF0E94110364
:100FE00062E370E080E090E00E94B10040E060E0E9
:100FF00080E00E941103109279388091973887FF22
:101000002AC084E090E00E94380580935A3890937B
:101010005B3880915A3890915B3860E0853591401B
:1010200008F4A9C080E00E94390261E080E00E94DB
:101030009D02C0935838D093593880915838909178
:101040005938892F8F7780939738809158389091AD
:101050005938809398388091993887FF16C084E07A
:1010600090E00E94380580935A3890935B388091C5
:101070005A3890915B38892F8F7780939938809177
:101080005A3890915B3880939A3880919B3887FFCB
:1010900016C085E090E00E94380580935C389093FC
:1010A0005D3880915C3890915D38892F8F7780937F
:1010B0009B3880915C3890915D3880939C3880910A
:1010C000893880FF0AC088E00E9492010E940E05C4
:1010D000809189388E7F809389388091893881FF0B
:1010E00006C091E0909378388D7F8093893882E0B4
:1010F0000E942102813009F456C00E9454011092CE
:101100005E3810925F38109260381092613882E039
:101110000E942102811145C080915E3890915F3814
:10112000A0916038B0916138813B9440A105B10530
:10113000A0F140E060E080E00E94110361E070E017
:1011400080E090E00E94B10080915E3890915F381D
:10115000A0916038B09161380196A11DB11D8093B6
:101160005E3890935F38A0936038B0936138CFCFEA
:1011700090932604E9CE80E00E949D0261E070E039
:1011800080E090E00E94B10090E080E00E9438058D
:10119000809358389093593850CF4FEF6FEF8FEFBF
:1011A000CBCF0E94290380915E3890915F38A09147
:1011B0006038B09161380597A105B10508F08DC080
:1011C00010925E3810925F38109260381092613839
:1011D00080918638863008F0C5C090E00E94F00407
:1011E0008091763890917738892B09F0C0C00E94A1
:1011F000540100916A3810916B3820916C3830910D
:101200006D38601B710B820B930B613E73498440F8
:10121000910508F4ACC084E090E00E94F00482E004
:1012200090E00E94A901809188388823D1F00E9423
:10123000540100916E3810916F38209170383091C0
:101240007138601B710B820B930B693873418105F8
:10125000910508F4F4C089E090E00E94A901109281
:10126000883861E08AE00E94390280917638909156
:1012700077380197B1F40E945401009172381091AF
:1012800073382091743830917538601B710B820B64
:10129000930B613177428105910518F081E00E943E
:1012A000920180917838882351F08091863883307C
:1012B00031F461E08EE00E9439021092783880911A
:1012C0000B39882309F4BDC080915000897F809339
:1012D00050000E94290388957ACE80915E389091C3
:1012E0005F38A0916038B0916138803B9440A1058F
:1012F000B105F0F480910B39811110C00E945401A6
:1013000060930139709302398093033990930439C3
:1013100081E080930B390E94290352CF8091763867
:10132000909177380197B9F784E00E949201F3CF4A
:101330008091763890917738039719F40E941F05B1
:101340003FCF60E08DE00E9439020E940E0564E606
:1013500070E080E090E00E94B10061E08DE00E94CA
:1013600039022ECF84E090E00E94A90139CF80910C
:10137000763890917738029749F483E00E942102F1
:10138000811104C00E94040510920B3980917638B7
:1013900090917738019731F0809176389091773835
:1013A000059779F483E00E94210281110AC00E940E
:1013B000040568EE73E080E090E00E94B1000E94B6
:1013C0001F058091763890917738029711F18091BE
:1013D000763890917738039709F025CF0E94540111
:1013E00000916238109163382091643830916538EB
:1013F000601B710B820B930B61307C4586429540DC
:1014000008F411CF8AE090E00E94A9010E941F0514
:101410000ACF0E94540100916638109167382091DC
:10142000683830916938601B710B820B930B613601
:101430007A4E8105910558F20E940405F4CE60E0D1
:1014400011CF80915000897F846041CF97FB072E98
:1014500016F4009407D077FD09D00E94670A07FCB4
:1014600005D03EF4909581959F4F089570956195B4
:101470007F4F0895A1E21A2EAA1BBB1BFD010DC0D0
:10148000AA1FBB1FEE1FFF1FA217B307E407F50734
:1014900020F0A21BB30BE40BF50B661F771F881F10
:1014A000991F1A9469F760957095809590959B01A6
:1014B000AC01BD01CF0108950E94810AA59F900D46
:1014C000B49F900DA49F800D911D11240895AA1B17
:1014D000BB1B51E107C0AA1FBB1FA617B70710F01F
:1014E000A61BB70B881F991F5A95A9F78095909551
:1014F000BC01CD010895EE0FFF1F0590F491E02D82
:101500000994A29FB001B39FC001A39F700D811DDC
:101510001124911DB29F700D811D1124911D0895FC
:101520005058BB27AA270E94A80A0C94F20B0E94CD
:10153000E40B38F00E94EB0B20F039F49F3F19F4D4
:1015400026F40C94E10B0EF4E095E7FB0C94DB0B16
:10155000E92F0E94030C58F3BA1762077307840738
:10156000950720F079F4A6F50C94250C0EF4E0957F
:101570000B2EBA2FA02D0B01B90190010C01CA014D
:10158000A0011124FF27591B99F0593F50F4503EF8
:1015900068F11A16F040A22F232F342F4427585FEA
:1015A000F3CF469537952795A795F0405395C9F702
:1015B0007EF41F16BA0B620B730B840BBAF09150BA
:1015C000A1F0FF0FBB1F661F771F881FC2F70EC059
:1015D000BA0F621F731F841F48F48795779567952C
:1015E000B795F7959E3F08F0B0CF9395880F08F018
:1015F0009927EE0F9795879508950E94110B0C94EB
:10160000F20B0E94EB0B58F00E94E40B40F029F41F
:101610005F3F29F00C94DB0B51110C94260C0C94B9
:10162000E10B0E94030C68F39923B1F3552391F366
:10163000951B550BBB27AA2762177307840738F041
:101640009F5F5F4F220F331F441FAA1FA9F335D09E
:101650000E2E3AF0E0E832D091505040E695001C52
:10166000CAF72BD0FE2F29D0660F771F881FBB1F0C
:10167000261737074807AB07B0E809F0BB0B802DEA
:10168000BF01FF2793585F4F3AF09E3F510578F016
:101690000C94DB0B0C94260C5F3FE4F3983ED4F3E0
:1016A000869577956795B795F7959F5FC9F7880FEA
:1016B000911D9695879597F90895E1E0660F771F3C
:1016C000881FBB1F621773078407BA0720F0621BCD
:1016D000730B840BBA0BEE1F88F7E09508950E94F8
:1016E0000B0C88F09F5798F0B92F9927B751B0F09D
:1016F000E1F0660F771F881F991F1AF0BA95C9F796
:1017000014C0B13091F00E94250CB1E008950C9402
:10171000250C672F782F8827B85F39F0B93FCCF3B5
:10172000869577956795B395D9F73EF49095809512
:10173000709561957F4F8F4F9F4F0895E89409C032
:1017400097FB3EF490958095709561957F4F8F4FF4
:101750009F4F9923A9F0F92F96E9BB279395F6950A
:10176000879577956795B795F111F8CFFAF4BB0F88
:1017700011F460FF1BC06F5F7F4F8F4F9F4F16C0EC
:10178000882311F096E911C0772321F09EE8872F76
:10179000762F05C0662371F096E8862F70E060E032
:1017A0002AF09A95660F771F881FDAF7880F9695AB
:1017B000879597F9089597F99F6780E870E060E052
:1017C00008959FEF80EC089500240A9416161706DA
:1017D00018060906089500240A9412161306140622
:1017E00005060895092E0394000C11F4882352F085
:1017F000BB0F40F4BF2B11F460FF04C06F5F7F4F3D
:101800008F4F9F4F089557FD9058440F551F59F023
:101810005F3F71F04795880F97FB991F61F09F3FDD
:1018200079F087950895121613061406551FF2CF06
:101830004695F1DF08C0161617061806991FF1CF56
:1018400086957105610508940895E894BB2766277D
:101850007727CB0197F908950E943F0C0C94F20B67
:101860000E94E40B38F00E94EB0B20F0952311F05E
:101870000C94DB0B0C94E10B11240C94260C0E94AD
:10188000030C70F3959FC1F3950F50E0551F629FB5
:10189000F001729FBB27F00DB11D639FAA27F00DC9
:1018A000B11DAA1F649F6627B00DA11D661F829FF0
:1018B0002227B00DA11D621F739FB00DA11D621FD5
:1018C000839FA00D611D221F749F3327A00D611DF2
:1018D000231F849F600D211D822F762F6A2F1124D4
:1018E0009F5750409AF0F1F088234AF0EE0FFF1F07
:1018F000BB1F661F771F881F91505040A9F79E3F5E
:10190000510580F00C94DB0B0C94260C5F3FE4F344
:10191000983ED4F3869577956795B795F795E795B3
:101920009F5FC1F7FE2B880F911D9695879597F9BC
:061930000895F894FFCFBA
:1019360010108000000000101010000000000000D1
:101946001000040506070504030201000001020356
:101956000102030000000000010101010101020271
:10196600020200000000102040802010080402013E
:1019760001020408020408010000000011012D0103
:0A1986005101DD000B01F900E5003E
:061990001D381138093872
:00000001FF
