:100000000C943F000C9473000C9473000C943B050B
:100010000C9437050C9433050C9473000C942A0649
:100020000C9473000C9473000C9473000C94730084
:100030000C9473000C9473000C9473000C94F904EA
:100040000C9473000C9473000C9473000C94730064
:100050000C9473000C9473000C9473000C94730054
:100060000C9486050C9473000C9473000C9473002C
:100070000C9473000C9473000C94730052061124BA
:100080001FBECFEFCDBFDFE3DEBF80914000809386
:100090004000811105C098ED21E094BF20934100FC
:1000A0008CBB18E3A0E0B8E3EAEAF3E102C00590F4
:1000B0000D92A630B107D9F729E3A6E0B8E301C055
:1000C0001D92AD31B207E1F710E0CFE3D0E004C0FC
:1000D0002197FE010E949109CE33D107C9F70E94F2
:1000E0007B060C94A6090C9400009FB7F89488E056
:1000F0008093840A80918E0A81FFFCCF80918D0AC3
:10010000E091A20AF091A30A20917D3830917E38C7
:1001100040917F38509180389FBF80FF07C0E73003
:10012000F10520F42F5F3F4F4F4F5F4FBF01769592
:100130006795CF01860F911DE62FE695E695762F00
:1001400072957F70E71BFF0B67FD3196E80FF91F73
:10015000A0E3B3E00E9472096E0F7F1F811D911D05
:100160000895CF92DF92EF92FF92CF93DF936B01CE
:100170007C010E947500EB010E9475006C1B7D0BD9
:10018000683E7340A0F0C114D104E104F10439F4D5
:10019000DF91CF91FF90EF90DF90CF90089581E0B5
:1001A000C81AD108E108F108C851DC4FE5CFC114E5
:1001B000D104E104F10401F7EBCFDC011896ED91D5
:1001C000FC9184818860848308959C012B5C3F4F5F
:1001D000DC011F96EC911F971E968C91E81730F466
:1001E000E20FF32FF11D808190E008958FEF9FEFD4
:1001F0000895FC01DC01D59697858685981740F413
:10020000A90FB11D2C919F5F9787822F90E00895D1
:100210008FEF9FEF0895FC0186859785891B990BC9
:100220000895FC01A585A03258F4A80FB92FB11D7F
:1002300055966C9385858F5F858781E090E0089562
:1002400090E080E00895E0912E38F0E0EF57F74C11
:10025000608185EA98E30C941101BF92CF92DF92FE
:10026000EF92FF920F931F93CF93DF937C016A016C
:10027000B62EEB010C2F0B1910E00C151D0530F4F8
:100280006991C7010E941101892BA1F7C801DF9173
:10029000CF911F910F91FF90EF90DF90CF90BF9083
:1002A000089590E080E00895F894F89420912F3814
:1002B0003091303840913138509132387894789478
:1002C000AFE3B0E00E947209089590911239911144
:1002D0002AC08093143980E29EE4A0E0B0E08093CD
:1002E000193990931A39A0931B39B0931C398FEFA9
:1002F00080930C3910920D3910920E3910920F39EB
:10030000109210391092113981E0809312391092B5
:1003100013390E94540160931539709316398093F4
:100320001739909318390895E82FE695E695E695E4
:10033000E05EF0E0EF57F74CAC014770552721E045
:1003400030E0B90102C0660F771F4A95E2F72081BD
:10035000262B20830C9465011F93CF93DF9311E02C
:100360009091B3388091B4389817D9F185EA98E321
:100370000E94F900EC012091B3389091B438843296
:1003800068F0291759F085EA98E30E94F90087E0A0
:1003900090E0DF91CF911F910C949401C0932E387F
:1003A0002917F1F28351823010F41092933885EAC4
:1003B00098E30E94F900DD27FE01EC5CF74C908188
:1003C000CF57D74C292F209538812323982389177D
:1003D00019F085E090E0DDCF822B888310932D38D3
:1003E000BFCFDF91CF911F91089590E0FC01EA57B4
:1003F000FC4620812F3F79F08C589C46DC01EC9123
:10040000B0E2EB9FF0011124FC5F9085922381E024
:1004100019F480E008958FEF0895CF93DF93282F8C
:1004200030E0E901CA57DC4688818F3F71F1A901AC
:100430004C585C46DA01EC91B0E2EB9FF0011124DC
:10044000FC5F611125C0868390818923A1F4C901D5
:100450008E599C46DC019C913097E1F09830D0F4A5
:100460007096E90FF11D9FB7F8948081611115C056
:10047000877F80839FBF205B3C46F9018081882372
:1004800021F0803161F08038E1F0DF91CF91089563
:100490008583DACFF0E0E0E0E6CF8860EACF8881BC
:1004A000DA019C91913059F4853010F0880F8295D3
:1004B0009091010A809589238093010AE6CF880FE5
:1004C000F7CF1092A006E1CF90E0FC01EA57FC467E
:1004D00020812F3FB9F0FC01EC58FC46E08130E26E
:1004E000E39FF0011124FC5F60FF0DC021838E5952
:1004F0009C46DC018C91E80FF11D808961FF05C0ED
:100500008860808B08952283F2CF877FFACFCF93C4
:10051000282F30E0F901EA57FC4690819F3F09F40B
:1005200045C0C82FF901E05BFC468081803131F085
:100530008038A1F16038710524F00FC06115710594
:1005400049F460E08C2F0E940D0261E08C2FCF9166
:100550000C9464026F3F710511F461E0F3CF9530A4
:1005600048F0990F2C583C46F9018081E1E0813038
:1005700011F49295E0E0892F847459F0EC5FF0E07B
:10058000E85DF54F60838091010A982B9093010AF2
:10059000DCCF892F827299F3EE5FF1CF6093A106D1
:1005A0008091A00681648093A006CFCFCF9108955B
:1005B000CF93DF93D62FC42F8095682F70E081E012
:1005C0000E948702D0956D2F70E080E00E94870224
:1005D000C0956C2F70E080E1DF91CF910C94870281
:1005E0000F931F93CF93DF93C0918438D0E0009195
:1005F0007438109175388091FA389091FB3808174B
:10060000190771F00E9454016093FE387093FF380F
:1006100080930039909301390093FA381093FB3896
:100620008091FC389091FD38C817D90771F00E946D
:1006300054016093FE387093FF3880930039909393
:100640000139C093FC38D093FD388091123988234A
:1006500009F48BC00E9454010091023910910339B2
:100660002091043930910539601B710B820B930B7B
:10067000009108391091093920910A3930910B39CC
:10068000061717072807390760F50E945401609381
:10069000023970930339809304399093053984EFBC
:1006A00091E0A0E0B0E08093083990930939A093DD
:1006B0000A39B0930B398091063991E089278093EC
:1006C0000639882309F44AC0809113398F5F8093DB
:1006D000133940910D3960910E3980910C390E9487
:1006E000D8029091133980911439891790F580EDD3
:1006F00097E0A0E0B0E08093083990930939A09387
:100700000A39B0930B3940E060E080E00E94D802E3
:1007100010921339109206390E9454010091153934
:10072000109116392091173930911839601B710BCF
:10073000820B930B0091193910911A3920911B39B2
:1007400030911C39061717072807390710F4109243
:100750001239DF91CF911F910F9108954091103977
:100760006091113980910F39BACF0E9454010091E4
:10077000FE381091FF382091003930910139601B0B
:10078000710B820B930B613C77428940910520F0FD
:1007900040E060E080E046C08091FA389091FB38FC
:1007A0008230910509F444C06CF40097C1F10197BF
:1007B00009F441C084E090E0DF91CF911F910F9147
:1007C0000C9465018330910519F3049799F70E9401
:1007D000540100910239109103392091043930916C
:1007E0000539601B710B820B930B653F71408105CE
:1007F000910580F08091063991E089278093063930
:100800000E94540160930239709303398093043934
:100810009093053980910639882309F4B9CF40E0D7
:1008200060E08FEFDF91CF911F910F910C94D80270
:1008300040E063E8F6CF8091FC389091FD3881303C
:10084000910541F08230910599F3892B09F0B2CFDF
:100850004FEF9FCF40E06FEF9DCFCF93DF9320917D
:100860007438309175382817390789F0EC010E94E7
:1008700054016093703870937138809372389093FC
:100880007338C0937438D09375380E94F002809109
:1008900074389091753880938338DF91CF910895A3
:1008A00083E090E00E942D0460E08FE00C940D0244
:1008B000CF93DF932AE030E090E080E068E071E0E1
:1008C00040910006442309F471C0609306067093BA
:1008D000080640910B0640FFFCCF40911006509156
:1008E0001106840F951F2150310951F76AE070E01D
:1008F0000E945E09609358387093593880912C3863
:10090000882309F450C0209158383091593880918B
:100910002A3890912B388217930708F444C08091AD
:10092000583890915938029708F43DC00E945004FD
:10093000C3E0D0E040E060E08FEF0E94D8026CE2BC
:1009400071E080E090E00E94B10040E060E080E073
:100950000E94D8026CE271E080E090E00E94B10059
:10096000219741F768E071E08AE090E0209100066D
:1009700049EF52E8222361F060930606709308065F
:1009800020910B0620FFFCCF4091100650911106DC
:1009900020912A3830912B38265F3F4F421753075A
:1009A00018F3019719F7DF91CF91089549EF52E8B5
:1009B00098CF0E94580461E08FE00E940D0290E001
:1009C00080E00E942D040E94540160936838709367
:1009D000693880936A3890936B38089580917438A1
:1009E00090917538039721F40E9458040C94D9040F
:1009F0000895EF93FF93E7E7F8E38F938FB78F9313
:100A00009F937F9370E080819181805D9C4F808374
:100A10009183885E934018F0808391837F5F9281F9
:100A2000970F928380E09381981F93839481981FFE
:100A300094839581981F958396819F5F9683978174
:100A40009F4F978390859F4F908791859F4F918768
:100A500081E080938D0A7F919F918F918FBF8F91BD
:100A6000FF91EF9118950F9304E00C943F050F93BD
:100A700002E00C943F050F9300E00C943F050F92A9
:100A80000FB60F921F921124FF921F932F933F9343
:100A90004F935F936F937F938F939F93AF93BF9386
:100AA000CF93DF93EF93FF93A0E0B8E3A00FB11DC6
:100AB000CD91DC91000F0D5FA02FB0E0FC9010975E
:100AC00061F01F2D169518F041F02296FBCFE991A9
:100AD000F9913097B9F30995F5CFA02FB0E0FC92CA
:100AE000FF91EF91DF91CF91BF91AF919F918F9146
:100AF0007F916F915F914F913F912F911F91FF9047
:100B00001F900F900FBE0F900F9118951F920F928C
:100B10000FB60F9211241F932F933F934F935F9320
:100B20006F937F938F939F93AF93BF93CF93DF93F5
:100B3000EF93FF93CDEAD8E3E881F981838586FFBF
:100B400056C080FF41C0158581FF38C08E81882343
:100B500059F08091333880935000EB85FC853097B5
:100B600019F08E8190E009951C831D821886E98515
:100B7000FA85309709F009958D81882319F183E072
:100B80009091500090933338917090935000E88189
:100B9000F9818287FF91EF91DF91CF91BF91AF9162
:100BA0009F918F917F916F915F914F913F912F9185
:100BB0001F910F900FBE0F901F9018951C831E82DF
:100BC0001F82DDCF86E0DCCF8091333880935000E8
:100BD000EB85FC85309729F08E81882311F090E019
:100BE00009951E821D821F82188682E0D0CF87FF62
:100BF0002FC081FF1EC0887139F08A8183FF04C035
:100C00001D82877F8A83F1CF8B818F5F8B838A815F
:100C100088608A83A8858D81A81738F7AC0FBD2F0F
:100C2000B11D1D968C91858788858F5F888783E0AD
:100C3000AECF8585EE81E03258F4EC0FFD2FF11D2B
:100C400085A78E818F5F8E83803288F386E09FCF69
:100C500080E09DCF1F920F920FB60F9211248F93B9
:100C60009F93AF93BF9381E08093530180912F387E
:100C700090913038A0913138B09132380196A11D51
:100C8000B11D80932F3890933038A0933138B093B2
:100C90003238BF91AF919F918F910F900FBE0F90FF
:100CA0001F901895E5EAF8E31282138288EE93E02C
:100CB000A0E0B0E084839583A683B7838CE993E9B1
:100CC0008083918380E198E080879187EAEFF8E361
:100CD0001482158216821782108611861286138658
:100CE00014861586128A138A148A158A168A178A18
:100CF000108E118E089588ED90E084BF909361006E
:100D0000E0E0F6E083E582838DE0858380E2838303
:100D100081E08083109202028093030A9EEF9093F9
:100D2000260A9093270A9BE09093000AE0E8FAE0F5
:100D30002DEF31E026A737A7118290E892838487B0
:100D400081E18083789461E081E00E94640261E047
:100D500080E00E94640261E080E10E94640261E040
:100D60008FE00E94640261E08FE00E940D0260E06B
:100D700085E00E94640260E084E00E94640262E018
:100D80008BE00E94640262E082E00E94640262E002
:100D900083E00E94640240E060E080E00E94D802AC
:100DA0000E94580440E060E08FEF0E94D80264E6A1
:100DB00070E080E090E00E94B10040E06FEF80E0E2
:100DC0000E94D80264E670E080E090E00E94B100EA
:100DD0004FEF60E080E00E94D80264E670E080E0BF
:100DE00090E00E94B100E4E3F8E388E598E32FEF98
:100DF00021938E179F07E1F71092353810923438FF
:100E000083E08093463890E89093443810924538B8
:100E10009093493810924A389AEC9093813891E037
:100E2000909382389091AF3891FD17C092FD15C014
:100E30009091010294FF0BC186E08093060480919B
:100E4000AF3884608093AF38E091AD38F091AE3820
:100E50008AE48487168681EE81878CEA91E080930C
:100E6000B8389093B93883E291E08093B638909384
:100E7000B738E0910438F0910538309769F08EEE7C
:100E800094E0828393839FB7F89480915104887F84
:100E90008360809351049FBF1092470181E5809346
:100EA000500181E08093520180915000897F8093AE
:100EB0005000809150008160809350000E94D904BE
:100EC00004E089E0F82EEE24E394CAE0D0E011E0DB
:100ED00080917638882391F04FEF6FEF8FEF0E946B
:100EE000D80264E170E080E090E00E94B10040E050
:100EF00060E080E00E94D8021092763880919338AA
:100F000080FFABC0C0909138D0909238DC24CD24C3
:100F1000DC240E94580480915838909159384F979A
:100F2000C816D90608F096C01092933886E090E073
:100F30000E9494018091913887FF10C00E9458044C
:100F400080915838909159388093923880915838D0
:100F500090915938892F8F77809391388091963866
:100F600087FF2FC02AE030E090E080E0409100064B
:100F7000442309F477C0F0920606E09208064091F7
:100F80000B0640FFFCCF4091100650911106840FD4
:100F9000951F2150310951F7BE010E945E096093EF
:100FA0005A3870935B3880915A3890915B388093AF
:100FB000973880915A3890915B38892F8F7780933A
:100FC000963880918638882381F01092863882E0A6
:100FD00090E00E942D040E94540160936438709345
:100FE0006538809366389093673880918538882378
:100FF00061F0109285380E945401609370387093AC
:101000007138809372389093733880918738882331
:1010100021F0109287380E94D90482E00E94F501E5
:10102000813099F10E9454014B015C0182E00E94E1
:10103000F50181111AC04FEF6FEF8FEF0E94D802B8
:1010400061E070E080E090E00E94B100EFCF80931B
:101050002604F5CE009393386DCF81FF6BCF1092AD
:10106000933868CF49EF52E892CF0E94F0020E9475
:101070005401681979098A099B0960935C38709357
:101080005D3880935E3890935F3880915C389091A2
:101090005D38A0915E38B0915F38C297A105B10567
:1010A00018F180915C3890915D38A0915E38B091D4
:1010B0005F38803D9740A105B10508F09AC00E94B5
:1010C00054016093FE387093FF38809300399093F9
:1010D00001398091743890917538039709F07AC07E
:1010E0000E94D9040E94F0020E9458048091833823
:1010F000853008F093C090E00E942D0480917438F0
:1011000090917538892B09F08EC00E94540180900F
:10111000683890906938A0906A38B0906B38681938
:1011200079098A099B09613E73498440910508F455
:101130007AC084E090E00E942D0482E090E00E945A
:101140009401809189388823F1F00E9454018090A5
:101150006C3890906D38A0906E38B0906F386819E8
:1011600079098A099B09613375478105910530F03A
:1011700089E090E00E94940110928938809189382A
:1011800061E0813009F060E087E00E940D0280910B
:101190007438909175380197C9F40E945401809079
:1011A000703890907138A0907238B0907338681988
:1011B00079098A099B09613C764C8D42910530F092
:1011C00083E090E00E9494010E9450040E94F0028B
:1011D00088957ECE0E94540160936C3870936D3870
:1011E00080936E3890936F381093893810938838B5
:1011F00079CF40E060E080E00E94D80260E08FE0BC
:101200000E940D0268E873E180E090E00E94B10066
:1012100088ED84BF81E080930001FFCF84E090E0FF
:101220000E9494016BCF8091743890917538029729
:1012300039F483E00E94F501811102C00E9450043C
:101240008091743890917538029711F180917438BB
:1012500090917538039709F074CF0E9454018090E3
:10126000603890906138A0906238B0906338681907
:1012700079098A099B0961307C458642954008F4CA
:1012800060CF8AE090E00E9494010E94D90459CF77
:101290000E9454018090643890906538A090663820
:1012A000B0906738681979098A099B0961337547D5
:1012B0008105910558F20E94500443CF97FB072EF9
:1012C00016F4009407D077FD09D00E947D0907FC31
:1012D00005D03EF4909581959F4F08957095619546
:1012E0007F4F08950E949709A59F900DB49F900D80
:1012F000A49F800D911D11240895AA1BBB1B51E1D1
:1013000007C0AA1FBB1FA617B70710F0A61BB70B75
:10131000881F991F5A95A9F780959095BC01CD011A
:101320000895EE0FFF1F0590F491E02D0994A29F00
:10133000B001B39FC001A39F700D811D1124911DA9
:10134000B29F700D811D1124911D0895F894FFCF57
:1013500010108000000000101010000000000000BD
:101360001000040506070504030201000001020342
:10137000010203000000000001010101010102025D
:10138000020200000000102040802010080402012A
:1013900001020408020408010000000011012D01EF
:0A13A0005101DD000B01F900E5002A
:0613AA001A380E38063867
:00000001FF
