:100000000C943F000C9473000C9473000C94310713
:100010000C942D070C9429070C9473000C94200861
:100020000C9473000C9473000C9473000C94730084
:100030000C9473000C9473000C9473000C94EF06F2
:100040000C9473000C9473000C9473000C94730064
:100050000C9473000C9473000C9473000C94730054
:100060000C947C070C9473000C9473000C94730034
:100070000C9473000C9473000C94730048081124C2
:100080001FBECFEFCDBFDFE3DEBF80914000809386
:100090004000811105C098ED21E094BF20934100FC
:1000A0008CBB18E3A0E0B8E3EAEDFEE102C00590E6
:1000B0000D92A630B107D9F729E3A6E0B8E301C055
:1000C0001D92AC32B207E1F710E0CFE3D0E004C0FC
:1000D0002197FE010E94200DCE33D107C9F70E945F
:1000E00073080C943E0F0C9400009FB7F89488E0BE
:1000F0008093840A80918E0A81FFFCCF80918D0AC3
:10010000E091A20AF091A30A20918B3830918C38AB
:1001100040918D3850918E389FBF80FF07C0E730E7
:10012000F10520F42F5F3F4F4F4F5F4FBF01769592
:100130006795CF01860F911DE62FE695E695762F00
:1001400072957F70E71BFF0B67FD3196E80FF91F73
:10015000A0E3B3E00E94010D6E0F7F1F811D911D72
:100160000895CF92DF92EF92FF92CF93DF936B01CE
:100170007C010E947500EB010E9475006C1B7D0BD9
:10018000683E7340A0F0C114D104E104F10439F4D5
:10019000DF91CF91FF90EF90DF90CF90089581E0B5
:1001A000C81AD108E108F108C851DC4FE5CFC114E5
:1001B000D104E104F10401F7EBCF8091010284FF47
:1001C00004C086E080930604089583E080932604AB
:1001D0000895DC011896ED91FC91848188608483F8
:1001E00008959C012B5C3F4FDC011F96EC911F97FB
:1001F0001E968C91E81730F4E20FF32FF11D8081E9
:1002000090E008958FEF9FEF0895FC01DC01D596F3
:1002100097858685981740F4A90FB11D2C919F5F93
:100220009787822F90E008958FEF9FEF0895FC014C
:1002300086859785891B990B0895FC01A585A032B9
:1002400058F4A80FB92FB11D55966C9385858F5F13
:10025000858781E090E0089590E080E00895BF9266
:10026000CF92DF92EF92FF920F931F93CF93DF9382
:100270007C016A01B62EEB010C2F0B1910E00C1556
:100280001D0530F46991C7010E941D01892BA1F75A
:10029000C801DF91CF911F910F91FF90EF90DF90F8
:1002A000CF90BF90089590E080E00895F894209159
:1002B0002F3830913038409131385091323878941D
:1002C000AFE3B0E00E94010D0895CF92DF92EF926C
:1002D000FF92CF93C82F6A017B010E9456016C19CF
:1002E0007D098E099F0920ED37E040E050E00E9433
:1002F000DF0C0E94430E6B017C01AC019B010E944C
:10030000D10EA70196010E94D10E28E23BE64EEEE7
:100310005FE40E94A20D6B017C018C2F8150990B30
:10032000BC01072E000C880B990B0E94450E9B0107
:10033000AC01C701B6010E94D10E20E030E040E8D8
:100340005FE30E94360D0E94140E862FCF91FF901E
:10035000EF90DF90CF9008959091213991112AC0AC
:100360008093233980E49CE9A0E0B0E080932839B1
:1003700090932939A0932A39B0932B398FEF80932A
:100380001B3910921C3910921D3910921E3910928F
:100390001F391092203981E080932139109222393F
:1003A0000E94560160932439709325398093263931
:1003B000909327390895CF93C82F80919338811156
:1003C0000AC00E9456016093773870937838809302
:1003D000793890937A38809193388C2B8093933826
:1003E000CF91089530919838E82FE695E695E695F7
:1003F000E05EF0E0E157F74C2081682F677041E044
:1004000050E001C0440F6A95EAF7242B208330FDA9
:100410000E94AC0182E00C94DB01FC01680F791FA3
:100420008FE09DE12191922728E0AC01880F991F70
:1004300057FF04C031E2832730E193272150A9F709
:10044000E617F70779F70895CF92DF92EF92FF92C0
:100450000F931F93CF93DF93CDB7DEB72A97CDBF0E
:10046000DEBFCE0101967C0110E000E06C019091AE
:10047000C1388091C238981769F00A301105D1F05F
:1004800083EB98E30E9405010F5F1F4FF7018193F3
:100490007F01EDCF0115110509F08BC09091C13896
:1004A0008091C238981709F48BC083EB98E30E94BF
:1004B0000501F4CF9091C1388091C238981709F4A2
:1004C0007FC083EB98E30E940501F4CFB80162502E
:1004D0007109F601E60FF71FE080FE01E00FF11F42
:1004E0008081FE2CE82EC6010E940D02E816F90656
:1004F00009F066C0F980F2E0FF120AC00E945601BE
:1005000060937B3870937C3880937D3890937E38ED
:10051000F0922E380430110509F052C080912E3827
:10052000823121F080912E38813111F410929F3860
:1005300080912E389A818A3011F4913001F1E09146
:100540002E38F0E0E157F74C3081E0912E38A09141
:100550002E38B0E0AC5CB74C2C9129232917C1F0A0
:1005600085E090E02A96CDBFDEBFDF91CF911F914D
:100570000F91FF90EF90DF90CF900C94F2011092CA
:10058000AF381092B0381092B1381092B23818C00B
:10059000F0E0EC5CF74C808180958323892BE0911F
:1005A0002E38F0E0E157F74C808381E080932D38BE
:1005B00007C00330110524F0053011050CF486CF77
:1005C0002A96CDBFDEBFDF91CF911F910F91FF9093
:1005D000EF90DF90CF900895CF93DF9300D000D0BD
:1005E000CDB7DEB7E0912E38F0E0E157F74C8081CF
:1005F0008C8361E070E0CE0104960E940D02E091D0
:100600002E38F0E0E157F74C208129839A838B83C1
:1006100043E050E0BE016F5F7F4F83EB98E30E94A1
:100620002F012496CDBFDEBFDF91CF91089590E0DA
:10063000FC01EA54F14620812F3F79F08C55914618
:10064000DC01EC91B0E2EB9FF0011124FC5F90859E
:10065000922381E019F480E008958FEF0895CF93FD
:10066000DF93282F30E0E901CA54D14688818F3FBB
:1006700071F1A9014C555146DA01EC91B0E2EB9FC2
:10068000F0011124FC5F611125C0868390818923CC
:10069000A1F4C9018E569146DC019C913097E1F09E
:1006A0009830D0F47096E90FF11D9FB7F8948081CF
:1006B000611115C0877F80839FBF20583146F901A3
:1006C0008081882321F0803161F08038E1F0DF9172
:1006D000CF9108958583DACFF0E0E0E0E6CF88603F
:1006E000EACF8881DA019C91913059F4853010F07D
:1006F000880F82959091010A809589238093010A41
:10070000E6CF880FF7CF1092A006E1CF1092833882
:1007100060E08EE00C942F031092943880917F3823
:1007200090918038039711F40C948603089590E01B
:10073000FC01EA54F14620812F3FB9F0FC01EC5551
:10074000F146E08130E2E39FF0011124FC5F60FF9D
:100750000DC021838E569146DC018C91E80FF11D6E
:10076000808961FF05C08860808B08952283F2CF65
:10077000877FFACFCF93282F30E0F901EA54F14672
:1007800090819F3F09F445C0C82FF901E058F14618
:100790008081803131F08038A1F16038710524F01A
:1007A0000FC06115710549F460E08C2F0E942F0382
:1007B00061E08C2FCF910C9497036F3F710511F47A
:1007C00061E0F3CF953048F0990F2C553146F9018F
:1007D0008081E1E0813011F49295E0E0892F84740A
:1007E00059F0EC5FF0E0E85DF54F60838091010A1D
:1007F000982B9093010ADCCF892F827299F3EE5FD8
:10080000F1CF6093A1068091A00681648093A00639
:10081000CFCFCF910895CF93DF93C62FD42F80955C
:10082000682F70E081E00E94BA03C0956C2F70E0E1
:1008300087E00E94BA03DD2359F0D095D093280AAF
:100840008091010A81608093010ADF91CF91089520
:100850008091010A8E7F8093010A61E086E0DF913A
:10086000CF910C942F030F931F938B019C01992719
:10087000832F722F612F402F822F1F910F910C9485
:100880000B04CF92DF92EF92FF92CF93C0919538F5
:10089000E0909238C0907F38D0908038809116399F
:1008A000882389F18091083990910939C816D906B1
:1008B00089F00E94560160930C3970930D39809332
:1008C0000E3990930F39C0920839D092093981E0DE
:1008D00080931639F12C80910A3990910B39E816E2
:1008E000F90689F00E94560160930C3970930D3916
:1008F00080930E3990930F39E0920A39F0920B39B8
:1009000081E08093163980912139882309F48CC0C5
:100910000E945601C0901039D0901139E0901239E0
:10092000F09013396C197D098E099F09C090173911
:10093000D0901839E0901939F0901A39C616D706B8
:10094000E806F90660F50E9456016093103970932D
:100950001139809312399093133984EF91E0A0E01C
:10096000B0E08093173990931839A0931939B09358
:100970001A398091143991E089278093143988239A
:1009800009F44BC0809122398F5F809322394091C6
:100990001C3960911D3980911B390E940B04909184
:1009A000223980912339891790F580ED97E0A0E0F6
:1009B000B0E08093173990931839A0931939B09308
:1009C0001A3960E070E0CB010E94330410922239A2
:1009D000109214390E945601C0902439D0902539C4
:1009E000E0902639F09027396C197D098E099F090E
:1009F000C0902839D0902939E0902A39F0902B39CD
:100A0000C616D706E806F90610F410922139CF91E0
:100A1000FF90EF90DF90CF90089540911F39609143
:100A2000203980911E39B9CF0E945601C0900C39EF
:100A3000D0900D39E0900E39F0900F396C197D0986
:100A40008E099F09613E73498440910510F0109210
:100A500016398091163981110AC060E070E0CB012F
:100A6000CF91FF90EF90DF90CF900C943304809162
:100A70000839909109398230910561F17CF4009731
:100A800009F4F2C0019709F48EC084E090E0CF91A0
:100A9000FF90EF90DF90CF900C94AC0184309105E3
:100AA00009F454C00CF47AC0059779F70E945601F6
:100AB000C0900C39D0900D39E0900E39F0900F397C
:100AC0006C197D098E099F0960347F41810591056C
:100AD00008F0CAC00E9456016C197D098E099F0951
:100AE00020EDC22E27E0D22EE12CF12CA701960199
:100AF0000E94DF0CA7019601261B370B480B590BF0
:100B0000CA01B9010E94430E6B017C01AC019B013B
:100B10000E94D10EA70196010E94D10E28E23BE669
:100B20004EEE5FE40E94A20D20E030E04BE553E47E
:100B30000E94D10E20E030E040E85FE30E94360DD5
:100B40000E94140E862F40E060E06EC00E945601A5
:100B5000C0901039D0901139E0901239F0901339CB
:100B60006C197D098E099F09653F714081059105CA
:100B700080F08091143991E08927809314390E9484
:100B80005601609310397093113980931239909304
:100B9000133980911439882309F45FCF60E070E045
:100BA0008FEF90E05DCFC0FF0EC00E94560128EE8F
:100BB00033E040E050E00E94DF0C683C71058105A5
:100BC000910508F44ACF80910A3990910B3982300F
:100BD0009105B1F154F4009771F1019709F055CFE7
:100BE00060E07FEF80E090E03BCF8330910569F1DA
:100BF000049709F04ACF40910C3950910D3960911A
:100C00000E3970910F3983E80E946501C82F409119
:100C10000C3950910D3960910E3970910F398FEF69
:100C20000E94650140E06C2FCF91FF90EF90DF9024
:100C3000CF900C940B046FEF70E080E090E010CF49
:100C400060E073E88FEF90E00BCF40910C3950914A
:100C50000D3960910E3970910F398CED0E9465014C
:100C600040E0682F80E0E0CFB701A6018CED0E9444
:100C70006501482F60E0F6CFCF92DF92EF92FF92AE
:100C8000CF93DF9320917F38309180382817390730
:100C900069F1EC0180917F3890918038029769F179
:100CA000C0937F38D09380380E94410480917F3870
:100CB00090918038019751F40E94560160937338E7
:100CC00070937438809375389093763880917F381C
:100CD00090918038029751F40E94560160936B38CE
:100CE00070936C3880936D3890936E3880917F3814
:100CF000909180388093913819C0C130D10581F628
:100D0000C0906B38D0906C38E0906D38F0906E38B1
:100D10000E945601C61AD70AE80AF90A81E1C816E4
:100D200087E2D806E104F10408F4BACFDF91CF914D
:100D3000FF90EF90DF90CF9008950E94560160934E
:100D40006738709368388093693890936A3860E0A8
:100D50008FE00E942F0383E090E00E943C06EFE8C2
:100D6000F8E3178214821382089561E08FE00E94F5
:100D70002F030E94860390E080E00E943C060E94C0
:100D8000560160936F3870937038809371389093E8
:100D9000723808954AE050E030E020E08C5F91E046
:100DA000609100066623C1F08093060690930806C2
:100DB00060910B0660FFFCCF6091100670911106E8
:100DC000260F371F4150510959F7C9016AE070E0F9
:100DD0000E94CB0CCB01089569EF72E8F1CFEF933D
:100DE000FF93E5E8F8E38F938FB78F939F937F93FB
:100DF00070E080819181805D9C4F80839183885ECB
:100E0000934018F0808391837F5F9281970F928344
:100E100080E09381981F93839481981F9483958198
:100E2000981F958396819F5F968397819F4F9783A5
:100E300090859F4F908791859F4F918781E0809308
:100E40008D0A7F919F918F918FBF8F91FF91EF912D
:100E500018950F9304E00C9435070F9302E00C945F
:100E600035070F9300E00C9435070F920FB60F92E1
:100E70001F921124FF921F932F933F934F935F93E1
:100E80006F937F938F939F93AF93BF93CF93DF9392
:100E9000EF93FF93A0E0B8E3A00FB11DCD91DC91DB
:100EA000000F0D5FA02FB0E0FC90109761F01F2D98
:100EB000169518F041F02296FBCFE991F991309701
:100EC000B9F30995F5CFA02FB0E0FC92FF91EF9117
:100ED000DF91CF91BF91AF919F918F917F916F9152
:100EE0005F914F913F912F911F91FF901F900F9015
:100EF0000FBE0F900F9118951F920F920FB60F9281
:100F000011241F932F933F934F935F936F937F937E
:100F10008F939F93AF93BF93CF93DF93EF93FF9301
:100F2000CBEBD8E3E881F981838586FF56C080FF4B
:100F300041C0158581FF38C08E81882359F080918A
:100F4000333880935000EB85FC85309719F08E8103
:100F500090E009951C831D821886E985FA853097F3
:100F600009F009958D81882319F183E09091500053
:100F700090933338917090935000E881F981828783
:100F8000FF91EF91DF91CF91BF91AF919F918F91A1
:100F90007F916F915F914F913F912F911F910F9092
:100FA0000FBE0F901F9018951C831E821F82DDCFED
:100FB00086E0DCCF8091333880935000EB85FC8550
:100FC000309729F08E81882311F090E009951E82D8
:100FD0001D821F82188682E0D0CF87FF2FC081FF3D
:100FE0001EC0887139F08A8183FF04C01D82877F0B
:100FF0008A83F1CF8B818F5F8B838A8188608A831C
:10100000A8858D81A81738F7AC0FBD2FB11D1D968F
:101010008C91858788858F5F888783E0AECF8585B3
:10102000EE81E03258F4EC0FFD2FF11D85A78E8183
:101030008F5F8E83803288F386E09FCF80E09DCFE4
:101040001F920F920FB60F9211248F939F93AF931D
:10105000BF9381E08093530180912F389091303875
:10106000A0913138B09132380196A11DB11D809305
:101070002F3890933038A0933138B0933238BF91E5
:10108000AF919F918F910F900FBE0F901F90189569
:10109000E3EBF8E31282138288EE93E0A0E0B0E085
:1010A00084839583A683B7838CEC9EE980839183A8
:1010B00080E198E080879187E8E0F9E31482158267
:1010C000168217821086118612861386148615865C
:1010D00081E08687138A148A158A168A178A108EE9
:1010E000118E128E089588ED90E084BF9093610078
:1010F000E0E0F6E083E582838DE0858380E2838310
:1011000081E08083109202028093030A9EEF909305
:10111000260A9093270A9BE09093000AE0E8FAE001
:101120002DEF31E026A737A7118290E892838487BC
:1011300081E1808378948091020281608093020231
:1011400061E081E00E94970361E087E00E949703DD
:1011500061E086E00E94970361E08FE00E942F0328
:1011600061E08FE00E94970361E08DE00E942F0311
:1011700061E08DE00E94970361E08EE00E9497039A
:1011800060E085E00E94970360E084E00E9497039E
:1011900060E080E00E94970362E08BE00E9497038A
:1011A00062E082E00E94970362E083E00E9497037E
:1011B00061E08AE00E94970360E08AE00E942F03CA
:1011C00040E060E080E00E940B0440E060E08FEFD0
:1011D0000E940B0464E670E080E090E00E94B100A1
:1011E00040E06FEF80E00E940B0464E670E080E076
:1011F00090E00E94B1004FEF60E080E00E940B049D
:1012000064E670E080E090E00E94B10040E060E0C1
:1012100080E00E940B04E4E3F8E388E598E32FEF15
:1012200021938E179F07E1F71092353810923C38C2
:101230001092343883E08093443880E880934738B4
:10124000109248388093493810924A3880934B382E
:1012500010924C388AEC80938F388CE080939038D1
:1012600088E0809397388091BD3881FD12C082FD5F
:1012700010C00E94DD008091BD3884608093BD382D
:10128000E091BB38F091BC388AE48487168681EE01
:10129000818784E292E08093C6389093C7388CEEC1
:1012A00092E08093C4389093C538E0910438F0916F
:1012B0000538309769F08CE893E0828393839FB779
:1012C000F89480915104887F8360809351049FBF7C
:1012D0001092470181E58093500181E08093520193
:1012E00080915000897F80935000809150008160F0
:1012F000809350000E94B506CFEFD3E004E212E0E5
:101300008CEEE82E82E0F82E9AE4D92E21EEC22E41
:1013100080918438882391F04FEF6FEF8FEF0E9418
:101320000B0464E670E080E090E00E94B10040E0D1
:1013300060E080E00E940B04109284388091A23813
:1013400087FF2AC084E090E00E94CA0680935A3842
:1013500090935B3880915A3890915B3860E0853586
:10136000914008F4A7C080E00E942F0361E080E074
:101370000E949703C0935838D093593880915838B9
:1013800090915938892F8F778093A238809158385F
:10139000909159388093A3388091A43887FF16C064
:1013A00084E090E00E94CA0680935A3890935B389C
:1013B00080915A3890915B38892F8F778093A43829
:1013C00080915A3890915B388093A5388091A638E7
:1013D00087FF16C085E090E00E94CA0680935C38C3
:1013E00090935D3880915C3890915D38892F8F772C
:1013F0008093A63880915C3890915D388093A738AF
:101400008091943880FF08C080917F389091803817
:10141000039711F40E94B5068091943881FF07C0AC
:1014200080917F3890918038019709F055C00E94D3
:10143000860382E00E941703813009F488C00E946D
:1014400056011092633810926438109265381092E9
:10145000663882E00E941703811148C0809163388A
:1014600090916438A0916538B0916638813B944082
:10147000A105B105B0F160E070E0CB010E9433043A
:1014800061E070E080E090E00E94B10080916338FC
:1014900090916438A0916538B09166380196A11D8D
:1014A000B11D8093633890936438A0936538B093EE
:1014B0006638CFCF80E00E94970361E070E080E063
:1014C00090E00E94B10090E080E00E94CA06809304
:1014D00058389093593852CF61E08EE00E942F0324
:1014E000A8CF6FEF7FEF8FEF90E0C8CF8091633888
:1014F00090916438A0916538B09166380697A1053F
:10150000B10518F10E94560180905E3890905F38C6
:10151000A0906038B0906138681979098A099B09F0
:10152000643F71408105910508F048C1809162389F
:101530008F5F809362380E94560160935E3870938B
:101540005F3880936038909361380E9441048091A5
:10155000633890916438A0916538B09166380597EA
:10156000A105B10508F02DC11092633810926438BE
:10157000109265381092663880919138863008F064
:1015800098C18091913890E00E943C0680917F380C
:1015900090918038892B09F091C10E94560180906A
:1015A0006F3890907038A0907138B0907238681988
:1015B00079098A099B09613E73498440910508F4C1
:1015C0007DC10E949D0668EE73E080E090E00E947D
:1015D000B1000E94B50682E090E00E94F201809185
:1015E0009338882391F10E9456018090773890902B
:1015F0007838A0907938B0907A38681979098A09D2
:101600009B096938734181059105F8F080917F3815
:10161000909180380197C9F40E94560180907338E8
:1016200090907438A0907538B09076386819790920
:101630008A099B09693873418105910530F089E079
:1016400090E00E94F20110929338809193388111BA
:1016500007C080917F389091803861E0019709F050
:1016600060E08AE00E942F0380917F38909180385B
:101670000197B1F40E94560180907B3890907C389D
:10168000A0907D38B0907E38681979098A099B0945
:10169000613A76488140910518F081E00E94DB01B3
:1016A00080918338882351F080919138833031F4D0
:1016B00061E08EE00E942F031092833888E00E9440
:1016C0001703811163C1809181388F5F80938138C6
:1016D00080918138813208F443C0109281388FE0C4
:1016E00090E00E94F201F8948091BD3881FF0BC018
:1016F000E091BB38F091BC38138216828091BD38DE
:101700008D7F8093BD388091BD3882FF0CC0E09101
:10171000BB38F091BC381486118616868091BD388E
:101720008B7F8093BD388091BD3881FD10C082FDD4
:101730000EC00E94DD008091BD3884608093BD386A
:10174000E091BB38F091BC38D4861686C1860093F0
:10175000C6381093C738E092C438F092C5387894F0
:101760000E94410480911639882309F412C180E057
:10177000909182389817B1F080938238F8948091D4
:1017800050008E7F8093500080915000909182385D
:10179000897F892B809350008091500081608093D5
:1017A000500078948091500081608093500088951B
:1017B000809150008E7F80935000AACD10926238A5
:1017C000BACE8091633890916438A0916538B09119
:1017D0006638803B9440A105B105A0F5809116398B
:1017E000811126C00E94560160930C3970930D3907
:1017F00080930E3990930F3981E0809316390E94BF
:101800004104809162388B3008F4AECE1092623879
:101810006FEF7FEF8FEF90E00E94330460ED77E091
:1018200080E090E00E94B10080E10E94DB019CCE4C
:1018300080917F3890918038019709F784E00E9469
:10184000DB01DDCF80917F3890918038039729F4B8
:101850000E94B50610929438D4CF61E08EE00E94C9
:101860002F0360E08DE00E942F0382E090E00E9451
:101870003C06109296380E94560160936B38709324
:101880006C3880936D3890936E3864E670E080E039
:1018900090E00E94B10061E08DE00E942F0368ECAF
:1018A00070E080E090E00E94B10082E08093943884
:1018B000A8CF84E090E00E94F20168CE80917F384A
:1018C00090918038029749F483E00E9417038111B8
:1018D00004C00E949D061092163980917F38909125
:1018E0008038019731F080917F389091803805974A
:1018F00079F483E00E94170381110AC00E949D06BB
:1019000068EE73E080E090E00E94B1000E94B506AE
:1019100080917F3890918038029711F180917F38C3
:1019200090918038039709F05ACE0E94560180901A
:10193000673890906838A0906938B0906A38681914
:1019400079098A099B0961307C458642954008F4F3
:1019500046CE8AE090E00E94F2010E94B5063FCE9A
:101960000E94560180906B3890906C38A0906D3832
:10197000B0906E38681979098A099B0961367A4EE8
:101980008105910558F20E949D0629CE109281385A
:101990009FCE84E0EDCE97FB072E16F4009407D07F
:1019A00077FD09D00E940C0D07FC05D03EF4909500
:1019B00081959F4F0895709561957F4F0895A1E29D
:1019C0001A2EAA1BBB1BFD010DC0AA1FBB1FEE1FB9
:1019D000FF1FA217B307E407F50720F0A21BB30B04
:1019E000E40BF50B661F771F881F991F1A9469F780
:1019F00060957095809590959B01AC01BD01CF01DC
:101A000008950E94260DA59F900DB49F900DA49F50
:101A1000800D911D11240895AA1BBB1B51E107C025
:101A2000AA1FBB1FA617B70710F0A61BB70B881F6E
:101A3000991F5A95A9F780959095BC01CD010895FD
:101A4000EE0FFF1F0590F491E02D0994A29FB001C5
:101A5000B39FC001A39F700D811D1124911DB29FE2
:101A6000700D811D1124911D08955058BB27AA2780
:101A70000E944D0D0C94970E0E94890E38F00E9422
:101A8000900E20F039F49F3F19F426F40C94860E42
:101A90000EF4E095E7FB0C94800EE92F0E94A80E4F
:101AA00058F3BA17620773078407950720F079F493
:101AB000A6F50C94CA0E0EF4E0950B2EBA2FA02DAD
:101AC0000B01B90190010C01CA01A0011124FF27EB
:101AD000591B99F0593F50F4503E68F11A16F040E6
:101AE000A22F232F342F4427585FF3CF46953795E5
:101AF0002795A795F0405395C9F77EF41F16BA0BAA
:101B0000620B730B840BBAF09150A1F0FF0FBB1F57
:101B1000661F771F881FC2F70EC0BA0F621F731FA0
:101B2000841F48F4879577956795B795F7959E3FFD
:101B300008F0B0CF9395880F08F09927EE0F97958E
:101B4000879508950E94B60D0C94970E0E94900EF2
:101B500058F00E94890E40F029F45F3F29F00C9460
:101B6000800E51110C94CB0E0C94860E0E94A80E80
:101B700068F39923B1F3552391F3951B550BBB27BC
:101B8000AA2762177307840738F09F5F5F4F220F01
:101B9000331F441FAA1FA9F335D00E2E3AF0E0E8F8
:101BA00032D091505040E695001CCAF72BD0FE2F42
:101BB00029D0660F771F881FBB1F261737074807D6
:101BC000AB07B0E809F0BB0B802DBF01FF2793588E
:101BD0005F4F3AF09E3F510578F00C94800E0C94C4
:101BE000CB0E5F3FE4F3983ED4F3869577956795E7
:101BF000B795F7959F5FC9F7880F911D96958795C3
:101C000097F90895E1E0660F771F881FBB1F6217E1
:101C100073078407BA0720F0621B730B840BBA0B9F
:101C2000EE1F88F7E09508950E94B00E88F09F5748
:101C300098F0B92F9927B751B0F0E1F0660F771FF0
:101C4000881F991F1AF0BA95C9F714C0B13091F0E6
:101C50000E94CA0EB1E008950C94CA0E672F782F27
:101C60008827B85F39F0B93FCCF3869577956795AB
:101C7000B395D9F73EF490958095709561957F4F17
:101C80008F4F9F4F0895E89409C097FB3EF49095BD
:101C90008095709561957F4F8F4F9F4F9923A9F045
:101CA000F92F96E9BB279395F695879577956795D4
:101CB000B795F111F8CFFAF4BB0F11F460FF1BC018
:101CC0006F5F7F4F8F4F9F4F16C0882311F096E9AB
:101CD00011C0772321F09EE8872F762F05C0662359
:101CE00071F096E8862F70E060E02AF09A95660F12
:101CF000771F881FDAF7880F9695879597F90895CB
:101D000097F99F6780E870E060E008959FEF80ECAE
:101D1000089500240A941616170618060906089551
:101D200000240A9412161306140605060895092EB7
:101D30000394000C11F4882352F0BB0F40F4BF2B26
:101D400011F460FF04C06F5F7F4F8F4F9F4F089566
:101D500057FD9058440F551F59F05F3F71F047955C
:101D6000880F97FB991F61F09F3F79F08795089541
:101D7000121613061406551FF2CF4695F1DF08C060
:101D8000161617061806991FF1CF8695710561057D
:101D900008940895E894BB2766277727CB0197F925
:101DA00008950E94E40E0C94970E0E94890E38F05C
:101DB0000E94900E20F0952311F00C94800E0C944C
:101DC000860E11240C94CB0E0E94A80E70F3959FE2
:101DD000C1F3950F50E0551F629FF001729FBB2722
:101DE000F00DB11D639FAA27F00DB11DAA1F649FBE
:101DF0006627B00DA11D661F829F2227B00DA11D71
:101E0000621F739FB00DA11D621F839FA00D611DF6
:101E1000221F749F3327A00D611D231F849F600D17
:101E2000211D822F762F6A2F11249F5750409AF040
:101E3000F1F088234AF0EE0FFF1FBB1F661F771FCC
:101E4000881F91505040A9F79E3F510580F00C9497
:101E5000800E0C94CB0E5F3FE4F3983ED4F386954E
:101E600077956795B795F795E7959F5FC1F7FE2B37
:101E7000880F911D9695879597F90895F894FFCF4F
:101E80001010800000000010101000000000000082
:101E90001000040506070504030201000001020307
:101EA0000102030000000000010101010101020222
:101EB00002020000000010204080201008040201EF
:101EC0000102040802040801000000001D012F01A6
:0A1ED0005301E90017010501F100BC
:061EDA001D381138093823
:00000001FF
