:100000000C943F000C9473000C9473000C94C8067D
:100010000C94C4060C94C0060C9473000C94B7079F
:100020000C9473000C9473000C9473000C94730084
:100030000C9473000C9473000C9473000C9486065B
:100040000C9473000C9473000C9473000C94730064
:100050000C9473000C9473000C9473000C94730054
:100060000C9413070C9473000C9473000C9473009D
:100070000C9473000C9473000C947300DF0711242C
:100080001FBECFEFCDBFDFE3DEBF80914000809386
:100090004000811105C098ED21E094BF20934100FC
:1000A0008CBB18E3A0E0B8E3EAE0FDE102C00590F4
:1000B0000D92A630B107D9F729E3A6E0B8E301C055
:1000C0001D92AA32B207E1F710E0CFE3D0E004C0FE
:1000D0002197FE010E94380CCE33D107C9F70E9448
:1000E0000A080C94560E0C9400009FB7F89488E010
:1000F0008093840A80918E0A81FFFCCF80918D0AC3
:10010000E091A20AF091A30A2091893830918A38AF
:1001100040918B3850918C389FBF80FF07C0E730EB
:10012000F10520F42F5F3F4F4F4F5F4FBF01769592
:100130006795CF01860F911DE62FE695E695762F00
:1001400072957F70E71BFF0B67FD3196E80FF91F73
:10015000A0E3B3E00E94190C6E0F7F1F811D911D5B
:100160000895CF92DF92EF92FF92CF93DF936B01CE
:100170007C010E947500EB010E9475006C1B7D0BD9
:10018000683E7340A0F0C114D104E104F10439F4D5
:10019000DF91CF91FF90EF90DF90CF90089581E0B5
:1001A000C81AD108E108F108C851DC4FE5CFC114E5
:1001B000D104E104F10401F7EBCFDC011896ED91D5
:1001C000FC9184818860848308959C012B5C3F4F5F
:1001D000DC011F96EC911F971E968C91E81730F466
:1001E000E20FF32FF11D808190E008958FEF9FEFD4
:1001F0000895FC01DC01D59697858685981740F413
:10020000A90FB11D2C919F5F9787822F90E00895D1
:100210008FEF9FEF0895FC0186859785891B990BC9
:100220000895FC01A585A03258F4A80FB92FB11D7F
:1002300055966C9385858F5F858781E090E0089562
:1002400090E080E00895BF92CF92DF92EF92FF920C
:100250000F931F93CF93DF937C016A01B62EEB01BE
:100260000C2F0B1910E00C151D0530F46991C70116
:100270000E941101892BA1F7C801DF91CF911F9135
:100280000F91FF90EF90DF90CF90BF90089590E096
:1002900080E00895F89420912F38309130384091C3
:1002A0003138509132387894AFE3B0E00E94190CA5
:1002B0000895CF92DF92EF92FF921F93CF93DF9337
:1002C000182FC62F69017A010E944A016C197D0915
:1002D0008E099F0920ED37E040E050E00E94F70BC7
:1002E0000E945B0D6B017C01D0E0AC019B010E9480
:1002F000E90DA70196010E94E90D28E23BE64EEECA
:100300005FE40E94BA0C6B017C01812F90E08C1B92
:100310009D0BBC01990F880B990B0E945D0D9B01F1
:10032000AC01C701B6010E94E90D6B017C01BE0161
:10033000DD0F880B990B0E945D0D9B01AC01C7017D
:10034000B6010E944E0C0E942C0D862FDF91CF919A
:100350001F91FF90EF90DF90CF90089590911F39FB
:1003600091112AC08093213980E49CE9A0E0B0E09B
:100370008093263990932739A0932839B09329394F
:100380008FEF8093193910921A3910921B391092FD
:100390001C3910921D3910921E3981E080931F394B
:1003A000109220390E944A016093223970932339B8
:1003B00080932439909325390895CF93DF93D82FD4
:1003C000C0919138C1110AC00E944A0160937738E8
:1003D000709378388093793890937A38CD2BC09386
:1003E0009138DF91CF910895E82FE695E695E6954F
:1003F000E05EF0E0E357F74C482F477021E030E033
:10040000B90102C0660F771F4A95E2F72081262BBB
:1004100020830E94AE0182E00C94DD01FC01680F94
:10042000791F8FE09DE12191922728E0AC01880F90
:10043000991F57FF04C031E2832730E193272150F1
:10044000A9F7E617F70779F70895CF92DF92EF92B1
:10045000FF920F931F93CF93DF93CDB7DEB72A9709
:10046000CDBFDEBF8E010F5F1F4FF12CE12C680165
:100470009091BF388091C038981779F08AE0E816DB
:10048000F10491F181EB98E30E94F9009FEFE91AE2
:10049000F90AF80181938F01EBCFE114F10461F4C3
:1004A0009091BF388091C038981709F480C081EBD3
:1004B00098E30E94F900F4CFF3E0EF16F10484F41E
:1004C0008CE090E00E94F4019091BF388091C03898
:1004D000981709F46CC081EB98E30E94F900F4CFFF
:1004E00085E0E816F10484F08DE090E00E94F401CC
:1004F0009091BF388091C038981709F458C081EBAB
:1005000098E30E94F900F4CFB70162507109F60137
:10051000E60FF71F0081FE01EE0DFF1D8081102FF9
:10052000082FC6010E940E020817190779F08BE008
:1005300090E02A96CDBFDEBFDF91CF911F910F9142
:10054000FF90EF90DF90CF900C94F401198112305E
:1005500051F40E944A0160937B3870937C388093F9
:100560007D3890937E3810932E3894E0E916F1048C
:10057000F1F48FEE810F823010F410929D389A8141
:10058000E12FF0E0DF01AC5CB74C8C91282F2923E0
:10059000921719F085E090E0CCCFE357F74C8095A7
:1005A00020818223892B808381E080932D382A96B5
:1005B000CDBFDEBFDF91CF911F910F91FF90EF90E4
:1005C000DF90CF9008951F93CF93DF9300D000D09A
:1005D000CDB7DEB7E0912E38F0E0E357F74C10814D
:1005E0001C8361E070E0CE0104960E940E02198324
:1005F0009A838B8343E050E0BE016F5F7F4F81EBB6
:1006000098E30E9423012496CDBFDEBFDF91CF91F6
:100610001F91089590E0FC01EA51F34620812F3F9D
:1006200079F08C529346DC01EC91B0E2EB9FF00143
:100630001124FC5F9085922381E019F480E00895F5
:100640008FEF0895CF93DF93282F30E0E901CA514F
:10065000D34688818F3F71F1A9014C525346DA018C
:10066000EC91B0E2EB9FF0011124FC5F611125C019
:10067000868390818923A1F4C9018E539346DC01BE
:100680009C913097E1F09830D0F47096E90FF11D0D
:100690009FB7F8948081611115C0877F80839FBFC9
:1006A00020553346F9018081882321F0803161F0A3
:1006B0008038E1F0DF91CF9108958583DACFF0E0C3
:1006C000E0E0E6CF8860EACF8881DA019C91913042
:1006D00059F4853010F0880F82959091010A809529
:1006E00089238093010AE6CF880FF7CF1092A006E6
:1006F000E1CF1092813860E08EE00C9422031092DA
:10070000923880917F3890918038039711F40C943F
:100710007903089590E0FC01EA51F34620812F3FD0
:10072000B9F0FC01EC52F346E08130E2E39FF001C6
:100730001124FC5F60FF0DC021838E539346DC01C2
:100740008C91E80FF11D808961FF05C08860808B66
:1007500008952283F2CF877FFACFCF93282F30E0FE
:10076000F901EA51F34690819F3F09F445C0C82F33
:10077000F901E055F3468081803131F08038A1F1F4
:100780006038710524F00FC06115710549F460E00F
:100790008C2F0E94220361E08C2FCF910C948A034E
:1007A0006F3F710511F461E0F3CF953048F0990F78
:1007B0002C523346F9018081E1E0813011F49295A9
:1007C000E0E0892F847459F0EC5FF0E0E85DF54FCC
:1007D00060838091010A982B9093010ADCCF892FC6
:1007E000827299F3EE5FF1CF6093A1068091A0062B
:1007F00081648093A006CFCFCF910895CF93DF93EC
:10080000C62FD42F8095682F70E081E00E94AD0341
:10081000C0956C2F70E087E00E94AD03DD2359F096
:10082000D095D093280A8091010A81608093010AB3
:10083000DF91CF9108958091010A8E7F8093010A04
:1008400061E086E0DF91CF910C9422030F931F9318
:100850008B019C019927832F722F612F402F822FAC
:100860001F910F910C94FE03EF92FF920F931F9331
:10087000CF93DF9310919338C0919038D0E0E090FF
:100880007F38F09080388091063990910739E816CA
:10089000F90689F00E944A0160930A3970930B3976
:1008A00080930C3990930D39E0920639F092073914
:1008B00081E0809314398091083990910939C817E3
:1008C000D90789F00E944A0160930A3970930B3965
:1008D00080930C3990930D39C0930839D09309391E
:1008E00081E08093143980911F39882309F48DC0E9
:1008F0000E944A0100910E3910910F392091103950
:1009000030911139601B710B820B930B00911539DB
:100910001091163920911739309118390617170799
:100920002807390760F50E944A0160930E397093D9
:100930000F39809310399093113984EF91E0A0E042
:10094000B0E08093153990931639A0931739B0937E
:1009500018398091123991E08927809312398823C0
:1009600009F44CC0809120398F5F809320394091E9
:100970001A3960911B39809119390E94FE039091B8
:10098000203980912139891790F580ED97E0A0E01A
:10099000B0E08093153990931639A0931739B0932E
:1009A000183940E060E080E00E94FE031092203998
:1009B000109212390E944A01009122391091233974
:1009C0002091243930912539601B710B820B930BD8
:1009D00000912639109127392091283930912939F1
:1009E000061717072807390710F410921F39DF91EF
:1009F000CF911F910F91FF90EF90089540911D3975
:100A000060911E3980911C39B8CF0E944A01209113
:100A10000A3930910B3940910C3950910D39621BD4
:100A2000730B840B950B613E73498440910510F064
:100A3000109214398091143981110BC060E070E07C
:100A4000CB01DF91CF911F910F91FF90EF900C940C
:100A5000260480910639909107398230910561F121
:100A600084F4009709F4C2C0019709F45AC084E0E5
:100A700090E0DF91CF911F910F91FF90EF900C9438
:100A8000AE018430910501F10CF446C0059779F769
:100A90000E944A0120910A3930910B3940910C395A
:100AA00050910D39621B730B840B950B60347F41A1
:100AB0008105910508F09AC063E28EEF0E9459010A
:100AC00040E060E0809570C00E944A0100910E39BC
:100AD00010910F392091103930911139601B710B31
:100AE000820B930B653F71408105910580F08091E9
:100AF000123991E08927809312390E944A0160934C
:100B00000E3970930F398093103990931139809179
:100B10001239882309F492CF60E070E08FEF90E003
:100B200090CF10FF0EC00E944A0128EE33E040E053
:100B300050E00E94F70B683C71058105910508F4AF
:100B40007DCF809108399091093982309105C9F1A2
:100B500054F4009789F1019709F089CF60E07FEFA5
:100B600080E090E06ECF8330910581F1049709F029
:100B70007ECF20910A3930910B3940910C39509138
:100B80000D3961E083E80E945901C82F20910A398C
:100B900030910B3940910C3950910D3961E08FEF54
:100BA0000E94590140E06C2FDF91CF911F910F916E
:100BB000FF90EF900C94FE036FEF70E080E090E008
:100BC00040CF60E073E88FEF90E03BCF20910A398F
:100BD00030910B3940910C3950910D3961E08CED19
:100BE0000E94590140E0682F80E0DECF61E08CED8B
:100BF0000E945901482F60E0F7CF20917F38309153
:100C000080382817390731F180937F3890938038E6
:100C10000E94340480917F3890918038019751F47C
:100C20000E944A01609373387093743880937538CA
:100C30009093763880917F3890918038029751F464
:100C40000E944A0160936B3870936C3880936D38C2
:100C500090936E3880917F389091803880938F3850
:100C60000895CF93DF930E944A0160936738709391
:100C700068388093693890936A3883E090E00E94E6
:100C8000FD05CDE8D8E31F8260E08FE00E942203DB
:100C90001C82DF91CF91089561E08FE00E942203D2
:100CA0000E94790390E080E00E94FD050E944A01C5
:100CB00060936F3870937038809371389093723866
:100CC00008954AE050E030E020E08C5F91E06091D0
:100CD00000066623C1F08093060690930806609193
:100CE0000B0660FFFCCF6091100670911106260F75
:100CF000371F4150510959F7C9016AE070E00E945D
:100D0000E30BCB01089569EF72E8F1CFEF93FF9306
:100D1000E3E8F8E38F938FB78F939F937F9370E00F
:100D200080819181805D9C4F80839183885E934018
:100D300018F0808391837F5F9281970F928380E088
:100D40009381981F93839481981F94839581981F12
:100D5000958396819F5F968397819F4F9783908518
:100D60009F4F908791859F4F918781E080938D0A57
:100D70007F919F918F918FBF8F91FF91EF911895E8
:100D80000F9304E00C94CC060F9302E00C94CC0675
:100D90000F9300E00C94CC060F920FB60F921F92A7
:100DA0001124FF921F932F933F934F935F936F9361
:100DB0007F938F939F93AF93BF93CF93DF93EF93E3
:100DC000FF93A0E0B8E3A00FB11DCD91DC91000F1F
:100DD0000D5FA02FB0E0FC90109761F01F2D1695CD
:100DE00018F041F02296FBCFE991F9913097B9F3D1
:100DF0000995F5CFA02FB0E0FC92FF91EF91DF9124
:100E0000CF91BF91AF919F918F917F916F915F91A2
:100E10004F913F912F911F91FF901F900F900FBE08
:100E20000F900F9118951F920F920FB60F921124E9
:100E30001F932F933F934F935F936F937F938F9362
:100E40009F93AF93BF93CF93DF93EF93FF93C9EB40
:100E5000D8E3E881F981838586FF56C080FF41C0D1
:100E6000158581FF38C08E81882359F080913338F1
:100E700080935000EB85FC85309719F08E8190E0CF
:100E800009951C831D821886E985FA85309709F03B
:100E900009958D81882319F183E0909150009093FA
:100EA0003338917090935000E881F9818287FF91E7
:100EB000EF91DF91CF91BF91AF919F918F917F91F2
:100EC0006F915F914F913F912F911F910F900FBEA6
:100ED0000F901F9018951C831E821F82DDCF86E025
:100EE000DCCF8091333880935000EB85FC853097C0
:100EF00029F08E81882311F090E009951E821D82D1
:100F00001F82188682E0D0CF87FF2FC081FF1EC0CE
:100F1000887139F08A8183FF04C01D82877F8A83AC
:100F2000F1CF8B818F5F8B838A8188608A83A885CC
:100F30008D81A81738F7AC0FBD2FB11D1D968C9170
:100F4000858788858F5F888783E0AECF8585EE8132
:100F5000E03258F4EC0FFD2FF11D85A78E818F5FD5
:100F60008E83803288F386E09FCF80E09DCF1F92F2
:100F70000F920FB60F9211248F939F93AF93BF934D
:100F800081E08093530180912F3890913038A09167
:100F90003138B09132380196A11DB11D80932F38A0
:100FA00090933038A0933138B0933238BF91AF91DD
:100FB0009F918F910F900FBE0F901F901895E1EBAE
:100FC000F8E31282138288EE93E0A0E0B0E084831D
:100FD0009583A683B7838CEF9CE98083918380E11E
:100FE00098E080879187E6E0F9E314821582168203
:100FF000178210861186128613861486158681E064
:101000008687138A148A158A168A178A108E118E7B
:10101000128E089588ED90E084BF90936100E0E027
:10102000F6E083E582838DE0858380E2838381E03F
:101030008083109202028093030A9EEF9093260A07
:101040009093270A9BE09093000AE0E8FAE02DEFE6
:1010500031E026A737A7118290E89283848781E147
:10106000808378948091020281608093020261E023
:1010700081E00E948A0361E087E00E948A0361E0C8
:1010800086E00E948A0361E08FE00E94220361E013
:101090008FE00E948A0361E08DE00E94220361E0FC
:1010A0008DE00E948A0361E08EE00E948A0360E086
:1010B00085E00E948A0360E084E00E948A0360E089
:1010C00080E00E948A0362E08BE00E948A0362E073
:1010D00082E00E948A0362E083E00E948A0361E06A
:1010E0008AE00E948A0360E08AE00E94220340E0D6
:1010F00060E080E00E94FE0340E060E08FEF0E942D
:10110000FE0364E670E080E090E00E94B10040E001
:101110006FEF80E00E94FE0364E670E080E090E004
:101120000E94B1004FEF60E080E00E94FE0364E6A1
:1011300070E080E090E00E94B10040E060E080E07C
:101140000E94FE03E4E3F8E388E598E32FEF2193A0
:101150008E179F07E1F7109235381092343893E0DC
:101160009093443880E880934738109248388093B1
:10117000493810924A3880934B3810924C388AEC98
:1011800080938D388CE080938E388091BB3881FDC0
:1011900017C082FD15C08091010284FF18C186E04E
:1011A000809306048091BB3884608093BB38E091C3
:1011B000B938F091BA388AE48487168681EE81873F
:1011C00085E292E08093C4389093C53883EE92E034
:1011D0008093C2389093C338E0910438F091053879
:1011E000309769F08FE793E0828393839FB7F894F9
:1011F00080915104887F8360809351049FBF109237
:10120000470181E58093500181E0809352018091F4
:101210005000897F809350008091500081608093BE
:1012200050000E944C06CFEFD3E080918238882393
:1012300091F04FEF6FEF8FEF0E94FE0364E670E0D6
:1012400080E090E00E94B10040E060E080E00E9419
:10125000FE03109282388091A03887FF2AC084E074
:1012600090E00E94610680935A3890935B38809199
:101270005A3890915B3860E08535914008F4AAC0F7
:1012800080E00E94220361E080E00E948A03C09314
:101290005838D09359388091583890915938892FBF
:1012A0008F778093A03880915838909159388093E7
:1012B000A1388091A23887FF16C084E090E00E9498
:1012C000610680935A3890935B3880915A38909198
:1012D0005B38892F8F778093A23880915A3890910C
:1012E0005B388093A3388091A43887FF16C085E0CF
:1012F00090E00E94610680935C3890935D38809105
:101300005C3890915D38892F8F778093A4388091D5
:101310005C3890915D388093A5388091923880FF39
:1013200008C080917F3890918038039711F40E9413
:101330004C068091923881FF07C080917F38909150
:101340008038019709F058C00E94790382E00E941A
:101350000A03813009F48BC00E944A01109263385D
:1013600010926438109265381092663882E00E94BC
:101370000A0381114BC08091633890916438A09129
:101380006538B0916638813B9440A105B105C8F13C
:1013900060E070E0CB010E94260461E070E080E034
:1013A00090E00E94B1008091633890916438A091E0
:1013B0006538B09166380196A11DB11D80936338E0
:1013C00090936438A0936538B0936638CFCF9093EC
:1013D0002604E8CE80E00E948A0361E070E080E0AD
:1013E00090E00E94B10090E080E00E94610680934E
:1013F0005838909359384FCF61E08EE00E94220315
:10140000A5CF6FEF7FEF8FEF90E0C5CF809163386E
:1014100090916438A0916538B09166380697A1051F
:10142000B10518F10E944A0100915E3810915F38B1
:101430002091603830916138601B710B820B930BE7
:10144000643F71408105910508F0D0C080916238F9
:101450008F5F809362380E944A0160935E38709378
:101460005F3880936038909361380E943404809193
:10147000633890916438A0916538B09166380597CB
:10148000A105B10508F0B5C0109263381092643818
:10149000109265381092663880918F38863008F047
:1014A00020C190E00E94FD0580917F3890918038A6
:1014B000892B09F01BC10E944A0100916F381091DD
:1014C00070382091713830917238601B710B820B2B
:1014D000930B613E73498440910508F407C10E9453
:1014E000310668EE73E080E090E00E94B1000E9457
:1014F0004C0682E090E00E94F401809191388823AC
:1015000091F10E944A01009177381091783820912A
:10151000793830917A38601B710B820B930B6938E4
:1015200073418105910530F180917F389091803829
:10153000019701F50E944A010091733810917438A7
:101540002091753830917638601B710B820B930BAC
:10155000693873418105910568F089E090E00E9447
:10156000F4011092913880917F389091803861E039
:10157000019709F060E08AE00E94220380917F38A1
:10158000909180380197B1F40E944A0100917B3814
:1015900010917C3820917D3830917E38601B710B22
:1015A000820B930B613A76488140910518F081E0F7
:1015B0000E94DD0180918138882351F080918F381D
:1015C000833031F461E08EE00E9422031092813872
:1015D00080911439882309F4F1C080915000897FEB
:1015E000809350000E94340488951FCE1092623878
:1015F00032CF8091633890916438A0916538B09172
:101600006638803B9440A105B105A0F5809114395E
:10161000811126C00E944A0160930A3970930B39E8
:1016200080930C3990930D3981E0809314390E9496
:101630003404809162388B3008F426CF10926238DF
:101640006FEF7FEF8FEF90E00E94260460ED77E070
:1016500080E090E00E94B10080E10E94DD0114CFA3
:1016600080917F3890918038019709F784E00E943B
:10167000DD01DDCF80917F3890918038039729F488
:101680000E944C0610929238D4CF61E08EE00E9406
:10169000220360E08DE00E94220382E090E00E943D
:1016A000FD05109294380E944A0160936B38709344
:1016B0006C3880936D3890936E3864E670E080E00B
:1016C00090E00E94B10061E08DE00E94220368EC8E
:1016D00070E080E090E00E94B10082E08093923858
:1016E000A8CF84E090E00E94F401DECE80917F38A4
:1016F00090918038029749F483E00E940A03811197
:1017000004C00E9431061092143980917F38909164
:101710008038019731F080917F389091803805971B
:1017200079F483E00E940A0381110AC00E94310605
:1017300068EE73E080E090E00E94B1000E944C06E9
:1017400080917F3890918038029711F180917F3895
:1017500090918038039709F0D0CE0E944A01009101
:101760006738109168382091693830916A38601B69
:10177000710B820B930B61307C458642954008F4D7
:10178000BCCE8AE090E00E94F4010E944C06B5CEE7
:101790000E944A0100916B3810916C3820916D388D
:1017A00030916E38601B710B820B930B61367A4E51
:1017B0008105910558F20E9431069FCE809150001C
:1017C000897F84600DCF97FB072E16F4009407D015
:1017D00077FD09D00E94240C07FC05D03EF49095BB
:1017E00081959F4F0895709561957F4F0895A1E26F
:1017F0001A2EAA1BBB1BFD010DC0AA1FBB1FEE1F8B
:10180000FF1FA217B307E407F50720F0A21BB30BD5
:10181000E40BF50B661F771F881F991F1A9469F751
:1018200060957095809590959B01AC01BD01CF01AD
:1018300008950E943E0CA59F900DB49F900DA49F0B
:10184000800D911D11240895AA1BBB1B51E107C0F7
:10185000AA1FBB1FA617B70710F0A61BB70B881F40
:10186000991F5A95A9F780959095BC01CD010895CF
:10187000EE0FFF1F0590F491E02D0994A29FB00197
:10188000B39FC001A39F700D811D1124911DB29FB4
:10189000700D811D1124911D08955058BB27AA2752
:1018A0000E94650C0C94AF0D0E94A10D38F00E94AF
:1018B000A80D20F039F49F3F19F426F40C949E0DE6
:1018C0000EF4E095E7FB0C94980DE92F0E94C00DF3
:1018D00058F3BA17620773078407950720F079F465
:1018E000A6F50C94E20D0EF4E0950B2EBA2FA02D68
:1018F0000B01B90190010C01CA01A0011124FF27BD
:10190000591B99F0593F50F4503E68F11A16F040B7
:10191000A22F232F342F4427585FF3CF46953795B6
:101920002795A795F0405395C9F77EF41F16BA0B7B
:10193000620B730B840BBAF09150A1F0FF0FBB1F29
:10194000661F771F881FC2F70EC0BA0F621F731F72
:10195000841F48F4879577956795B795F7959E3FCF
:1019600008F0B0CF9395880F08F09927EE0F979560
:10197000879508950E94CE0C0C94AF0D0E94A80D7F
:1019800058F00E94A10D40F029F45F3F29F00C941B
:10199000980D51110C94E30D0C949E0D0E94C00DF6
:1019A00068F39923B1F3552391F3951B550BBB278E
:1019B000AA2762177307840738F09F5F5F4F220FD3
:1019C000331F441FAA1FA9F335D00E2E3AF0E0E8CA
:1019D00032D091505040E695001CCAF72BD0FE2F14
:1019E00029D0660F771F881FBB1F261737074807A8
:1019F000AB07B0E809F0BB0B802DBF01FF27935860
:101A00005F4F3AF09E3F510578F00C94980D0C947E
:101A1000E30D5F3FE4F3983ED4F3869577956795A1
:101A2000B795F7959F5FC9F7880F911D9695879594
:101A300097F90895E1E0660F771F881FBB1F6217B3
:101A400073078407BA0720F0621B730B840BBA0B71
:101A5000EE1F88F7E09508950E94C80D88F09F5703
:101A600098F0B92F9927B751B0F0E1F0660F771FC2
:101A7000881F991F1AF0BA95C9F714C0B13091F0B8
:101A80000E94E20DB1E008950C94E20D672F782FCB
:101A90008827B85F39F0B93FCCF38695779567957D
:101AA000B395D9F73EF490958095709561957F4FE9
:101AB0008F4F9F4F0895E89409C097FB3EF490958F
:101AC0008095709561957F4F8F4F9F4F9923A9F017
:101AD000F92F96E9BB279395F695879577956795A6
:101AE000B795F111F8CFFAF4BB0F11F460FF1BC0EA
:101AF0006F5F7F4F8F4F9F4F16C0882311F096E97D
:101B000011C0772321F09EE8872F762F05C066232A
:101B100071F096E8862F70E060E02AF09A95660FE3
:101B2000771F881FDAF7880F9695879597F908959C
:101B300097F99F6780E870E060E008959FEF80EC80
:101B4000089500240A941616170618060906089523
:101B500000240A9412161306140605060895092E89
:101B60000394000C11F4882352F0BB0F40F4BF2BF8
:101B700011F460FF04C06F5F7F4F8F4F9F4F089538
:101B800057FD9058440F551F59F05F3F71F047952E
:101B9000880F97FB991F61F09F3F79F08795089513
:101BA000121613061406551FF2CF4695F1DF08C032
:101BB000161617061806991FF1CF8695710561054F
:101BC00008940895E894BB2766277727CB0197F9F7
:101BD00008950E94FC0D0C94AF0D0E94A10D38F0E9
:101BE0000E94A80D20F0952311F00C94980D0C94F0
:101BF0009E0D11240C94E30D0E94C00D70F3959F6F
:101C0000C1F3950F50E0551F629FF001729FBB27F3
:101C1000F00DB11D639FAA27F00DB11DAA1F649F8F
:101C20006627B00DA11D661F829F2227B00DA11D42
:101C3000621F739FB00DA11D621F839FA00D611DC8
:101C4000221F749F3327A00D611D231F849F600DE9
:101C5000211D822F762F6A2F11249F5750409AF012
:101C6000F1F088234AF0EE0FFF1FBB1F661F771F9E
:101C7000881F91505040A9F79E3F510580F00C9469
:101C8000980D0C94E30D5F3FE4F3983ED4F38695F2
:101C900077956795B795F795E7959F5FC1F7FE2B09
:101CA000880F911D9695879597F90895F894FFCF21
:101CB0001010800000000010101000000000000054
:101CC00010000405060705040302010000010203D9
:101CD00001020300000000000101010101010202F4
:101CE00002020000000010204080201008040201C1
:101CF0000102040802040801000000001101230190
:0A1D00004701DD000B01F900E500CA
:061D0A001D3811380938F4
:00000001FF
