:100000000C943F000C9473000C9473000C94E7055F
:100010000C94E3050C94DF050C9473000C94D60645
:100020000C9473000C9473000C9473000C94730084
:100030000C9473000C9473000C9473000C94A5053D
:100040000C9473000C9473000C9473000C94730064
:100050000C9473000C9473000C9473000C94730054
:100060000C9432060C9473000C9473000C9473007F
:100070000C9473000C9473000C947300FE0611240E
:100080001FBECFEFCDBFDFE3DEBF80914000809386
:100090004000811105C098ED21E094BF20934100FC
:1000A0008CBB18E3A0E0B8E3E0ECF9E102C00590F6
:1000B0000D92A630B107D9F729E3A6E0B8E301C055
:1000C0001D92AE31B207E1F710E0CFE3D0E004C0FB
:1000D0002197FE010E94930ACE33D107C9F70E94EF
:1000E00029070C94B10C0C9400009FB7F89488E099
:1000F0008093840A80918E0A81FFFCCF80918D0AC3
:10010000E091A20AF091A30A20917D3830917E38C7
:1001100040917F38509180389FBF80FF07C0E73003
:10012000F10520F42F5F3F4F4F4F5F4FBF01769592
:100130006795CF01860F911DE62FE695E695762F00
:1001400072957F70E71BFF0B67FD3196E80FF91F73
:10015000A0E3B3E00E94740A6E0F7F1F811D911D02
:100160000895CF92DF92EF92FF92CF93DF936B01CE
:100170007C010E947500EB010E9475006C1B7D0BD9
:10018000683E7340A0F0C114D104E104F10439F4D5
:10019000DF91CF91FF90EF90DF90CF90089581E0B5
:1001A000C81AD108E108F108C851DC4FE5CFC114E5
:1001B000D104E104F10401F7EBCFDC011896ED91D5
:1001C000FC9184818860848308959C012B5C3F4F5F
:1001D000DC011F96EC911F971E968C91E81730F466
:1001E000E20FF32FF11D808190E008958FEF9FEFD4
:1001F0000895FC01DC01D59697858685981740F413
:10020000A90FB11D2C919F5F9787822F90E00895D1
:100210008FEF9FEF0895FC0186859785891B990BC9
:100220000895FC01A585A03258F4A80FB92FB11D7F
:1002300055966C9385858F5F858781E090E0089562
:1002400090E080E00895E0912E38F0E0EF57F74C11
:10025000608185EA98E30C941101BF92CF92DF92FE
:10026000EF92FF920F931F93CF93DF937C016A016C
:10027000B62EEB010C2F0B1910E00C151D0530F4F8
:100280006991C7010E941101892BA1F7C801DF9173
:10029000CF911F910F91FF90EF90DF90CF90BF9083
:1002A000089590E080E00895F89420912F383091DF
:1002B000303840913138509132387894AFE3B0E023
:1002C0000E94740A08959091133991112AC0809365
:1002D000153980E29EE4A0E0B0E080931A39909353
:1002E0001B39A0931C39B0931D398FEF80930D39C2
:1002F00010920E3910920F39109210391092113954
:100300001092123981E080931339109214390E94AF
:10031000540160931639709317398093183990936C
:1003200019390895CF93DF93D82FC0918538C11123
:100330000AC00E94540160936C3870936D388093AA
:100340006E3890936F38CD2BC0938538DF91CF9165
:100350000895E82FE695E695E695E05EF0E0EF5724
:10036000F74CAC014770552721E030E0B90102C0DD
:10037000660F771F4A95E2F72081262B20830E9483
:10038000630182E00C9492010F931F93CF93DF934C
:1003900001E09091B3388091B438981709F44DC0BA
:1003A00085EA98E30E94F900EC01182F843290F05E
:1003B0009091B3388091B4389817C1F085EA98E3EA
:1003C0000E94F90087E090E0DF91CF911F910F919B
:1003D0000C94A901823051F40E945401609370384A
:1003E000709371388093723890937338C0932E381D
:1003F0009091B3388091B438981759F21351123054
:1004000010F41092933885EA98E30E94F900DD27F2
:10041000FE01EC5CF74C9081CF57D74C292F2095EB
:10042000388123239823891719F085E090E0CCCFF9
:10043000822B888300932D38ACCFDF91CF911F9111
:100440000F91089590E0FC01E456F64620812F3F7D
:1004500079F086579646DC01EC91B0E2EB9FF00113
:100460001124FC5F9085922381E019F480E00895C7
:100470008FEF0895CF93DF93282F30E0E901C45622
:10048000D64688818F3F71F1A90146575646DA0159
:10049000EC91B0E2EB9FF0011124FC5F611125C0EB
:1004A000868390818923A1F4C90188589646DC018E
:1004B0009C913097E1F09830D0F47096E90FF11DDF
:1004C0009FB7F8948081611115C0877F80839FBF9B
:1004D0002A593646F9018081882321F0803161F064
:1004E0008038E1F0DF91CF9108958583DACFF0E095
:1004F000E0E0E6CF8860EACF8881DA019C91913014
:1005000059F4853010F0880F82959091010A8095FA
:1005100089238093010AE6CF880FF7CF1092A006B7
:10052000E1CF90E0FC01E456F64620812F3FB9F080
:10053000FC01E657F646E08130E2E39FF00111242A
:10054000FC5F60FF0DC0218388589646DC018C91CA
:10055000E80FF11D808961FF05C08860808B0895D8
:100560002283F2CF877FFACFCF93282F30E0F90193
:10057000E456F64690819F3F09F445C0C82FF90123
:10058000EA59F6468081803131F08038A1F1603837
:10059000710524F00FC06115710549F460E08C2FDE
:1005A0000E943A0261E08C2FCF910C9491026F3F30
:1005B000710511F461E0F3CF953048F0990F26579B
:1005C0003646F9018081E1E0813011F49295E0E056
:1005D000892F847459F0EC5FF0E0E85DF54F60839B
:1005E0008091010A982B9093010ADCCF892F8272A7
:1005F00099F3EE5FF1CF6093A1068091A00681642C
:100600008093A006CFCFCF910895CF93DF93D62FBD
:10061000C42F8095682F70E081E00E94B402D095CD
:100620006D2F70E087E00E94B402C0956C2F70E0DF
:1006300086E0DF91CF910C94B402CF92DF92EF92DB
:10064000FF92CF93DF93C0918438D0E0E09074386C
:10065000F09075388091FA389091FB38E816F906D9
:1006600089F00E9454016093FE387093FF388093A4
:10067000003990930139E092FA38F092FB3881E02A
:10068000809308398091FC389091FD38C817D907BC
:1006900089F00E9454016093FE387093FF38809374
:1006A000003990930139C093FC38D093FD3881E034
:1006B0008093083980911339882309F48DC00E94F2
:1006C0005401C0900239D0900339E0900439F09081
:1006D00005396C197D098E099F09C0900939D090A0
:1006E0000A39E0900B39F0900C39C616D706E806A7
:1006F000F90660F50E945401609302397093033942
:10070000809304399093053984EF91E0A0E0B0E044
:100710008093093990930A39A0930B39B0930C391F
:100720008091063991E0892780930639882309F45E
:100730004CC0809114398F5F8093143940910E39E9
:1007400060910F3980910D390E9405039091143901
:1007500080911539891790F580ED97E0A0E0B0E021
:100760008093093990930A39A0930B39B0930C39CF
:1007700040E060E080E00E9405031092143910927E
:1007800006390E945401C0901639D0901739E09074
:100790001839F09019396C197D098E099F09C0909C
:1007A0001A39D0901B39E0901C39F0901D39C616CB
:1007B000D706E806F90610F410921339DF91CF91AD
:1007C000FF90EF90DF90CF900895409111396091A4
:1007D000123980911039B8CF0E945401C090FE3870
:1007E000D090FF38E0900039F09001396C197D0904
:1007F0008E099F09613E73498440910510F0109263
:10080000083980910839811104C040E060E080E03F
:1008100078C08091FA389091FB388230910509F4C4
:1008200078C07CF40097F1F1019709F4A3C084E04B
:1008300090E0DF91CF91FF90EF90DF90CF900C94FC
:1008400063018330910551F1049789F70E945401A7
:10085000C0900239D0900339E0900439F090053906
:100860006C197D098E099F09653F714081059105CD
:1008700080F08091063991E08927809306390E94A3
:100880005401609302397093033980930439909333
:10089000053980910639882309F4B7CF40E060E03C
:1008A0008FEF2FC00E9454016C197D098E099F099A
:1008B00020ED37E040E050E00E94520A0E94B60B63
:1008C0006B017C01AC019B010E94440CA7019601C5
:1008D0000E94440C28E23BE64EEE5FE40E94150BBA
:1008E00020E030E04BE553E40E94440C20E030E08F
:1008F00040E85FE30E94A90A0E94870B862F40E030
:1009000060E0DF91CF91FF90EF90DF90CF900C945B
:1009100005030E9454016C197D098E099F0920ED81
:1009200037E040E050E00E94520A0E94B60B6B0193
:100930007C01AC019B010E94440CA70196010E941E
:10094000440C28E23BE64EEE5FE40E94150B20E0EB
:1009500030E04BE553E40E94440C20E030E04CE0F2
:1009600052E40E94A90A0E94870B862F40E060E0B3
:100970008095C7CF8091FC389091FD3881309105EA
:1009800041F08230910541F0892B09F050CF4FEFB3
:100990003DCF40E06FEF3BCF40E063E881CF209157
:1009A0007438309175382817390731F080937438CE
:1009B000909375380E941D0380917438909175381A
:1009C00080938338089583E090E00E94CF0460E034
:1009D0008FE00C943A0282E090E00E94CF040E94E3
:1009E00054016093643870936538809366389093AF
:1009F00067380895CF93DF932AE030E090E080E0FD
:100A000068E071E040910006442309F471C06093EE
:100A100006067093080640910B0640FFFCCF4091FC
:100A2000100650911106840F951F2150310951F77E
:100A30006AE070E00E943E0A60935838709359381B
:100A400080912C38882309F450C020915838309177
:100A5000593880912A3890912B388217930708F4DF
:100A600044C08091583890915938029708F43DC09D
:100A70000E94E304C3E0D0E040E060E08FEF0E941A
:100A800005036CE271E080E090E00E94B10040E07C
:100A900060E080E00E9405036CE271E080E090E09D
:100AA0000E94B100219741F768E071E08AE090E090
:100AB0002091000649EF52E8222361F06093060678
:100AC0007093080620910B0620FFFCCF4091100682
:100AD0005091110620912A3830912B38265F3F4FD4
:100AE0004217530718F3019719F7DF91CF91089533
:100AF00049EF52E898CF80917438909175380397F8
:100B000041F40E94FA040E94FA0460E08EE00C9422
:100B10003A0208950E94FA0461E08FE00E943A02CE
:100B20000E94FA0460E08EE00E943A0290E080E0C9
:100B30000E94CF040E945401609368387093693812
:100B400080936A3890936B380895EF93FF93E7E7AB
:100B5000F8E38F938FB78F939F937F9370E080819B
:100B60009181805D9C4F80839183885E934018F0D3
:100B7000808391837F5F9281970F928380E093813E
:100B8000981F93839481981F94839581981F9583D0
:100B900096819F5F968397819F4F978390859F4F04
:100BA000908791859F4F918781E080938D0A7F91F7
:100BB0009F918F918FBF8F91FF91EF9118950F9318
:100BC00004E00C94EB050F9302E00C94EB050F93FB
:100BD00000E00C94EB050F920FB60F921F921124B8
:100BE000FF921F932F933F934F935F936F937F9346
:100BF0008F939F93AF93BF93CF93DF93EF93FF9325
:100C0000A0E0B8E3A00FB11DCD91DC91000F0D5F06
:100C1000A02FB0E0FC90109761F01F2D169518F0F2
:100C200041F02296FBCFE991F9913097B9F30995FC
:100C3000F5CFA02FB0E0FC92FF91EF91DF91CF9123
:100C4000BF91AF919F918F917F916F915F914F91E4
:100C50003F912F911F91FF901F900F900FBE0F900B
:100C60000F9118951F920F920FB60F9211241F9398
:100C70002F933F934F935F936F937F938F939F93A4
:100C8000AF93BF93CF93DF93EF93FF93CDEAD8E376
:100C9000E881F981838586FF56C080FF41C01585B4
:100CA00081FF38C08E81882359F08091333880933A
:100CB0005000EB85FC85309719F08E8190E0099506
:100CC0001C831D821886E985FA85309709F00995FD
:100CD0008D81882319F183E09091500090933338EF
:100CE000917090935000E881F9818287FF91EF9194
:100CF000DF91CF91BF91AF919F918F917F916F9134
:100D00005F914F913F912F911F910F900FBE0F90C8
:100D10001F9018951C831E821F82DDCF86E0DCCFDA
:100D20008091333880935000EB85FC85309729F013
:100D30008E81882311F090E009951E821D821F820A
:100D4000188682E0D0CF87FF2FC081FF1EC0887138
:100D500039F08A8183FF04C01D82877F8A83F1CFA7
:100D60008B818F5F8B838A8188608A83A8858D8140
:100D7000A81738F7AC0FBD2FB11D1D968C91858734
:100D800088858F5F888783E0AECF8585EE81E032EE
:100D900058F4EC0FFD2FF11D85A78E818F5F8E8398
:100DA000803288F386E09FCF80E09DCF1F920F9224
:100DB0000FB60F9211248F939F93AF93BF9381E04F
:100DC0008093530180912F3890913038A091313821
:100DD000B09132380196A11DB11D80932F389093A8
:100DE0003038A0933138B0933238BF91AF919F9192
:100DF0008F910F900FBE0F901F901895E5EAF8E3C2
:100E00001282138288EE93E0A0E0B0E084839583A1
:100E1000A683B78382EB99E98083918380E198E090
:100E200080879187EAEFF8E3148215821682178291
:100E300010861186128613861486158681E08687B1
:100E4000138A148A158A168A178A108E118E128EAA
:100E5000089588ED90E084BF90936100E0E0F6E0B3
:100E600083E582838DE0858380E2838381E08083D4
:100E7000109202028093030A9EEF9093260A9093A9
:100E8000270A9BE09093000AE0E8FAE02DEF31E0BA
:100E900026A737A7118290E89283848781E1808317
:100EA000789461E081E00E94910261E087E00E9415
:100EB000910261E086E00E94910261E08FE00E9471
:100EC0003A0261E08FE00E94910261E08DE00E94B1
:100ED0003A0261E08DE00E94910261E08EE00E94A2
:100EE000910260E085E00E94910260E084E00E944F
:100EF000910262E08BE00E94910262E082E00E9437
:100F0000910262E083E00E94910261E08AE00E9427
:100F1000910261E08AE00E943A0240E060E080E0F5
:100F20000E9405030E94FA0440E060E08FEF0E94F7
:100F3000050364E670E080E090E00E94B10040E0CC
:100F40006FEF80E00E94050364E670E080E090E0CF
:100F50000E94B1004FEF60E080E00E94050364E66C
:100F600070E080E090E00E94B100E4E3F8E388E5FF
:100F700098E32FEF21938E179F07E1F710923538F2
:100F80001092343883E08093463890E89093443848
:100F9000109245389093493810924A389AEC9093C1
:100FA000813896E0909382382091AF3821FD16C0A9
:100FB00022FD14C02091010224FF0DC1909306046C
:100FC0008091AF3884608093AF38E091AD38F09174
:100FD000AE388AE48487168681EE818784EC91E0BE
:100FE0008093B8389093B93883E291E08093B63813
:100FF0009093B738E0910438F0910538309769F054
:101000008BE795E0828393839FB7F8948091510496
:10101000887F8360809351049FBF1092470181E5D0
:101020008093500181E08093520180915000897F2C
:1010300080935000809150008160809350000E9406
:101040008A0514E009E0FF24F394CAE0D0E0EE241E
:10105000E39480917638882391F04FEF6FEF8FEF14
:101060000E94050362E370E080E090E00E94B1001E
:1010700040E060E080E00E940503109276388091A5
:10108000933880FFAEC0A0909138B0909238BA24C7
:10109000AB24BA240E94FA048091583890915938B0
:1010A0004F97A816B90608F099C01092933886E0B9
:1010B00090E00E94A9018091913887FF10C00E94A2
:1010C000FA048091583890915938809392388091E1
:1010D000583890915938892F8F7780939138809123
:1010E000963887FF2FC02AE030E090E080E0409102
:1010F0000006442309F47AC000930606F09208061D
:1011000040910B0640FFFCCF409110065091110614
:10111000840F951F2150310951F7BE010E943E0AEC
:1011200060935A3870935B3880915A3890915B384D
:101130008093973880915A3890915B38892F8F77B8
:10114000809396388091863880FF0AC088E00E949C
:1011500092010E94EB04809186388E7F80938638BE
:101160008091863881FF09C061E08EE00E943A02DA
:10117000809186388D7F8093863880918738882348
:1011800021F0109287380E948A0582E00E94220294
:10119000813009F442C00E9454014B015C0182E09D
:1011A0000E942202811129C00E9454016819790904
:1011B0008A099B09613D774081059105D0F040E0A7
:1011C00060E080E00E94050361E070E080E090E074
:1011D0000E94B100E4CF80932604F2CE109393389E
:1011E0006ACF81FF68CF1092933865CF49EF52E8FC
:1011F0008FCF4FEF6FEF8FEFE5CF0E941D030E945F
:101200005401681979098A099B0960935C387093C5
:101210005D3880935E3890935F3880915C38909110
:101220005D38A0915E38B0915F380A97A105B1058D
:1012300008F077C010925C3810925D3810925E38DA
:1012400010925F380E94FA0480918338853008F04C
:10125000ACC090E00E94CF048091743890917538B2
:10126000892B09F0A7C00E945401809068389090A3
:101270006938A0906A38B0906B38681979098A0982
:101280009B09613E73498440910508F493C084E052
:1012900090E00E94CF0482E090E00E94A90180913A
:1012A00085388823D1F00E94540180906C3890904A
:1012B0006D38A0906E38B0906F38681979098A0936
:1012C0009B09693873418105910508F4D5C089E00F
:1012D00090E00E94A9011092853861E08AE00E94A6
:1012E0003A0280917438909175380197B1F40E9458
:1012F00054018090703890907138A0907238B090FE
:101300007338681979098A099B0961317742810527
:10131000910518F081E00E9492010E941D038895BA
:1013200098CE80915C3890915D38A0915E38B091F4
:101330005F38803D9740A105B105E8F480910839F8
:1013400081110FC00E9454016093FE387093FF38E2
:101350008093003990930139E09208390E941D036F
:1013600069CF80917438909175380197B9F784E00E
:101370000E949201F3CF8091743890917538039751
:1013800019F40E948A0556CF60E08DE00E943A026F
:101390000E94EB0464E670E080E090E00E94B100FF
:1013A00061E08DE00E943A0245CF84E090E00E9427
:1013B000A90152CF8091743890917538029749F401
:1013C00083E00E942202811104C00E94E304109273
:1013D00008398091743890917538019779F483E0D9
:1013E0000E94220281110AC00E94E30468EE73E0A9
:1013F00080E090E00E94B1000E948A0580917438DC
:1014000090917538029711F18091743890917538E8
:10141000039709F044CF0E94540180906038909067
:101420006138A0906238B0906338681979098A09E8
:101430009B0961307C458642954008F430CF8AE0B4
:1014400090E00E94A9010E948A0529CF0E945401C0
:101450008090643890906538A0906638B090673876
:10146000681979098A099B0961367A4E81059105C7
:1014700058F20E94E30413CF60E030CF97FB072EB1
:1014800016F4009407D077FD09D00E947F0A07FC6C
:1014900005D03EF4909581959F4F08957095619584
:1014A0007F4F0895A1E21A2EAA1BBB1BFD010DC0A0
:1014B000AA1FBB1FEE1FFF1FA217B307E407F50704
:1014C00020F0A21BB30BE40BF50B661F771F881FE0
:1014D000991F1A9469F760957095809590959B0176
:1014E000AC01BD01CF0108950E94990AA59F900DFE
:1014F000B49F900DA49F800D911D11240895AA1BE7
:10150000BB1B51E107C0AA1FBB1FA617B70710F0EE
:10151000A61BB70B881F991F5A95A9F78095909520
:10152000BC01CD010895EE0FFF1F0590F491E02D51
:101530000994A29FB001B39FC001A39F700D811DAC
:101540001124911DB29F700D811D1124911D0895CC
:101550005058BB27AA270E94C00A0C940A0C0E946C
:10156000FC0B38F00E94030C20F039F49F3F19F473
:1015700026F40C94F90B0EF4E095E7FB0C94F30BB6
:10158000E92F0E941B0C58F3BA17620773078407F0
:10159000950720F079F4A6F50C943D0C0EF4E09537
:1015A0000B2EBA2FA02D0B01B90190010C01CA011D
:1015B000A0011124FF27591B99F0593F50F4503EC8
:1015C00068F11A16F040A22F232F342F4427585FBA
:1015D000F3CF469537952795A795F0405395C9F7D2
:1015E0007EF41F16BA0B620B730B840BBAF091508A
:1015F000A1F0FF0FBB1F661F771F881FC2F70EC029
:10160000BA0F621F731F841F48F4879577956795FB
:10161000B795F7959E3F08F0B0CF9395880F08F0E7
:101620009927EE0F9795879508950E94290B0C94A2
:101630000A0C0E94030C58F00E94FC0B40F029F4A5
:101640005F3F29F00C94F30B51110C943E0C0C9459
:10165000F90B0E941B0C68F39923B1F3552391F306
:10166000951B550BBB27AA2762177307840738F011
:101670009F5F5F4F220F331F441FAA1FA9F335D06E
:101680000E2E3AF0E0E832D091505040E695001C22
:10169000CAF72BD0FE2F29D0660F771F881FBB1FDC
:1016A000261737074807AB07B0E809F0BB0B802DBA
:1016B000BF01FF2793585F4F3AF09E3F510578F0E6
:1016C0000C94F30B0C943E0C5F3FE4F3983ED4F380
:1016D000869577956795B795F7959F5FC9F7880FBA
:1016E000911D9695879597F90895E1E0660F771F0C
:1016F000881FBB1F621773078407BA0720F0621B9D
:10170000730B840BBA0BEE1F88F7E09508950E94C7
:10171000230C88F09F5798F0B92F9927B751B0F054
:10172000E1F0660F771F881F991F1AF0BA95C9F765
:1017300014C0B13091F00E943D0CB1E008950C94BA
:101740003D0C672F782F8827B85F39F0B93FCCF36D
:10175000869577956795B395D9F73EF490958095E2
:10176000709561957F4F8F4F9F4F0895E89409C002
:1017700097FB3EF490958095709561957F4F8F4FC4
:101780009F4F9923A9F0F92F96E9BB279395F695DA
:10179000879577956795B795F111F8CFFAF4BB0F58
:1017A00011F460FF1BC06F5F7F4F8F4F9F4F16C0BC
:1017B000882311F096E911C0772321F09EE8872F46
:1017C000762F05C0662371F096E8862F70E060E002
:1017D0002AF09A95660F771F881FDAF7880F96957B
:1017E000879597F9089597F99F6780E870E060E022
:1017F00008959FEF80EC089500240A9416161706AA
:1018000018060906089500240A94121613061406F1
:1018100005060895092E0394000C11F4882352F054
:10182000BB0F40F4BF2B11F460FF04C06F5F7F4F0C
:101830008F4F9F4F089557FD9058440F551F59F0F3
:101840005F3F71F04795880F97FB991F61F09F3FAD
:1018500079F087950895121613061406551FF2CFD6
:101860004695F1DF08C0161617061806991FF1CF26
:1018700086957105610508940895E894BB2766274D
:101880007727CB0197F908950E94570C0C940A0C06
:101890000E94FC0B38F00E94030C20F0952311F0FD
:1018A0000C94F30B0C94F90B11240C943E0C0E9435
:1018B0001B0C70F3959FC1F3950F50E0551F629F6D
:1018C000F001729FBB27F00DB11D639FAA27F00D99
:1018D000B11DAA1F649F6627B00DA11D661F829FC0
:1018E0002227B00DA11D621F739FB00DA11D621FA5
:1018F000839FA00D611D221F749F3327A00D611DC2
:10190000231F849F600D211D822F762F6A2F1124A3
:101910009F5750409AF0F1F088234AF0EE0FFF1FD6
:10192000BB1F661F771F881F91505040A9F79E3F2D
:10193000510580F00C94F30B0C943E0C5F3FE4F3E4
:10194000983ED4F3869577956795B795F795E79583
:101950009F5FC1F7FE2B880F911D9695879597F98C
:061960000895F894FFCF8A
:1019660010108000000000101010000000000000A1
:101976001000040506070504030201000001020326
:101986000102030000000000010101010101020241
:10199600020200000000102040802010080402010E
:1019A60001020408020408010000000011012D01D3
:0A19B6005101DD000B01F900E5000E
:0619C0001A380E3806384B
:00000001FF
