:100000000C943F000C9473000C9473000C94210723
:100010000C941D070C9419070C9473000C94100891
:100020000C9473000C9473000C9473000C94730084
:100030000C9473000C9473000C9473000C94DF0602
:100040000C9473000C9473000C9473000C94730064
:100050000C9473000C9473000C9473000C94730054
:100060000C946C070C9473000C9473000C94730044
:100070000C9473000C9473000C94730038081124D2
:100080001FBECFEFCDBFDFE3DEBF80914000809386
:100090004000811105C098ED21E094BF20934100FC
:1000A0008CBB18E3A0E0B8E3E4EEFDE102C00590EC
:1000B0000D92A630B107D9F729E3A6E0B8E301C055
:1000C0001D92AA32B207E1F710E0CFE3D0E004C0FE
:1000D0002197FE010E94A50CCE33D107C9F70E94DB
:1000E00063080C94C30E0C9400009FB7F89488E04A
:1000F0008093840A80918E0A81FFFCCF80918D0AC3
:10010000E091A20AF091A30A2091893830918A38AF
:1001100040918B3850918C389FBF80FF07C0E730EB
:10012000F10520F42F5F3F4F4F4F5F4FBF01769592
:100130006795CF01860F911DE62FE695E695762F00
:1001400072957F70E71BFF0B67FD3196E80FF91F73
:10015000A0E3B3E00E94860C6E0F7F1F811D911DEE
:100160000895CF92DF92EF92FF92CF93DF936B01CE
:100170007C010E947500EB010E9475006C1B7D0BD9
:10018000683E7340A0F0C114D104E104F10439F4D5
:10019000DF91CF91FF90EF90DF90CF90089581E0B5
:1001A000C81AD108E108F108C851DC4FE5CFC114E5
:1001B000D104E104F10401F7EBCFDC011896ED91D5
:1001C000FC9184818860848308959C012B5C3F4F5F
:1001D000DC011F96EC911F971E968C91E81730F466
:1001E000E20FF32FF11D808190E008958FEF9FEFD4
:1001F0000895FC01DC01D59697858685981740F413
:10020000A90FB11D2C919F5F9787822F90E00895D1
:100210008FEF9FEF0895FC0186859785891B990BC9
:100220000895FC01A585A03258F4A80FB92FB11D7F
:1002300055966C9385858F5F858781E090E0089562
:1002400090E080E00895BF92CF92DF92EF92FF920C
:100250000F931F93CF93DF937C016A01B62EEB01BE
:100260000C2F0B1910E00C151D0530F46991C70116
:100270000E941101892BA1F7C801DF91CF911F9135
:100280000F91FF90EF90DF90CF90BF90089590E096
:1002900080E00895F89420912F38309130384091C3
:1002A0003138509132387894AFE3B0E00E94860C38
:1002B0000895CF92DF92EF92FF92CF93C82F6A01F9
:1002C0007B010E944A016C197D098E099F0920ED6E
:1002D00037E040E050E00E94640C0E94C80D6B01C2
:1002E0007C01AC019B010E94560EA70196010E9461
:1002F000560E28E23BE64EEE5FE40E94270D6B01AE
:100300007C018C2F8150990BBC01072E000C880BAF
:10031000990B0E94CA0D9B01AC01C701B6010E9456
:10032000560E20E030E040E85FE30E94BB0C0E94E4
:10033000990D862FCF91FF90EF90DF90CF90089589
:1003400090911F3991112AC08093213980E49CE952
:10035000A0E0B0E08093263990932739A093283904
:10036000B09329398FEF8093193910921A3910926E
:100370001B3910921C3910921D3910921E3981E0E0
:1003800080931F39109220390E944A0160932239CC
:100390007093233980932439909325390895CF930E
:1003A000C82F8091913881110AC00E944A01609340
:1003B0007738709378388093793890937A38809131
:1003C00091388C2B80939138CF9108953091963845
:1003D000E82FE695E695E695E05EF0E0E357F74C0A
:1003E0002081682F677041E050E001C0440F6A959A
:1003F000EAF7242B208330FD0E94A00182E00C94B8
:10040000CF01FC01680F791F8FE09DE121919227B8
:1004100028E0AC01880F991F57FF04C031E2832701
:1004200030E193272150A9F7E617F70779F70895E8
:10043000CF92DF92EF92FF920F931F93CF93DF93B0
:10044000CDB7DEB72A97CDBFDEBFCE0101967C01C6
:1004500010E000E06C019091BF388091C03898178F
:1004600069F00A301105D1F081EB98E30E94F900A0
:100470000F5F1F4FF70181937F01EDCF011511052C
:1004800009F08BC09091BF388091C038981709F45B
:100490008BC081EB98E30E94F900F4CF9091BF38B4
:1004A0008091C038981709F47FC081EB98E30E94CF
:1004B000F900F4CFB80162507109F601E60FF71F99
:1004C000E080FE01E00FF11F8081FE2CE82EC601C6
:1004D0000E940102E816F90609F066C0F980F2E010
:1004E000FF120AC00E944A0160937B3870937C38E7
:1004F00080937D3890937E38F0922E380430110529
:1005000009F052C080912E38823121F080912E382E
:10051000813111F410929D3880912E389A818A3061
:1005200011F4913001F1E0912E38F0E0E357F74CEF
:100530003081E0912E38A0912E38B0E0AC5CB74C01
:100540002C9129232917C1F085E090E02A96CDBF90
:10055000DEBFDF91CF911F910F91FF90EF90DF9061
:10056000CF900C94E6011092AD381092AE381092F4
:10057000AF381092B03818C0F0E0EC5CF74C8081D6
:1005800080958323892BE0912E38F0E0E357F74CD8
:10059000808381E080932D3807C00330110524F05B
:1005A000053011050CF486CF2A96CDBFDEBFDF9152
:1005B000CF911F910F91FF90EF90DF90CF90089512
:1005C000CF93DF9300D000D0CDB7DEB7E0912E38C7
:1005D000F0E0E357F74C80818C8361E070E0CE015E
:1005E00004960E940102E0912E38F0E0E357F74CA8
:1005F000208129839A838B8343E050E0BE016F5FA3
:100600007F4F81EB98E30E9423012496CDBFDEBF8C
:10061000DF91CF91089590E0FC01E054F2462081F3
:100620002F3F79F082559246DC01EC91B0E2EB9FCE
:10063000F0011124FC5F9085922381E019F480E0A1
:1006400008958FEF0895CF93DF93282F30E0E901CD
:10065000C054D24688818F3F71F1A901425552465C
:10066000DA01EC91B0E2EB9FF0011124FC5F611123
:1006700025C0868390818923A1F4C90184569246BE
:10068000DC019C913097E1F09830D0F47096E90F3E
:10069000F11D9FB7F8948081611115C0877F808319
:1006A0009FBF26573246F9018081882321F080318F
:1006B00061F08038E1F0DF91CF9108958583DACF42
:1006C000F0E0E0E0E6CF8860EACF8881DA019C9133
:1006D000913059F4853010F0880F82959091010A7D
:1006E000809589238093010AE6CF880FF7CF109277
:1006F000A006E1CF1092813860E08EE00C942303D5
:100700001092923880917F3890918038039711F43D
:100710000C947A03089590E0FC01E054F2462081A5
:100720002F3FB9F0FC01E255F246E08130E2E39F51
:10073000F0011124FC5F60FF0DC0218384569246B6
:10074000DC018C91E80FF11D808961FF05C0886094
:10075000808B08952283F2CF877FFACFCF93282F03
:1007600030E0F901E054F24690819F3F09F445C022
:10077000C82FF901E657F2468081803131F0803888
:10078000A1F16038710524F00FC06115710549F4BD
:1007900060E08C2F0E94230361E08C2FCF910C949A
:1007A0008B036F3F710511F461E0F3CF953048F092
:1007B000990F22553246F9018081E1E0813011F430
:1007C0009295E0E0892F847459F0EC5FF0E0E85DE9
:1007D000F54F60838091010A982B9093010ADCCF3A
:1007E000892F827299F3EE5FF1CF6093A106809119
:1007F000A00681648093A006CFCFCF910895CF93B8
:10080000DF93C62FD42F8095682F70E081E00E947F
:10081000AE03C0956C2F70E087E00E94AE03DD232D
:1008200059F0D095D093280A8091010A8160809375
:10083000010ADF91CF9108958091010A8E7F809304
:10084000010A61E086E0DF91CF910C9423030F93BE
:100850001F938B019C019927832F722F612F402FAB
:10086000822F1F910F910C94FF03CF92DF92EF9292
:10087000FF92CF93C0919338E0909038F12CC090C4
:100880007F38D09080388091063990910739C8160A
:10089000D90689F00E944A0160930A3970930B3996
:1008A00080930C3990930D39C0920639D092073954
:1008B00081E0809314398091083990910939E816C4
:1008C000F90689F00E944A0160930A3970930B3946
:1008D00080930C3990930D39E0920839F0920939E0
:1008E00081E08093143980911F39882309F48CC0EA
:1008F0000E944A01C0900E39D0900F39E090103913
:10090000F09011396C197D098E099F09C090153935
:10091000D0901639E0901739F0901839C616D706DE
:10092000E806F90660F50E944A0160930E3970935B
:100930000F39809310399093113984EF91E0A0E042
:10094000B0E08093153990931639A0931739B0937E
:1009500018398091123991E08927809312398823C0
:1009600009F44BC0809120398F5F809320394091EA
:100970001A3960911B39809119390E94FF039091B7
:10098000203980912139891790F580ED97E0A0E01A
:10099000B0E08093153990931639A0931739B0932E
:1009A000183940E060E080E00E94FF031092203997
:1009B000109212390E944A01C0902239D0902339F6
:1009C000E0902439F09025396C197D098E099F0932
:1009D000C0902639D0902739E0902839F0902939F5
:1009E000C616D706E806F90610F410921F39CF9103
:1009F000FF90EF90DF90CF90089540911D39609166
:100A00001E3980911C39B9CF0E944A01C0900A3921
:100A1000D0900B39E0900C39F0900D396C197D09AC
:100A20008E099F09613E73498440910510F0109230
:100A300014398091143981110AC060E070E0CB0153
:100A4000CF91FF90EF90DF90CF900C94270480918E
:100A50000639909107398230910561F17CF4009755
:100A600009F4F2C0019709F48EC084E090E0CF91C0
:100A7000FF90EF90DF90CF900C94A001843091050F
:100A800009F454C00CF47AC0059779F70E944A0122
:100A9000C0900A39D0900B39E0900C39F0900D39A4
:100AA0006C197D098E099F0960347F41810591058C
:100AB00008F0CAC00E944A016C197D098E099F097D
:100AC00020EDC22E27E0D22EE12CF12CA7019601B9
:100AD0000E94640CA7019601261B370B480B590B8B
:100AE000CA01B9010E94C80D6B017C01AC019B01D8
:100AF0000E94560EA70196010E94560E28E23BE680
:100B00004EEE5FE40E94270D20E030E04BE553E419
:100B10000E94560E20E030E040E85FE30E94BB0CEC
:100B20000E94990D862F40E060E06EC00E944A014D
:100B3000C0900E39D0900F39E0901039F0901139F3
:100B40006C197D098E099F09653F714081059105EA
:100B500080F08091123991E08927809312390E94A8
:100B60004A0160930E3970930F3980931039909336
:100B7000113980911239882309F45FCF60E070E069
:100B80008FEF90E05DCFC0FF0EC00E944A0128EEBB
:100B900033E040E050E00E94640C683C7105810540
:100BA000910508F44ACF8091083990910939823033
:100BB0009105B1F154F4009771F1019709F055CF07
:100BC00060E07FEF80E090E03BCF8330910569F1FA
:100BD000049709F04ACF40910A3950910B3960913E
:100BE0000C3970910D3983E80E945901C82F40914A
:100BF0000A3950910B3960910C3970910D398FEF92
:100C00000E94590140E06C2FCF91FF90EF90DF9050
:100C1000CF900C94FF036FEF70E080E090E010CF76
:100C200060E073E88FEF90E00BCF40910A3950916C
:100C30000B3960910C3970910D398CED0E9459017E
:100C400040E0682F80E0E0CFB701A6018CED0E9464
:100C50005901482F60E0F6CFCF92DF92EF92FF92DA
:100C6000CF93DF9320917F38309180382817390750
:100C700069F1EC0180917F3890918038029769F199
:100C8000C0937F38D09380380E94350480917F389C
:100C900090918038019751F40E944A016093733813
:100CA00070937438809375389093763880917F383C
:100CB00090918038029751F40E944A0160936B38FA
:100CC00070936C3880936D3890936E3880917F3834
:100CD0009091803880938F3819C0C130D10581F64A
:100CE000C0906B38D0906C38E0906D38F0906E38D2
:100CF0000E944A01C61AD70AE80AF90A81E1C81611
:100D000087E2D806E104F10408F4BACFDF91CF916D
:100D1000FF90EF90DF90CF9008950E944A0160937A
:100D20006738709368388093693890936A3860E0C8
:100D30008FE00E94230383E090E00E942C06EDE800
:100D4000F8E3178214821382089561E08FE00E9415
:100D500023030E947A0390E080E00E942C060E9408
:100D60004A0160936F387093703880937138909314
:100D7000723808954AE050E030E020E08C5F91E066
:100D8000609100066623C1F08093060690930806E2
:100D900060910B0660FFFCCF609110067091110608
:100DA000260F371F4150510959F7C9016AE070E019
:100DB0000E94500CCB01089569EF72E8F1CFEF93D8
:100DC000FF93E3E8F8E38F938FB78F939F937F931D
:100DD00070E080819181805D9C4F80839183885EEB
:100DE000934018F0808391837F5F9281970F928365
:100DF00080E09381981F93839481981F94839581B9
:100E0000981F958396819F5F968397819F4F9783C5
:100E100090859F4F908791859F4F918781E0809328
:100E20008D0A7F919F918F918FBF8F91FF91EF914D
:100E300018950F9304E00C9425070F9302E00C948F
:100E400025070F9300E00C9425070F920FB60F9221
:100E50001F921124FF921F932F933F934F935F9301
:100E60006F937F938F939F93AF93BF93CF93DF93B2
:100E7000EF93FF93A0E0B8E3A00FB11DCD91DC91FB
:100E8000000F0D5FA02FB0E0FC90109761F01F2DB8
:100E9000169518F041F02296FBCFE991F991309721
:100EA000B9F30995F5CFA02FB0E0FC92FF91EF9137
:100EB000DF91CF91BF91AF919F918F917F916F9172
:100EC0005F914F913F912F911F91FF901F900F9035
:100ED0000FBE0F900F9118951F920F920FB60F92A1
:100EE00011241F932F933F934F935F936F937F939F
:100EF0008F939F93AF93BF93CF93DF93EF93FF9322
:100F0000C9EBD8E3E881F981838586FF56C080FF6D
:100F100041C0158581FF38C08E81882359F08091AA
:100F2000333880935000EB85FC85309719F08E8123
:100F300090E009951C831D821886E985FA85309713
:100F400009F009958D81882319F183E09091500073
:100F500090933338917090935000E881F9818287A3
:100F6000FF91EF91DF91CF91BF91AF919F918F91C1
:100F70007F916F915F914F913F912F911F910F90B2
:100F80000FBE0F901F9018951C831E821F82DDCF0D
:100F900086E0DCCF8091333880935000EB85FC8570
:100FA000309729F08E81882311F090E009951E82F8
:100FB0001D821F82188682E0D0CF87FF2FC081FF5D
:100FC0001EC0887139F08A8183FF04C01D82877F2B
:100FD0008A83F1CF8B818F5F8B838A8188608A833C
:100FE000A8858D81A81738F7AC0FBD2FB11D1D96B0
:100FF0008C91858788858F5F888783E0AECF8585D4
:10100000EE81E03258F4EC0FFD2FF11D85A78E81A3
:101010008F5F8E83803288F386E09FCF80E09DCF04
:101020001F920F920FB60F9211248F939F93AF933D
:10103000BF9381E08093530180912F389091303895
:10104000A0913138B09132380196A11DB11D809325
:101050002F3890933038A0933138B0933238BF9105
:10106000AF919F918F910F900FBE0F901F90189589
:10107000E1EBF8E31282138288EE93E0A0E0B0E0A7
:1010800084839583A683B78386ED9DE980839183CE
:1010900080E198E080879187E6E0F9E31482158289
:1010A000168217821086118612861386148615867C
:1010B00081E08687138A148A158A168A178A108E09
:1010C000118E128E089588ED90E084BF9093610098
:1010D000E0E0F6E083E582838DE0858380E2838330
:1010E00081E08083109202028093030A9EEF909326
:1010F000260A9093270A9BE09093000AE0E8FAE022
:101100002DEF31E026A737A7118290E892838487DC
:1011100081E1808378948091020281608093020251
:1011200061E081E00E948B0361E087E00E948B0315
:1011300061E086E00E948B0361E08FE00E94230360
:1011400061E08FE00E948B0361E08DE00E94230349
:1011500061E08DE00E948B0361E08EE00E948B03D2
:1011600060E085E00E948B0360E084E00E948B03D6
:1011700060E080E00E948B0362E08BE00E948B03C2
:1011800062E082E00E948B0362E083E00E948B03B6
:1011900061E08AE00E948B0360E08AE00E94230302
:1011A00040E060E080E00E94FF0340E060E08FEFFD
:1011B0000E94FF0364E670E080E090E00E94B100CE
:1011C00040E06FEF80E00E94FF0364E670E080E0A3
:1011D00090E00E94B1004FEF60E080E00E94FF03CA
:1011E00064E670E080E090E00E94B10040E060E0E2
:1011F00080E00E94FF03E4E3F8E388E598E32FEF43
:1012000021938E179F07E1F71092353810923C38E2
:101210001092343893E09093443880E880934738B4
:10122000109248388093493810924A3880934B384E
:1012300010924C388AEC80938D388CE080938E38F5
:1012400086E0809395382091BB3821FD16C022FDA1
:1012500014C02091010224FF17C1809306048091DD
:10126000BB3884608093BB38E091B938F091BA38CC
:101270008AE48487168681EE818788E192E08093F4
:10128000C4389093C53880EE92E08093C238909332
:10129000C338E0910438F0910538309769F080E860
:1012A00093E0828393839FB7F89480915104887F61
:1012B0008360809351049FBF1092470181E5809322
:1012C000500181E08093520180915000897F80938A
:1012D0005000809150008160809350000E94A506CC
:1012E000CFEFD3E080918238882391F04FEF6FEFFA
:1012F0008FEF0E94FF0364E670E080E090E00E94C0
:10130000B10040E060E080E00E94FF03109282386C
:101310008091A03887FF2AC084E090E00E94BA063E
:1013200080935A3890935B3880915A3890915B380B
:1013300060E08535914008F4AAC080E00E94230354
:1013400061E080E00E948B03C0935838D0935938F5
:101350008091583890915938892F8F778093A03891
:1013600080915838909159388093A1388091A23853
:1013700087FF16C084E090E00E94BA0680935A3836
:1013800090935B3880915A3890915B38892F8F7792
:101390008093A23880915A3890915B388093A3381B
:1013A0008091A43887FF16C085E090E00E94BA06BD
:1013B00080935C3890935D3880915C3890915D3873
:1013C000892F8F778093A43880915C3890915D3815
:1013D0008093A5388091923880FF08C080917F3833
:1013E00090918038039711F40E94A506809192385D
:1013F00081FF07C080917F3890918038019709F074
:1014000058C00E947A0382E00E940B03813009F4E5
:101410008BC00E944A011092633810926438109277
:1014200065381092663882E00E940B0381114BC030
:101430008091633890916438A0916538B091663896
:10144000813B9440A105B105C8F160E070E0CB019B
:101450000E94270461E070E080E090E00E94B1000B
:101460008091633890916438A0916538B091663866
:101470000196A11DB11D8093633890936438A093A9
:101480006538B0936638CFCF90932604E8CE80E0DD
:101490000E948B0361E070E080E090E00E94B10068
:1014A00090E080E00E94BA068093583890935938B3
:1014B0004FCF61E08EE00E942303A5CF6FEF7FEF57
:1014C0008FEF90E0C5CF8091633890916438A09100
:1014D0006538B09166380697A105B10518F10E94EC
:1014E0004A0100915E3810915F3820916038309148
:1014F0006138601B710B820B930B643F7140810557
:10150000910508F0E0C0809162388F5F8093623867
:101510000E944A0160935E3870935F388093603810
:10152000909361380E9435048091633890916438BB
:10153000A0916538B09166380597A105B10508F00E
:10154000C5C01092633810926438109265381092BA
:10155000663880918F38863008F030C180918F389E
:1015600090E00E942C0680917F3890918038892BE2
:1015700009F029C10E944A0100916F38109170381A
:101580002091713830917238601B710B820B930B74
:10159000613E73498440910508F415C10E948D068F
:1015A00068EE73E080E090E00E94B1000E94A50622
:1015B00082E090E00E94E60180919138882391F1C9
:1015C0000E944A010091773810917838209179383B
:1015D00030917A38601B710B820B930B6938734121
:1015E00081059105F8F080917F38909180380197BE
:1015F000C9F40E944A010091733810917438209107
:10160000753830917638601B710B820B930B6938FB
:1016100073418105910530F089E090E00E94E60178
:101620001092913880919138811107C080917F3854
:101630009091803861E0019709F060E08AE00E94B3
:10164000230380917F38909180380197B1F40E94F4
:101650004A0100917B3810917C3820917D3830917F
:101660007E38601B710B820B930B613A7648814088
:10167000910518F081E00E94CF0180918138882384
:1016800051F080918F38833031F461E08EE00E9418
:1016900023031092813880911439882309F4FBC008
:1016A00080915000897F809350000E943504809182
:1016B00050008160809350008895809150008E7F0B
:1016C000809350000FCE1092623822CF8091633801
:1016D00090916438A0916538B0916638803B944011
:1016E000A105B105A0F580911439811126C00E9491
:1016F0004A0160930A3970930B3980930C399093A7
:101700000D3981E0809314390E943504809162384C
:101710008B3008F416CF109262386FEF7FEF8FEFA7
:1017200090E00E94270460ED77E080E090E00E9466
:10173000B10080E10E94CF0104CF80917F38909169
:101740008038019709F784E00E94CF01DDCF8091B6
:101750007F3890918038039729F40E94A506109253
:101760009238D4CF61E08EE00E94230360E08DE0E8
:101770000E94230382E090E00E942C06109294388D
:101780000E944A0160936B3870936C3880936D3877
:1017900090936E3864E670E080E090E00E94B100C3
:1017A00061E08DE00E94230368EC70E080E090E04F
:1017B0000E94B10082E080939238A8CF84E090E04C
:1017C0000E94E601D0CE80917F38909180380297B8
:1017D00049F483E00E940B03811104C00E948D062E
:1017E0001092143980917F3890918038019731F0B0
:1017F00080917F3890918038059779F483E00E943A
:101800000B0381110AC00E948D0668EE73E080E030
:1018100090E00E94B1000E94A50680917F389091CF
:101820008038029711F180917F389091803803972A
:1018300009F0C2CE0E944A010091673810916838C1
:101840002091693830916A38601B710B820B930BC1
:1018500061307C458642954008F4AECE8AE090E047
:101860000E94E6010E94A506A7CE0E944A010091AF
:101870006B3810916C3820916D3830916E38601B48
:10188000710B820B930B61367A4E8105910558F2EC
:101890000E948D0691CE80915000897F846003CF95
:1018A00097FB072E16F4009407D077FD09D00E940D
:1018B000910C07FC05D03EF4909581959F4F0895BB
:1018C000709561957F4F0895A1E21A2EAA1BBB1B4C
:1018D000FD010DC0AA1FBB1FEE1FFF1FA217B307FC
:1018E000E407F50720F0A21BB30BE40BF50B661F12
:1018F000771F881F991F1A9469F7609570958095D6
:1019000090959B01AC01BD01CF0108950E94AB0CE5
:10191000A59F900DB49F900DA49F800D911D112443
:101920000895AA1BBB1B51E107C0AA1FBB1FA61726
:10193000B70710F0A61BB70B881F991F5A95A9F778
:1019400080959095BC01CD010895EE0FFF1F059085
:10195000F491E02D0994A29FB001B39FC001A39F11
:10196000700D811D1124911DB29F700D811D1124D8
:10197000911D08955058BB27AA270E94D20C0C94A1
:101980001C0E0E940E0E38F00E94150E20F039F445
:101990009F3F19F426F40C940B0E0EF4E095E7FB30
:1019A0000C94050EE92F0E942D0E58F3BA1762070A
:1019B00073078407950720F079F4A6F50C944F0E71
:1019C0000EF4E0950B2EBA2FA02D0B01B90190015A
:1019D0000C01CA01A0011124FF27591B99F0593F9E
:1019E00050F4503E68F11A16F040A22F232F342FE6
:1019F0004427585FF3CF469537952795A795F04034
:101A00005395C9F77EF41F16BA0B620B730B840B48
:101A1000BAF09150A1F0FF0FBB1F661F771F881F00
:101A2000C2F70EC0BA0F621F731F841F48F4879558
:101A300077956795B795F7959E3F08F0B0CF93954A
:101A4000880F08F09927EE0F9795879508950E94C3
:101A50003B0D0C941C0E0E94150E58F00E940E0EA9
:101A600040F029F45F3F29F00C94050E51110C94BD
:101A7000500E0C940B0E0E942D0E68F39923B1F3B7
:101A8000552391F3951B550BBB27AA2762177307A4
:101A9000840738F09F5F5F4F220F331F441FAA1F38
:101AA000A9F335D00E2E3AF0E0E832D091505040F4
:101AB000E695001CCAF72BD0FE2F29D0660F771FA2
:101AC000881FBB1F261737074807AB07B0E809F088
:101AD000BB0B802DBF01FF2793585F4F3AF09E3F0D
:101AE000510578F00C94050E0C94500E5F3FE4F312
:101AF000983ED4F3869577956795B795F7959F5F50
:101B0000C9F7880F911D9695879597F90895E1E09B
:101B1000660F771F881FBB1F621773078407BA07FA
:101B200020F0621B730B840BBA0BEE1F88F7E09555
:101B300008950E94350E88F09F5798F0B92F992785
:101B4000B751B0F0E1F0660F771F881F991F1AF0A8
:101B5000BA95C9F714C0B13091F00E944F0EB1E0B0
:101B600008950C944F0E672F782F8827B85F39F0AF
:101B7000B93FCCF3869577956795B395D9F73EF441
:101B800090958095709561957F4F8F4F9F4F0895E9
:101B9000E89409C097FB3EF4909580957095619507
:101BA0007F4F8F4F9F4F9923A9F0F92F96E9BB27BD
:101BB0009395F695879577956795B795F111F8CF39
:101BC000FAF4BB0F11F460FF1BC06F5F7F4F8F4FA4
:101BD0009F4F16C0882311F096E911C0772321F09A
:101BE0009EE8872F762F05C0662371F096E8862F32
:101BF00070E060E02AF09A95660F771F881FDAF789
:101C0000880F9695879597F9089597F99F6780E8CB
:101C100070E060E008959FEF80EC089500240A943E
:101C20001616170618060906089500240A941216B7
:101C30001306140605060895092E0394000C11F4EA
:101C4000882352F0BB0F40F4BF2B11F460FF04C097
:101C50006F5F7F4F8F4F9F4F089557FD9058440FF0
:101C6000551F59F05F3F71F04795880F97FB991FFB
:101C700061F09F3F79F087950895121613061406B8
:101C8000551FF2CF4695F1DF08C016161706180645
:101C9000991FF1CF86957105610508940895E89420
:101CA000BB2766277727CB0197F908950E94690E15
:101CB0000C941C0E0E940E0E38F00E94150E20F09F
:101CC000952311F00C94050E0C940B0E11240C941A
:101CD000500E0E942D0E70F3959FC1F3950F50E0AA
:101CE000551F629FF001729FBB27F00DB11D639FCE
:101CF000AA27F00DB11DAA1F649F6627B00DA11D74
:101D0000661F829F2227B00DA11D621F739FB00D19
:101D1000A11D621F839FA00D611D221F749F332789
:101D2000A00D611D231F849F600D211D822F762F22
:101D30006A2F11249F5750409AF0F1F088234AF0FF
:101D4000EE0FFF1FBB1F661F771F881F915050406B
:101D5000A9F79E3F510580F00C94050E0C94500E8F
:101D60005F3FE4F3983ED4F3869577956795B795F2
:101D7000F795E7959F5FC1F7FE2B880F911D96950C
:0A1D8000879597F90895F894FFCFB6
:101D8A001010800000000010101000000000000079
:101D9A0010000405060705040302010000010203FE
:101DAA000102030000000000010101010101020219
:101DBA0002020000000010204080201008040201E6
:101DCA0001020408020408010000000011012301B5
:0A1DDA004701DD000B01F900E500F0
:061DE4001D38113809381A
:00000001FF
