:100000000C943F000C9473000C9473000C94030642
:100010000C94FF050C94FB050C9473000C94F206F1
:100020000C9473000C9473000C9473000C94730084
:100030000C9473000C9473000C9473000C94C10521
:100040000C9473000C9473000C9473000C94730064
:100050000C9473000C9473000C9473000C94730054
:100060000C944E060C9473000C9473000C94730063
:100070000C9473000C9473000C9473001A071124F1
:100080001FBECFEFCDBFDFE3DEBF80914000809386
:100090004000811105C098ED21E094BF20934100FC
:1000A0008CBB18E3A0E0B8E3ECE0FBE102C00590F4
:1000B0000D92A630B107D9F729E3A6E0B8E301C055
:1000C0001D92A632B207E1F710E0CFE3D0E004C002
:1000D0002197FE010E94390BCE33D107C9F70E9448
:1000E00045070C94570D0C9400009FB7F89488E0D6
:1000F0008093840A80918E0A81FFFCCF80918D0AC3
:10010000E091A20AF091A30A2091853830918638B7
:1001100040918738509188389FBF80FF07C0E730F3
:10012000F10520F42F5F3F4F4F4F5F4FBF01769592
:100130006795CF01860F911DE62FE695E695762F00
:1001400072957F70E71BFF0B67FD3196E80FF91F73
:10015000A0E3B3E00E941A0B6E0F7F1F811D911D5B
:100160000895CF92DF92EF92FF92CF93DF936B01CE
:100170007C010E947500EB010E9475006C1B7D0BD9
:10018000683E7340A0F0C114D104E104F10439F4D5
:10019000DF91CF91FF90EF90DF90CF90089581E0B5
:1001A000C81AD108E108F108C851DC4FE5CFC114E5
:1001B000D104E104F10401F7EBCFDC011896ED91D5
:1001C000FC9184818860848308959C012B5C3F4F5F
:1001D000DC011F96EC911F971E968C91E81730F466
:1001E000E20FF32FF11D808190E008958FEF9FEFD4
:1001F0000895FC01DC01D59697858685981740F413
:10020000A90FB11D2C919F5F9787822F90E00895D1
:100210008FEF9FEF0895FC0186859785891B990BC9
:100220000895FC01A585A03258F4A80FB92FB11D7F
:1002300055966C9385858F5F858781E090E0089562
:1002400090E080E00895E0912E38F0E0E757F74C19
:1002500060818DEA98E30C941101BF92CF92DF92F6
:10026000EF92FF920F931F93CF93DF937C016A016C
:10027000B62EEB010C2F0B1910E00C151D0530F4F8
:100280006991C7010E941101892BA1F7C801DF9173
:10029000CF911F910F91FF90EF90DF90CF90BF9083
:1002A000089590E080E00895F89420912F383091DF
:1002B000303840913138509132387894AFE3B0E023
:1002C0000E941A0B0895CF92DF92EF92FF921F9334
:1002D000CF93DF93182FC62F69017A010E94540132
:1002E0006C197D098E099F0920ED37E040E050E050
:1002F0000E94F80A0E945C0C6B017C01D0E0AC010A
:100300009B010E94EA0CA70196010E94EA0C28E2D8
:100310003BE64EEE5FE40E94BB0B6B017C01812F3C
:1003200090E08C1B9D0BBC01990F880B990B0E94D0
:100330005E0C9B01AC01C701B6010E94EA0C6B0187
:100340007C01BE01DD0F880B990B0E945E0C9B01A6
:10035000AC01C701B6010E944F0B0E942D0C862FE5
:10036000DF91CF911F91FF90EF90DF90CF90089594
:1003700090911B3991112AC080931D3980E29EE42F
:10038000A0E0B0E08093223990932339A0932439E0
:10039000B09325398FEF809315391092163910924A
:1003A0001739109218391092193910921A3981E0C0
:1003B00080931B3910921C390E94540160931E399E
:1003C00070931F3980932039909321390895CF93EA
:1003D000DF93D82FC0918D38C1110AC00E945401FB
:1003E000609373387093743880937538909376382F
:1003F000CD2BC0938D38DF91CF910895E82FE695EE
:10040000E695E695E05EF0E0E757F74C482F477039
:1004100021E030E0B90102C0660F771F4A95E2F78C
:100420002081262B20830E94B80182E00C94E701F2
:100430000F931F93CF93DF9301E09091BB3880918E
:10044000BC38981709F44DC08DEA98E30E94F90072
:10045000EC01182F843290F09091BB388091BC3819
:100460009817C1F08DEA98E30E94F90087E090E0C8
:10047000DF91CF911F910F910C94FE01823051F4C6
:100480000E9454016093773870937838809379385C
:1004900090937A38C0932E389091BB388091BC38B5
:1004A000981759F21151123010F4109299388DEAC0
:1004B00098E30E94F900DD27FE01EC5CF74C908187
:1004C000C757D74C292F2095388123239823891784
:1004D00019F085E090E0CCCF822B888300932D38F3
:1004E000ACCFDF91CF911F910F91089590E0FC0167
:1004F000E851F54620812F3F79F08A529546DC017C
:10050000EC91B0E2EB9FF0011124FC5F9085922307
:1005100081E019F480E008958FEF0895CF93DF9381
:10052000282F30E0E901C851D54688818F3F71F10D
:10053000A9014A525546DA01EC91B0E2EB9FF00175
:100540001124FC5F611125C0868390818923A1F469
:10055000C9018C539546DC019C913097E1F09830AD
:10056000D0F47096E90FF11D9FB7F8948081611166
:1005700015C0877F80839FBF2E543546F901808147
:10058000882321F0803161F08038E1F0DF91CF9154
:1005900008958583DACFF0E0E0E0E6CF8860EACF27
:1005A0008881DA019C91913059F4853010F0880FE0
:1005B00082959091010A809589238093010AE6CF64
:1005C000880FF7CF1092A006E1CF10927D3860E03F
:1005D0008EE00C948E0210928E3880917B38909130
:1005E0007C38039711F40C94E502089590E0FC0127
:1005F000E851F54620812F3FB9F0FC01EA52F5465B
:10060000E08130E2E39FF0011124FC5F60FF0DC048
:1006100021838C539546DC018C91E80FF11D808974
:1006200061FF05C08860808B08952283F2CF877FA9
:10063000FACFCF93282F30E0F901E851F5469081A9
:100640009F3F09F445C0C82FF901EE54F54680815B
:10065000803131F08038A1F16038710524F00FC08D
:100660006115710549F460E08C2F0E948E0261E0F3
:100670008C2FCF910C94F6026F3F710511F461E05D
:10068000F3CF953048F0990F2A523546F901808111
:10069000E1E0813011F49295E0E0892F847459F003
:1006A000EC5FF0E0E85DF54F60838091010A982BE4
:1006B0009093010ADCCF892F827299F3EE5FF1CF1C
:1006C0006093A1068091A00681648093A006CFCF9D
:1006D000CF910895CF93DF93C62FD42F8095682FA5
:1006E00070E081E00E941903C0956C2F70E087E0F4
:1006F0000E941903DD2359F0D095D093280A8091E8
:10070000010A81608093010ADF91CF910895809161
:10071000010A8E7F8093010A61E086E0DF91CF912C
:100720000C948E020F931F938B019C019927832FAA
:10073000722F612F402F822F1F910F910C946A030B
:10074000EF92FF920F931F93CF93DF9310918F3807
:10075000C0918C38D0E0E0907B38F0907C3880916C
:10076000023990910339E816F90689F00E94540184
:10077000609306397093073980930839909309394B
:10078000E0920239F092033981E080931039809130
:10079000043990910539C817D90789F00E9454018E
:1007A000609306397093073980930839909309391B
:1007B000C0930439D093053981E08093103980913A
:1007C0001B39882309F48DC00E94540100910A3915
:1007D00010910B3920910C3930910D39601B710B40
:1007E000820B930B0091113910911239209113391A
:1007F00030911439061717072807390760F50E944A
:10080000540160930A3970930B3980930C3990939B
:100810000D3984EF91E0A0E0B0E08093113990931E
:100820001239A0931339B093143980910E3991E0A5
:10083000892780930E39882309F44CC080911C3994
:100840008F5F80931C3940911639609117398091E0
:1008500015390E946A0390911C3980911D398917BE
:1008600090F580ED97E0A0E0B0E08093113990938F
:100870001239A0931339B093143940E060E080E05E
:100880000E946A0310921C3910920E390E94540182
:1008900000911E3910911F39209120393091213952
:1008A000601B710B820B930B00912239109123393D
:1008B0002091243930912539061717072807390761
:1008C00010F410921B39DF91CF911F910F91FF907F
:1008D000EF9008954091193960911A398091183933
:1008E000B8CF0E94540120910639309107394091C8
:1008F000083950910939621B730B840B950B613ECB
:1009000073498440910510F010921039809110398C
:1009100081110BC060E070E0CB01DF91CF911F919E
:100920000F91FF90EF900C94920380910239909177
:1009300003398230910561F184F4009709F4C2C053
:10094000019709F45AC084E090E0DF91CF911F91A4
:100950000F91FF90EF900C94B8018430910501F154
:100960000CF446C0059779F70E945401209106398E
:10097000309107394091083950910939621B730B46
:10098000840B950B60347F418105910508F09AC076
:1009900063E28EEF0E94630140E060E0809570C0EA
:1009A0000E94540100910A3910910B3920910C39A1
:1009B00030910D39601B710B820B930B653F7140B9
:1009C0008105910580F080910E3991E0892780930F
:1009D0000E390E94540160930A3970930B39809349
:1009E0000C3990930D3980910E39882309F492CFF8
:1009F00060E070E08FEF90E090CF10FF0EC00E949B
:100A0000540128EE33E040E050E00E94F80A683CD0
:100A100071058105910508F47DCF8091043990918D
:100A2000053982309105C9F154F4009789F1019795
:100A300009F089CF60E07FEF80E090E06ECF8330F7
:100A4000910581F1049709F07ECF2091063930910C
:100A50000739409108395091093961E083E80E94D3
:100A60006301C82F20910639309107394091083928
:100A70005091093961E08FEF0E94630140E06C2FD3
:100A8000DF91CF911F910F91FF90EF900C946A032B
:100A90006FEF70E080E090E040CF60E073E88FEFB0
:100AA00090E03BCF209106393091073940910839C9
:100AB0005091093961E08CED0E94630140E0682F9C
:100AC00080E0DECF61E08CED0E946301482F60E0A2
:100AD000F7CF20917B3830917C382817390731F0D7
:100AE00080937B3890937C380E94A00380917B3860
:100AF00090917C3880938B38089583E090E00E9439
:100B000069051092903860E08FE00C948E0261E0ED
:100B10008FE00E948E020E94E50290E080E00E9439
:100B200069050E94540160936F3870937038809308
:100B300071389093723808954AE050E030E020E038
:100B40008C5F91E0609100066623C1F080930606F9
:100B50009093080660910B0660FFFCCF6091100631
:100B600070911106260F371F4150510959F7C901DD
:100B70006AE070E00E94E40ACB01089569EF72E830
:100B8000F1CFEF93FF93EFE7F8E38F938FB78F9356
:100B90009F937F9370E080819181805D9C4F8083E3
:100BA0009183885E934018F0808391837F5F928168
:100BB000970F928380E09381981F93839481981F6D
:100BC00094839581981F958396819F5F96839781E3
:100BD0009F4F978390859F4F908791859F4F9187D7
:100BE00081E080938D0A7F919F918F918FBF8F912C
:100BF000FF91EF9118950F9304E00C9407060F9363
:100C000002E00C9407060F9300E00C9407060F9285
:100C10000FB60F921F921124FF921F932F933F93B1
:100C20004F935F936F937F938F939F93AF93BF93F4
:100C3000CF93DF93EF93FF93A0E0B8E3A00FB11D34
:100C4000CD91DC91000F0D5FA02FB0E0FC901097CC
:100C500061F01F2D169518F041F02296FBCFE99117
:100C6000F9913097B9F30995F5CFA02FB0E0FC9238
:100C7000FF91EF91DF91CF91BF91AF919F918F91B4
:100C80007F916F915F914F913F912F911F91FF90B5
:100C90001F900F900FBE0F900F9118951F920F92FB
:100CA0000FB60F9211241F932F933F934F935F938F
:100CB0006F937F938F939F93AF93BF93CF93DF9364
:100CC000EF93FF93C5EBD8E3E881F981838586FF35
:100CD00056C080FF41C0158581FF38C08E818823B2
:100CE00059F08091333880935000EB85FC85309724
:100CF00019F08E8190E009951C831D821886E98584
:100D0000FA85309709F009958D81882319F183E0E0
:100D10009091500090933338917090935000E881F7
:100D2000F9818287FF91EF91DF91CF91BF91AF91D0
:100D30009F918F917F916F915F914F913F912F91F3
:100D40001F910F900FBE0F901F9018951C831E824D
:100D50001F82DDCF86E0DCCF809133388093500056
:100D6000EB85FC85309729F08E81882311F090E087
:100D700009951E821D821F82188682E0D0CF87FFD0
:100D80002FC081FF1EC0887139F08A8183FF04C0A3
:100D90001D82877F8A83F1CF8B818F5F8B838A81CE
:100DA00088608A83A8858D81A81738F7AC0FBD2F7E
:100DB000B11D1D968C91858788858F5F888783E01C
:100DC000AECF8585EE81E03258F4EC0FFD2FF11D9A
:100DD00085A78E818F5F8E83803288F386E09FCFD8
:100DE00080E09DCF1F920F920FB60F9211248F9328
:100DF0009F93AF93BF9381E08093530180912F38ED
:100E000090913038A0913138B09132380196A11DBF
:100E1000B11D80932F3890933038A0933138B09320
:100E20003238BF91AF919F918F910F900FBE0F906D
:100E30001F901895EDEAF8E31282138288EE93E092
:100E4000A0E0B0E084839583A683B7838EEF9AE910
:100E50008083918380E198E080879187E2E0F9E3E5
:100E600014821582168217821086118612861386C6
:100E70001486158681E08687138A148A158A168A55
:100E8000178A108E118E128E089588ED90E084BF1F
:100E900090936100E0E0F6E083E582838DE0858356
:100EA00080E2838381E08083109202028093030AB0
:100EB0009EEF9093260A9093270A9BE09093000A56
:100EC000E0E8FAE02DEF31E026A737A7118290E89D
:100ED0009283848781E1808378948091020281608B
:100EE0008093020261E081E00E94F60261E087E007
:100EF0000E94F60261E086E00E94F60261E08FE067
:100F00000E948E0261E08FE00E94F60261E08DE0B7
:100F10000E948E0261E08DE00E94F60261E08EE0A8
:100F20000E94F60260E085E00E94F60260E084E044
:100F30000E94F60260E080E00E94F60262E08BE030
:100F40000E94F60262E082E00E94F60262E083E024
:100F50000E94F60261E08AE00E94F60261E08AE007
:100F60000E948E0240E060E080E00E946A0340E060
:100F700060E08FEF0E946A0364E670E080E090E03A
:100F80000E94B10040E06FEF80E00E946A0364E6D7
:100F900070E080E090E00E94B1004FEF60E080E000
:100FA0000E946A0364E670E080E090E00E94B10075
:100FB00040E060E080E00E946A03E4E3F8E388E553
:100FC00098E32FEF21938E179F07E1F710923538A2
:100FD0001092343893E09093443880E880934738F7
:100FE000109248388093493810924A3880934B3891
:100FF00010924C388AEC8093893889E080938A3843
:101000008091B73881FD17C082FD15C08091010223
:1010100084FF12C186E0809306048091B738846013
:101020008093B738E091B538F091B6388AE4848778
:10103000168681EE818788E192E08093C038909394
:10104000C13883E291E08093BE389093BF38E0913D
:101050000438F0910538309769F08BEE92E0828386
:1010600093839FB7F89480915104887F8360809325
:1010700051049FBF1092470181E58093500181E0A8
:101080008093520180915000897F8093500080911D
:1010900050008160809350000E948705CFEFD3E01D
:1010A00080917E38882391F04FEF6FEF8FEF0E9491
:1010B0006A0362E370E080E090E00E94B10040E0EB
:1010C00060E080E00E946A0310927E3880919C3834
:1010D00087FF2AC084E090E00E949C0580935A38E4
:1010E00090935B3880915A3890915B3860E08535F9
:1010F000914008F4A4C080E00E948E0261E080E08C
:101100000E94F602C0935838D093593880915838CD
:1011100090915938892F8F7780939C3880915838D7
:101120009091593880939D3880919E3887FF16C0E2
:1011300084E090E00E949C0580935A3890935B383D
:1011400080915A3890915B38892F8F7780939E38A1
:1011500080915A3890915B3880939F388091A03865
:1011600087FF16C085E090E00E949C0580935C3864
:1011700090935D3880915C3890915D38892F8F779E
:101180008093A03880915C3890915D388093A1382D
:1011900080917B3890917C38039711F40E948705E9
:1011A00080917B3890917C38039709F05AC061E0B8
:1011B0008EE00E948E0282E00E947602813009F465
:1011C00089C00E94540110926338109264381092C2
:1011D00065381092663882E00E947602811149C01B
:1011E0008091633890916438A0916538B0916638E9
:1011F000813B9440A105B105B8F160E070E0CB01FE
:101200000E94920361E070E080E090E00E94B100F3
:101210008091633890916438A0916538B0916638B8
:101220000196A11DB11D8093633890936438A093FB
:101230006538B0936638CFCF90932604EECE80E029
:101240000E94F60261E070E080E090E00E94B10050
:1012500090E080E00E949C05809358389093593824
:1012600055CF0E94E502A7CF6FEF7FEF8FEF90E0A1
:10127000C7CF8091633890916438A0916538B09160
:1012800066380697A105B10518F10E945401009136
:101290005E3810915F382091603830916138601B62
:1012A000710B820B930B643F71408105910508F02F
:1012B000ABC0809162388F5F809362380E94540186
:1012C00060935E3870935F38809360389093613894
:1012D0000E94A0038091633890916438A091653892
:1012E000B09166380597A105B10508F090C010923D
:1012F0006338109264381092653810926638809185
:101300008B38863008F0ECC090E00E94690580912F
:101310007B3890917C38892B09F0E7C00E945401FA
:1013200000916F3810917038209171383091723877
:10133000601B710B820B930B613E734984409105D6
:1013400008F4D3C084E090E00E94690582E090E058
:101350000E94FE0180918D388823D1F00E945401B3
:101360000091733810917438209175383091763827
:10137000601B710B820B930B6938734181059105DA
:1013800008F41BC189E090E00E94FE0110928D38A4
:1013900061E08AE00E948E0280917B3890917C38D7
:1013A0000197B1F40E945401009177381091783878
:1013B0002091793830917A38601B710B820B930B36
:1013C000613A76488140910518F081E00E94E7017A
:1013D00080917D38882351F080918B38833031F4AF
:1013E00061E08EE00E948E0210927D38809110396B
:1013F000882309F4E4C080915000897F80935000D5
:101400000E94A00388954CCE1092623857CF8091ED
:10141000633890916438A0916538B0916638803B0C
:101420009440A105B105A0F580911039811126C025
:101430000E945401609306397093073980930839EC
:101440009093093981E0809310390E94A003809124
:1014500062388B3008F44BCF109262386FEF7FEF19
:101460008FEF90E00E94920360ED77E080E090E0E3
:101470000E94B10080E10E94E70139CF80917B3862
:1014800090917C38019709F784E00E94E701DDCF55
:1014900080917B3890917C38039719F40E948705DE
:1014A000D6CF60E08DE00E948E0282E090E00E9444
:1014B0006905109290380E94540160936B387093C4
:1014C0006C3880936D3890936E3864E670E080E0FD
:1014D00090E00E94B10061E08DE00E948E02B7CFE3
:1014E00084E090E00E94FE0112CF80917B389091C1
:1014F0007C38029749F483E00E947602811104C08F
:101500000E947D051092103980917B3890917C3833
:10151000019731F080917B3890917C38059779F470
:1015200083E00E94760281110AC00E947D0568EE68
:1015300073E080E090E00E94B1000E9487058091F6
:101540007B3890917C38029711F180917B38909193
:101550007C38039709F0FECE0E9454010091673851
:10156000109168382091693830916A38601B710B8E
:10157000820B930B61307C458642954008F4EACE9D
:101580008AE090E00E94FE010E948705E3CE0E945F
:10159000540100916B3810916C3820916D38309166
:1015A0006E38601B710B820B930B61367A4E81058E
:1015B000910558F20E947D05CDCE60E0EACE809183
:1015C0005000897F84601ACF97FB072E16F4009491
:1015D00007D077FD09D00E94250B07FC05D03EF40B
:1015E000909581959F4F0895709561957F4F0895CF
:1015F000A1E21A2EAA1BBB1BFD010DC0AA1FBB1F17
:10160000EE1FFF1FA217B307E407F50720F0A21B88
:10161000B30BE40BF50B661F771F881F991F1A94F5
:1016200069F760957095809590959B01AC01BD011F
:10163000CF0108950E943F0BA59F900DB49F900D80
:10164000A49F800D911D11240895AA1BBB1B51E17D
:1016500007C0AA1FBB1FA617B70710F0A61BB70B22
:10166000881F991F5A95A9F780959095BC01CD01C7
:101670000895EE0FFF1F0590F491E02D0994A29FAD
:10168000B001B39FC001A39F700D811D1124911D56
:10169000B29F700D811D1124911D08955058BB27D4
:1016A000AA270E94660B0C94B00C0E94A20C38F082
:1016B0000E94A90C20F039F49F3F19F426F40C94F1
:1016C0009F0C0EF4E095E7FB0C94990CE92F0E9417
:1016D000C10C58F3BA17620773078407950720F007
:1016E00079F4A6F50C94E30C0EF4E0950B2EBA2FCA
:1016F000A02D0B01B90190010C01CA01A001112418
:10170000FF27591B99F0593F50F4503E68F11A16C3
:10171000F040A22F232F342F4427585FF3CF469554
:1017200037952795A795F0405395C9F77EF41F1676
:10173000BA0B620B730B840BBAF09150A1F0FF0F40
:10174000BB1F661F771F881FC2F70EC0BA0F621F2C
:10175000731F841F48F4879577956795B795F7951C
:101760009E3F08F0B0CF9395880F08F09927EE0FB1
:101770009795879508950E94CF0B0C94B00C0E940A
:10178000A90C58F00E94A20C40F029F45F3F29F008
:101790000C94990C51110C94E40C0C949F0C0E9425
:1017A000C10C68F39923B1F3552391F3951B550BA5
:1017B000BB27AA2762177307840738F09F5F5F4F24
:1017C000220F331F441FAA1FA9F335D00E2E3AF063
:1017D000E0E832D091505040E695001CCAF72BD07B
:1017E000FE2F29D0660F771F881FBB1F26173707CC
:1017F0004807AB07B0E809F0BB0B802DBF01FF27FE
:1018000093585F4F3AF09E3F510578F00C94990C35
:101810000C94E40C5F3FE4F3983ED4F386957795FF
:101820006795B795F7959F5FC9F7880F911D9695B6
:10183000879597F90895E1E0660F771F881FBB1F12
:10184000621773078407BA0720F0621B730B840BBF
:10185000BA0BEE1F88F7E09508950E94C90C88F036
:101860009F5798F0B92F9927B751B0F0E1F0660F64
:10187000771F881F991F1AF0BA95C9F714C0B130A5
:1018800091F00E94E30CB1E008950C94E30C672FF3
:10189000782F8827B85F39F0B93FCCF386957795D4
:1018A0006795B395D9F73EF49095809570956195BD
:1018B0007F4F8F4F9F4F0895E89409C097FB3EF4E8
:1018C00090958095709561957F4F8F4F9F4F99238D
:1018D000A9F0F92F96E9BB279395F695879577950B
:1018E0006795B795F111F8CFFAF4BB0F11F460FFCB
:1018F0001BC06F5F7F4F8F4F9F4F16C0882311F023
:1019000096E911C0772321F09EE8872F762F05C036
:10191000662371F096E8862F70E060E02AF09A95D1
:10192000660F771F881FDAF7880F9695879597F9C6
:10193000089597F99F6780E870E060E008959FEF51
:1019400080EC089500240A94161617061806090656
:10195000089500240A941216130614060506089525
:10196000092E0394000C11F4882352F0BB0F40F4AD
:10197000BF2B11F460FF04C06F5F7F4F8F4F9F4FED
:10198000089557FD9058440F551F59F05F3F71F06F
:101990004795880F97FB991F61F09F3F79F08795D6
:1019A0000895121613061406551FF2CF4695F1DF5F
:1019B00008C0161617061806991FF1CF86957105EF
:1019C000610508940895E894BB2766277727CB0123
:1019D00097F908950E94FD0C0C94B00C0E94A20C83
:1019E00038F00E94A90C20F0952311F00C94990C6A
:1019F0000C949F0C11240C94E40C0E94C10C70F305
:101A0000959FC1F3950F50E0551F629FF001729FA3
:101A1000BB27F00DB11D639FAA27F00DB11DAA1FB2
:101A2000649F6627B00DA11D661F829F2227B00DFF
:101A3000A11D621F739FB00DA11D621F839FA00D8A
:101A4000611D221F749F3327A00D611D231F849FDA
:101A5000600D211D822F762F6A2F11249F57504031
:101A60009AF0F1F088234AF0EE0FFF1FBB1F661FAC
:101A7000771F881F91505040A9F79E3F510580F075
:101A80000C94990C0C94E40C5F3FE4F3983ED4F36F
:101A9000869577956795B795F795E7959F5FC1F719
:101AA000FE2B880F911D9695879597F90895F894C8
:021AB000FFCF66
:101AB2001010800000000010101000000000000054
:101AC20010000405060705040302010000010203D9
:101AD20001020300000000000101010101010202F4
:101AE20002020000000010204080201008040201C1
:101AF20001020408020408010000000011012D0186
:0A1B02005101DD000B01F900E500C0
:061B0C001D3811380938F4
:00000001FF
