:100000000C943F000C9473000C9473000C946F05D7
:100010000C946B050C9467050C9473000C945E06AD
:100020000C9473000C9473000C9473000C94730084
:100030000C9473000C9473000C9473000C942D05B5
:100040000C9473000C9473000C9473000C94730064
:100050000C9473000C9473000C9473000C94730054
:100060000C94BA050C9473000C9473000C947300F8
:100070000C9473000C9473000C9473008606112486
:100080001FBECFEFCDBFDFE3DEBF80914000809386
:100090004000811105C098ED21E094BF20934100FC
:1000A0008CBB18E3A0E0B8E3E6E5F3E102C00590FD
:1000B0000D92A630B107D9F729E3A6E0B8E301C055
:1000C0001D92AC31B207E1F710E0CFE3D0E004C0FD
:1000D0002197FE010E946709CE33D107C9F70E941C
:1000E000AF060C947C090C940000282F30E0F90135
:1000F000EE5CFC4690819F3F51F1205E3C46D90169
:10010000EC91F0E0DF01AA0FBB1FA050B84C2D917D
:100110003C9121153105D9F0492F50E0440F551F6E
:10012000240F351FD9016D937C934FB7F8949F012D
:1001300055E0220F331F5A95E1F7E0E1E90FE20F96
:10014000F0E0FC5F8081887F836080834FBF0895EB
:100150009FB7F89488E08093840A80918E0A81FF8B
:10016000FCCF80918D0AE091A20AF091A30A209120
:100170007C3830917D3840917E3850917F389FBFD8
:1001800080FF07C0E730F10520F42F5F3F4F4F4F4E
:100190005F4FBF0176956795CF01860F911DE62FC2
:1001A000E695E695762F72957F70E71BFF0B67FD4E
:1001B0003196E80FF91FA0E3B3E00E9448096E0FE3
:1001C0007F1F811D911D0895CF92DF92EF92FF92C4
:1001D000CF93DF936B017C010E94A800EB010E948A
:1001E000A8006C1B7D0B683E7340A0F0C114D104C5
:1001F000E104F10439F4DF91CF91FF90EF90DF90AB
:10020000CF90089581E0C81AD108E108F108C851DB
:10021000DC4FE5CFC114D104E104F10401F7EBCFC9
:10022000DC011896ED91FC918481886084830895A7
:100230009C012B5C3F4FDC011F96EC911F971E9693
:100240008C91E81730F4E20FF32FF11D808190E0DC
:1002500008958FEF9FEF0895FC01DC01D5969785F7
:100260008685981740F4A90FB11D2C919F5F978741
:10027000822F90E008958FEF9FEF0895FC0186850F
:100280009785891B990B0895FC01A585A03258F428
:10029000A80FB92FB11D55966C9385858F5F858703
:1002A00081E090E0089590E080E00895E0912E389C
:1002B000F0E0E058F74C608184EA98E30C94440144
:1002C000BF92CF92DF92EF92FF920F931F93CF9343
:1002D000DF937C016A01B62EEB010C2F0B1910E0A5
:1002E0000C151D0530F46991C7010E944401892B4A
:1002F000A1F7C801DF91CF911F910F91FF90EF906F
:10030000DF90CF90BF90089590E080E00895F8943A
:10031000F89420912F3830913038409131385091F5
:10032000323878947894AFE3B0E00E944809089599
:100330009091113991112AC08093133980E29EE483
:10034000A0E0B0E08093183990931939A0931A393E
:10035000B0931B398FEF80930B3910920C391092A8
:100360000D3910920E3910920F391092103981E028
:1003700080931139109212390E94870160931439C9
:100380007093153980931639909317390895E82F93
:10039000E695E695E695E05EF0E0E058F74CAC01B6
:1003A0004770552721E030E0B90102C0660F771F82
:1003B0004A95E2F72081262B20830C9498011F9305
:1003C000CF93DF9311E09091B2388091B3389817B2
:1003D000D9F184EA98E30E942C01EC012091B23813
:1003E0009091B338843268F0291759F084EA98E381
:1003F0000E942C0187E090E0DF91CF911F910C9437
:10040000C701C0932E382917F1F28351823010F4BE
:100410001092923884EA98E30E942C01DD27FE01B5
:10042000EC5CF74C9081C058D74C292F209538812F
:1004300023239823891719F085E090E0DDCF822BE4
:10044000888310932D38BFCFDF91CF911F910895EE
:10045000CF93DF93282F30E0E901C25FDC4688812B
:100460008F3F71F1A901405E5C46DA01EC91B0E288
:10047000EB9FF0011124FC5F611125C08683908100
:100480008923A1F4C9018E5C9C46DC019C913097C4
:10049000E1F09830D0F47096E90FF11D9FB7F89411
:1004A0008081611115C0877F80839FBF24503D46A6
:1004B000F9018081882321F0803161F08038E1F0FA
:1004C000DF91CF9108958583DACFF0E0E0E0E6CFC9
:1004D0008860EACF8881DA019C91913059F48530A7
:1004E00010F0880F82959091010A8095892380935E
:1004F000010AE6CF880FF7CF1092A006E1CF90E077
:10050000FC01E25FFC4620812F3FB9F0FC01E05E78
:10051000FC46E08130E2E39FF0011124FC5F60FFC4
:100520000DC021838E5C9C46DC018C91E80FF11D8F
:10053000808961FF05C08860808B08952283F2CF97
:10054000877FFACFCF93282F30E0F901E25FFC4696
:1005500090819F3F09F445C0C82FF901E450FD4642
:100560008081803131F08038A1F16038710524F04C
:100570000FC06115710549F460E08C2F0E942802BC
:1005800061E08C2FCF910C947F026F3F710511F4C5
:1005900061E0F3CF953048F0990F205E3C46F901B9
:1005A0008081E1E0813011F49295E0E0892F84743C
:1005B00059F0EC5FF0E0E85DF54F60838091010A4F
:1005C000982B9093010ADCCF892F827299F3EE5F0A
:1005D000F1CF6093A1068091A00681648093A0066C
:1005E000CFCFCF910895CF93DF93D62FC42F80958F
:1005F000682F70E081E00E94A202D0956D2F70E01C
:1006000080E00E94A202C0956C2F70E080E1DF9133
:10061000CF910C94A2020F931F93CF93DF93C091BD
:100620008338D0E000917438109175388091F93892
:100630009091FA380817190771F00E9487016093AA
:10064000FD387093FE388093FF3890930039009303
:10065000F9381093FA388091FB389091FC38C8171C
:10066000D90771F00E9487016093FD387093FE38BE
:100670008093FF3890930039C093FB38D093FC38B7
:1006800080911139882309F48BC00E948701009161
:100690000139109102392091033930910439601BDE
:1006A000710B820B930B009107391091083920913F
:1006B000093930910A39061717072807390760F5F5
:1006C0000E94870160930139709302398093033946
:1006D0009093043984EF91E0A0E0B0E08093073973
:1006E00090930839A0930939B0930A39809105395C
:1006F00091E0892780930539882309F44AC08091C5
:1007000012398F5F8093123940910C3960910D3905
:1007100080910B390E94F302909112398091133924
:10072000891790F580ED97E0A0E0B0E0809307395D
:1007300090930839A0930939B0930A3940E060E0FA
:1007400080E00E94F30210921239109205390E9443
:100750008701009114391091153920911639309183
:100760001739601B710B820B930B00911839109194
:10077000193920911A3930911B39061717072807A4
:10078000390710F410921139DF91CF911F910F9119
:10079000089540910F396091103980910E39BACF88
:1007A0000E9487010091FD381091FE382091FF389A
:1007B00030910039601B710B820B930B613C7742C7
:1007C0008940910520F040E060E080E046C08091E3
:1007D000F9389091FA388230910509F444C06CF4EC
:1007E0000097C1F1019709F441C084E090E0DF91E6
:1007F000CF911F910F910C9498018330910519F3BB
:10080000049799F70E9487010091013910910239EC
:100810002091033930910439601B710B820B930BCB
:10082000653F71408105910580F08091053991E027
:100830008927809305390E9487016093013970935D
:1008400002398093033990930439809105398823C4
:1008500009F4B9CF40E060E08FEFDF91CF911F91B5
:100860000F910C94F30240E063E8F6CF8091FB38DF
:100870009091FC388130910541F08230910599F3D7
:10088000892B09F0B2CF4FEF9FCF40E06FEF9DCFA4
:10089000CF93DF932091743830917538281739073A
:1008A00089F0EC010E948701609370387093713871
:1008B0008093723890937338C0937438D09375389E
:1008C0000E940B0380917438909175388093823820
:1008D000DF91CF910895CF92DF92EF92FF920E9425
:1008E00087016B017C018091080486FFFCCF0E9488
:1008F00087016C197D098E099F0960935C3870939C
:100900005D3880935E3890935F38FF90EF90DF9072
:10091000CF900895CF93DF932AE030E090E080E01D
:1009200068E071E040910006442309F473C06093CD
:1009300006067093080640910B0640FFFCCF4091DD
:10094000100650911106840F951F2150310951F75F
:100950006AE070E00E943409609358387093593807
:1009600080912C38882309F452C020915838309156
:10097000593880912A3890912B388217930708F4C0
:1009800046C08091583890915938029708F43FC07A
:1009900083E090E00E944804C3E0D0E040E060E0E3
:1009A0008FEF0E94F3026CE271E080E090E00E9421
:1009B000E40040E060E080E00E94F3026CE271E05D
:1009C00080E090E00E94E400219741F768E071E048
:1009D0008AE090E02091000649EF52E8222361F07E
:1009E000609306067093080620910B0620FFFCCF4B
:1009F000409110065091110620912A3830912B38E1
:100A0000265F3F4F4217530718F3019719F7DF91FD
:100A1000CF91089549EF52E896CF0E948A0461E091
:100A20008FE00E94280290E080E00E9448040E942B
:100A30008701609368387093693880936A3890931F
:100A40006B3808958091743890917538039721F42C
:100A50000E948A040C940D050895EF93FF93E6E736
:100A6000F8E38F938FB78F939F937F9370E080818C
:100A70009181805D9C4F80839183885E934018F0C4
:100A8000808391837F5F9281970F928380E093812F
:100A9000981F93839481981F94839581981F9583C1
:100AA00096819F5F968397819F4F978390859F4FF5
:100AB000908791859F4F918781E080938D0A7F91E8
:100AC0009F918F918FBF8F91FF91EF9118950F9309
:100AD00004E00C9473050F9302E00C9473050F93DC
:100AE00000E00C9473050F920FB60F921F92112421
:100AF000FF921F932F933F934F935F936F937F9337
:100B00008F939F93AF93BF93CF93DF93EF93FF9315
:100B1000A0E0B8E3A00FB11DCD91DC91000F0D5FF7
:100B2000A02FB0E0FC90109761F01F2D169518F0E3
:100B300041F02296FBCFE991F9913097B9F30995ED
:100B4000F5CFA02FB0E0FC92FF91EF91DF91CF9114
:100B5000BF91AF919F918F917F916F915F914F91D5
:100B60003F912F911F91FF901F900F900FBE0F90FC
:100B70000F9118951F920F920FB60F9211241F9389
:100B80002F933F934F935F936F937F938F939F9395
:100B9000AF93BF93CF93DF93EF93FF93CCEAD8E368
:100BA000E881F981838586FF56C080FF41C01585A5
:100BB00081FF38C08E81882359F08091333880932B
:100BC0005000EB85FC85309719F08E8190E00995F7
:100BD0001C831D821886E985FA85309709F00995EE
:100BE0008D81882319F183E09091500090933338E0
:100BF000917090935000E881F9818287FF91EF9185
:100C0000DF91CF91BF91AF919F918F917F916F9124
:100C10005F914F913F912F911F910F900FBE0F90B9
:100C20001F9018951C831E821F82DDCF86E0DCCFCB
:100C30008091333880935000EB85FC85309729F004
:100C40008E81882311F090E009951E821D821F82FB
:100C5000188682E0D0CF87FF2FC081FF1EC0887129
:100C600039F08A8183FF04C01D82877F8A83F1CF98
:100C70008B818F5F8B838A8188608A83A8858D8131
:100C8000A81738F7AC0FBD2FB11D1D968C91858725
:100C900088858F5F888783E0AECF8585EE81E032DF
:100CA00058F4EC0FFD2FF11D85A78E818F5F8E8389
:100CB000803288F386E09FCF80E09DCF1F920F9215
:100CC0000FB60F9211248F939F93AF93BF9381E040
:100CD0008093530180912F3890913038A091313812
:100CE000B09132380196A11DB11D80932F38909399
:100CF0003038A0933138B0933238BF91AF919F9183
:100D00008F910F900FBE0F901F901895E4EAF8E3B3
:100D10001282138288EE93E0A0E0B0E08483958392
:100D2000A683B78388E493E98083918380E198E088
:100D300080879187E9EFF8E3148215821682178283
:100D4000108611861286138614861586128A138AD7
:100D5000148A158A168A178A108E118E089588EDC6
:100D600090E084BF90936100E0E0F6E083E5828349
:100D70008DE0858380E2838381E08083109202028C
:100D80008093030A9EEF9093260A9093270A9BE094
:100D90009093000AE0E8FAE02DEF31E026A737A7AC
:100DA000118290E89283848781E18083789461E066
:100DB00081E00E947F0261E080E00E947F0261E0AA
:100DC00080E10E947F0261E08FE00E947F0261E08B
:100DD0008FE00E94280260E085E00E947F0260E0D0
:100DE00084E00E947F0262E08BE00E947F0262E06A
:100DF00082E00E947F0240E060E080E00E94F30217
:100E00000E948A0440E060E08FEF0E94F30264E6F3
:100E100070E080E090E00E94E40040E06FEF80E04E
:100E20000E94F30264E670E080E090E00E94E4003B
:100E30004FEF60E080E00E94F30264E670E080E043
:100E400090E00E94E400E4E3F8E38FEF819328E36D
:100E5000E835F207D9F7109235381092343883E02C
:100E60008093463890E89093443810924538909398
:100E7000493810924A389AEC9093803891E09093D8
:100E800081389091AE3891FD17C092FD15C09091B8
:100E9000010294FF7AC186E0809306048091AE3807
:100EA00084608093AE38E091AC38F091AD388AE43C
:100EB0008487168681EE81878FED91E08093B73825
:100EC0009093B83886E591E08093B5389093B63822
:100ED00062E275E08BE00E9475006BE674E082E0F0
:100EE0000E9475001092470181E58093500181E0D6
:100EF0008093520180915000897F846080935000DC
:100F0000809150008160809350000E940D0504E0A4
:100F100089E0F82EEE24E394CAE0D0E011E080915D
:100F2000923880FF38C1C0909038D0909138DC243E
:100F3000CD24DC240E948A0480915838909159383D
:100F40004F97C816D90608F023C11092923886E050
:100F500090E00E94C7018091903887FF10C00E94E6
:100F60008A048091583890915938809391388091B3
:100F7000583890915938892F8F7780939038809185
:100F8000953887FF2FC02AE030E090E080E0409164
:100F90000006442309F404C1F0920606E092080614
:100FA00040910B0640FFFCCF409110065091110676
:100FB000840F951F2150310951F7BE010E94340959
:100FC00060935A3870935B3880915A3890915B38AF
:100FD0008093963880915A3890915B38892F8F771B
:100FE0008093953880918538882381F082E090E065
:100FF0000E9448040E9487016093643870936538AA
:101000008093663890936738109285388091843841
:10101000882361F0109284380E94870160937038B1
:1010200070937138809372389093733880918638BA
:10103000882321F0109286380E940D0580915C383B
:1010400090915D38A0915E38B0915F38C297A1054C
:10105000B10518F180915C3890915D38A0915E38AF
:10106000B0915F38803D9740A105B10508F0AAC056
:101070000E9487016093FD387093FE388093FF389B
:10108000909300398091743890917538039709F0E6
:101090008AC00E940D050E940B030E948A04809161
:1010A0008238853008F09BC090E00E94480480910F
:1010B000743890917538892B09F096C00E94870189
:1010C0008090683890906938A0906A38B0906B38FA
:1010D000681979098A099B09613E73498440910521
:1010E00008F482C084E090E00E94480482E090E02E
:1010F0000E94C701809188388823F1F00E948701FF
:1011000080906C3890906D38A0906E38B0906F38A9
:10111000681979098A099B09613375478105910529
:1011200030F089E090E00E94C701109288388091E9
:10113000883861E0813009F060E087E00E94280291
:1011400080917438909175380197D9F40E94870185
:101150008090703890907138A0907238B090733849
:10116000681979098A099B09613C764C8D42910581
:1011700040F083E090E00E94C70183E090E00E948D
:1011800048040E940B038895CACE8093260486CE1D
:1011900000939238E0CE81FFDECE10929238DBCE03
:1011A00049EF52E805CF0E94870160936C38709335
:1011B0006D3880936E3890936F3810938838109301
:1011C000873869CF88EDA89584BF80910001806041
:1011D000809300018091010181FDFCCFFFCF84E06D
:1011E00090E00E94C70163CF809174389091753868
:1011F000029711F18091743890917538039709F036
:1012000079CF0E9487018090603890906138A090DB
:101210006238B0906338681979098A099B0961308E
:101220007C458642954008F465CF8AE090E00E94B4
:10123000C7010E940D055ECF0E948701809064382F
:1012400090906538A0906638B09067386819790931
:101250008A099B09613375478105910558F283E03E
:1012600090E00E94480446CF97FB072E16F40094A6
:1012700007D077FD09D00E94530907FC05D03EF442
:10128000909581959F4F0895709561957F4F089532
:101290000E946D09A59F900DB49F900DA49F800D95
:1012A000911D11240895AA1BBB1B51E107C0AA1F61
:1012B000BB1FA617B70710F0A61BB70B881F991FF7
:1012C0005A95A9F780959095BC01CD010895EE0F30
:1012D000FF1F0590F491E02D0994A29FB001B39FE8
:1012E000C001A39F700D811D1124911DB29F700D2F
:0C12F000811D1124911D0895F894FFCF7A
:1012FC001010800000000010101000000000000012
:10130C001000102040802010080402010102040883
:10131C0002040801000000000101010101010202A8
:10132C000202000000000405060705040302010088
:10133C0000010203010203000000000044016001EF
:0A134C00840110013E012C0118017C
:061356001A380E380638BB
:00000001FF
