:100000000C943F000C9473000C9473000C946105E5
:100010000C945D050C9459050C9473000C945006D7
:100020000C9473000C9473000C9473000C94730084
:100030000C9473000C9473000C9473000C941F05C3
:100040000C9473000C9473000C9473000C94730064
:100050000C9473000C9473000C9473000C94730054
:100060000C94AC050C9473000C9473000C94730006
:100070000C9473000C9473000C9473007806112494
:100080001FBECFEFCDBFDFE3DEBF80914000809386
:100090004000811105C098ED21E094BF20934100FC
:1000A0008CBB18E3A0E0B8E3E2EBF8E102C00590F6
:1000B0000D92A630B107D9F729E3A6E0B8E301C055
:1000C0001D92A132B207E1F710E0CFE3D0E004C007
:1000D0002197FE010E940C0ACE33D107C9F70E9476
:1000E000A3060C942A0C0C9400009FB7F89488E0A7
:1000F0008093840A80918E0A81FFFCCF80918D0AC3
:10010000E091A20AF091A30A2091803830918138C1
:1001100040918238509183389FBF80FF07C0E730FD
:10012000F10520F42F5F3F4F4F4F5F4FBF01769592
:100130006795CF01860F911DE62FE695E695762F00
:1001400072957F70E71BFF0B67FD3196E80FF91F73
:10015000A0E3B3E00E94ED096E0F7F1F811D911D8A
:100160000895CF92DF92EF92FF92CF93DF936B01CE
:100170007C010E947500EB010E9475006C1B7D0BD9
:10018000683E7340A0F0C114D104E104F10439F4D5
:10019000DF91CF91FF90EF90DF90CF90089581E0B5
:1001A000C81AD108E108F108C851DC4FE5CFC114E5
:1001B000D104E104F10401F7EBCFDC011896ED91D5
:1001C000FC9184818860848308959C012B5C3F4F5F
:1001D000DC011F96EC911F971E968C91E81730F466
:1001E000E20FF32FF11D808190E008958FEF9FEFD4
:1001F0000895FC01DC01D59697858685981740F413
:10020000A90FB11D2C919F5F9787822F90E00895D1
:100210008FEF9FEF0895FC0186859785891B990BC9
:100220000895FC01A585A03258F4A80FB92FB11D7F
:1002300055966C9385858F5F858781E090E0089562
:1002400090E080E00895E0912E38F0E0EC57F74C14
:10025000608188EA98E30C941101BF92CF92DF92FB
:10026000EF92FF920F931F93CF93DF937C016A016C
:10027000B62EEB010C2F0B1910E00C151D0530F4F8
:100280006991C7010E941101892BA1F7C801DF9173
:10029000CF911F910F91FF90EF90DF90CF90BF9083
:1002A000089590E080E00895F89420912F383091DF
:1002B000303840913138509132387894AFE3B0E023
:1002C0000E94ED0908959091163991112AC08093EA
:1002D000183980E29EE4A0E0B0E080931D3990934D
:1002E0001E39A0931F39B09320398FEF80931039B6
:1002F0001092113910921239109213391092143948
:100300001092153981E080931639109217390E94A6
:1003100054016093193970931A3980931B39909363
:100320001C390895CF93DF93D82FC0918838C1111D
:100330000AC00E94540160936E3870936F388093A6
:10034000703890937138CD2BC0938838DF91CF915E
:100350000895E82FE695E695E695E05EF0E0EC5727
:10036000F74C482F477021E030E0B90102C0660F1A
:10037000771F4A95E2F72081262B20830E94630194
:1003800082E00C9492010F931F93CF93DF9301E0CF
:100390009091B6388091B738981709F44DC088EA23
:1003A00098E30E94F900EC01182F843290F09091AC
:1003B000B6388091B7389817C1F088EA98E30E9460
:1003C000F90087E090E0DF91CF911F910F910C949D
:1003D000A901823051F40E945401609372387093E5
:1003E00073388093743890937538C0932E389091F9
:1003F000B6388091B738981759F21151123010F46D
:100400001092943888EA98E30E94F900DD27FE01F3
:10041000EC5CF74C9081CC57D74C292F2095388134
:1004200023239823891719F085E090E0CCCF822B05
:10043000888300932D38ACCFDF91CF911F910F911E
:10044000089590E0FC01E257F74620812F3F79F0B4
:1004500084589746DC01EC91B0E2EB9FF001112447
:10046000FC5F9085922381E019F480E008958FEF7E
:100470000895CF93DF93282F30E0E901C257D74684
:1004800088818F3F71F1A90144585746DA01EC91F8
:10049000B0E2EB9FF0011124FC5F611125C086835F
:1004A00090818923A1F4C90186599746DC019C916A
:1004B0003097E1F09830D0F47096E90FF11D9FB7B6
:1004C000F8948081611115C0877F80839FBF285A6F
:1004D0003746F9018081882321F0803161F080382E
:1004E000E1F0DF91CF9108958583DACFF0E0E0E08D
:1004F000E6CF8860EACF8881DA019C91913059F487
:10050000853010F0880F82959091010A809589239B
:100510008093010AE6CF880FF7CF1092A006E1CFB3
:100520008091763890917738039731F4109278382B
:1005300060E08EE00C943902089590E0FC01E257EF
:10054000F74620812F3FB9F0FC01E458F746E081DF
:1005500030E2E39FF0011124FC5F60FF0DC02183B6
:1005600086599746DC018C91E80FF11D808961FF67
:1005700005C08860808B08952283F2CF877FFACFF1
:10058000CF93282F30E0F901E257F74690819F3F43
:1005900009F445C0C82FF901E85AF7468081803137
:1005A00031F08038A1F16038710524F00FC0611579
:1005B000710549F460E08C2F0E94390261E08C2FB4
:1005C000CF910C949D026F3F710511F461E0F3CF60
:1005D000953048F0990F24583746F9018081E1E0C1
:1005E000813011F49295E0E0892F847459F0EC5F2A
:1005F000F0E0E85DF54F60838091010A982B9093BD
:10060000010ADCCF892F827299F3EE5FF1CF6093FC
:10061000A1068091A00681648093A006CFCFCF91E0
:100620000895CF93DF93D62FC42F8095682F70E065
:1006300081E00E94C002D0956D2F70E087E00E949B
:10064000C002C0956C2F70E086E0DF91CF910C94D2
:10065000C002CF92DF92EF92FF92CF93DF93C091CF
:100660008738D0E0E0907638F09077388091FD3888
:100670009091FE38E816F90689F00E9454016093C3
:100680000139709302398093033990930439E092D1
:10069000FD38F092FE3881E080930B398091FF386D
:1006A00090910039C817D90789F00E9454016093CE
:1006B0000139709302398093033990930439C093C0
:1006C000FF38D093003981E080930B39809116393F
:1006D000882309F48DC00E945401C0900539D09040
:1006E0000639E0900739F09008396C197D098E09B8
:1006F0009F09C0900C39D0900D39E0900E39F090E0
:100700000F39C616D706E806F90660F50E945401AF
:1007100060930539709306398093073990930839AF
:1007200084EF91E0A0E0B0E080930C3990930D3914
:10073000A0930E39B0930F398091093991E0892740
:1007400080930939882309F44CC0809117398F5F51
:100750008093173940911139609112398091103985
:100760000E9411039091173980911839891790F5DB
:1007700080ED97E0A0E0B0E080930C3990930D39C4
:10078000A0930E39B0930F3940E060E080E00E9402
:10079000110310921739109209390E945401C09028
:1007A0001939D0901A39E0901B39F0901C396C1926
:1007B0007D098E099F09C0901D39D0901E39E090A7
:1007C0001F39F0902039C616D706E806F90610F44E
:1007D00010921639DF91CF91FF90EF90DF90CF907C
:1007E0000895409114396091153980911339B8CF2B
:1007F0000E945401C0900139D0900239E090033931
:10080000F09004396C197D098E099F09613E734986
:100810008440910510F010920B3980910B398111B1
:1008200004C040E060E080E078C08091FD389091A5
:10083000FE388230910509F478C07CF40097F1F11C
:10084000019709F4A3C084E090E0DF91CF91FF907D
:10085000EF90DF90CF900C9463018330910551F1BC
:10086000049789F70E945401C0900539D090063949
:10087000E0900739F09008396C197D098E099F09BD
:10088000653F71408105910580F08091093991E0C3
:100890008927809309390E94540160930539709328
:1008A0000639809307399093083980910939882354
:1008B00009F4B7CF40E060E08FEF2FC00E945401F1
:1008C0006C197D098E099F0920ED37E040E050E06A
:1008D0000E94CB090E942F0B6B017C01AC019B0194
:1008E0000E94BD0BA70196010E94BD0B28E23BE6CA
:1008F0004EEE5FE40E948E0A20E030E04BE553E4C8
:100900000E94BD0B20E030E040E85FE30E94220A35
:100910000E94000B862F40E060E0DF91CF91FF90B6
:10092000EF90DF90CF900C9411030E9454016C194A
:100930007D098E099F0920ED37E040E050E00E94DC
:10094000CB090E942F0B6B017C01AC019B010E9423
:10095000BD0BA70196010E94BD0B28E23BE64EEEBF
:100960005FE40E948E0A20E030E04BE553E40E94F1
:10097000BD0B20E030E04CE052E40E94220A0E94CD
:10098000000B862F40E060E08095C7CF8091FF3854
:10099000909100398130910541F08230910541F00C
:1009A000892B09F050CF4FEF3DCF40E06FEF3BCFA9
:1009B00040E063E881CF209176383091773828176E
:1009C000390731F080937638909377380E94290365
:1009D000809176389091773880938638089583E0B7
:1009E00090E00E94DB0460E08FE00C94390282E02A
:1009F00090E00E94DB040E9454016093663870937B
:100A000067388093683890936938089561E08FE083
:100A10000E9439021092783860E08EE00E9439021C
:100A200090E080E00E94DB040E94540160936A38E9
:100A300070936B3880936C3890936D380895EF9372
:100A4000FF93EAE7F8E38F938FB78F939F937F939A
:100A500070E080819181805D9C4F80839183885E6E
:100A6000934018F0808391837F5F9281970F9283E8
:100A700080E09381981F93839481981F948395813C
:100A8000981F958396819F5F968397819F4F978349
:100A900090859F4F908791859F4F918781E08093AC
:100AA0008D0A7F919F918F918FBF8F91FF91EF91D1
:100AB00018950F9304E00C9465050F9302E00C94D5
:100AC00065050F9300E00C9465050F920FB60F9229
:100AD0001F921124FF921F932F933F934F935F9385
:100AE0006F937F938F939F93AF93BF93CF93DF9336
:100AF000EF93FF93A0E0B8E3A00FB11DCD91DC917F
:100B0000000F0D5FA02FB0E0FC90109761F01F2D3B
:100B1000169518F041F02296FBCFE991F9913097A4
:100B2000B9F30995F5CFA02FB0E0FC92FF91EF91BA
:100B3000DF91CF91BF91AF919F918F917F916F91F5
:100B40005F914F913F912F911F91FF901F900F90B8
:100B50000FBE0F900F9118951F920F920FB60F9224
:100B600011241F932F933F934F935F936F937F9322
:100B70008F939F93AF93BF93CF93DF93EF93FF93A5
:100B8000C0EBD8E3E881F981838586FF56C080FFFA
:100B900041C0158581FF38C08E81882359F080912E
:100BA000333880935000EB85FC85309719F08E81A7
:100BB00090E009951C831D821886E985FA85309797
:100BC00009F009958D81882319F183E090915000F7
:100BD00090933338917090935000E881F981828727
:100BE000FF91EF91DF91CF91BF91AF919F918F9145
:100BF0007F916F915F914F913F912F911F910F9036
:100C00000FBE0F901F9018951C831E821F82DDCF90
:100C100086E0DCCF8091333880935000EB85FC85F3
:100C2000309729F08E81882311F090E009951E827B
:100C30001D821F82188682E0D0CF87FF2FC081FFE0
:100C40001EC0887139F08A8183FF04C01D82877FAE
:100C50008A83F1CF8B818F5F8B838A8188608A83BF
:100C6000A8858D81A81738F7AC0FBD2FB11D1D9633
:100C70008C91858788858F5F888783E0AECF858557
:100C8000EE81E03258F4EC0FFD2FF11D85A78E8127
:100C90008F5F8E83803288F386E09FCF80E09DCF88
:100CA0001F920F920FB60F9211248F939F93AF93C1
:100CB000BF9381E08093530180912F389091303819
:100CC000A0913138B09132380196A11DB11D8093A9
:100CD0002F3890933038A0933138B0933238BF9189
:100CE000AF919F918F910F900FBE0F901F9018950D
:100CF000E8EAF8E31282138288EE93E0A0E0B0E025
:100D000084839583A683B78384EA98E9808391835B
:100D100080E198E080879187EDEFF8E314821582F7
:100D200016821782108611861286138614861586FF
:100D300081E08687138A148A158A168A178A108E8C
:100D4000118E128E089588ED90E084BF909361001B
:100D5000E0E0F6E083E582838DE0858380E28383B3
:100D600081E08083109202028093030A9EEF9093A9
:100D7000260A9093270A9BE09093000AE0E8FAE0A5
:100D80002DEF31E026A737A7118290E89283848760
:100D900081E18083789461E081E00E949D0261E0BE
:100DA00087E00E949D0261E086E00E949D0261E072
:100DB0008FE00E94390261E08FE00E949D0261E0B5
:100DC0008DE00E94390261E08DE00E949D0261E0A9
:100DD0008EE00E949D0260E085E00E949D0260E03E
:100DE00084E00E949D0262E08BE00E949D0262E02E
:100DF00082E00E949D0262E083E00E949D0261E029
:100E00008AE00E949D0261E08AE00E94390240E08F
:100E100060E080E00E94110340E060E08FEF0E94FC
:100E2000110364E670E080E090E00E94B10040E0D1
:100E30006FEF80E00E94110364E670E080E090E0D4
:100E40000E94B1004FEF60E080E00E94110364E671
:100E500070E080E090E00E94B10040E060E080E05F
:100E60000E941103E4E3F8E388E598E32FEF219370
:100E70008E179F07E1F7109235381092343893E0BF
:100E80009093443880E88093473810924838809394
:100E9000493810924A3880934B3810924C388AEC7B
:100EA0008093843887E08093853882E080938A3805
:100EB0008091B23881FD17C082FD15C0809101027A
:100EC00084FFEFC086E0809306048091B23884608E
:100ED0008093B238E091B038F091B1388AE48487D9
:100EE000168681EE818783EC91E08093BB389093E6
:100EF000BC3883E291E08093B9389093BA38E0919E
:100F00000438F0910538309769F080E992E08283E7
:100F100093839FB7F89480915104887F8360809376
:100F200051049FBF1092470181E58093500181E0F9
:100F30008093520180915000897F8093500080916E
:100F400050008160809350000E94060509E0FF2454
:100F5000F394CAE0D0E011E080917938882391F0D1
:100F60004FEF6FEF8FEF0E94110362E370E080E0BC
:100F700090E00E94B10040E060E080E00E94110338
:100F8000109279388091953887FF1CC0809158382D
:100F900090915938892F8F7780939738809158385E
:100FA000909159388093983880915A3890915B3855
:100FB000892F8F778093993880915A3890915B3838
:100FC00080939A3880919B3887FF2FC02AE030E0C9
:100FD00090E080E040910006442309F465C000934E
:100FE0000606F092080640910B0640FFFCCF4091A8
:100FF000100650911106840F951F2150310951F7A9
:10100000BE010E94B70960935C3870935D3880918F
:101010005C3890915D38892F8F7780939B388091D1
:101020005C3890915D3880939C388091893880FF3E
:101030000AC088E00E9492010E94F70480918938DA
:101040008E7F809389388091893881FF05C0109305
:1010500078388D7F8093893882E00E942102813028
:10106000D1F10E9454014B015C0182E00E942102F7
:10107000811121C00E945401681979098A099B09CC
:10108000613D77408105910590F040E060E080E0AF
:101090000E94110361E070E080E090E00E94B100E6
:1010A000E4CF9093260411CF49EF52E8A4CF4FEF3D
:1010B0006FEF8FEFEDCF0E9429030E945401681952
:1010C00079098A099B0960935E3870935F38809331
:1010D00060389093613880915E3890915F38A0912C
:1010E0006038B09161380A97A105B10508F08DC04C
:1010F00010925E3810925F3810926038109261380A
:1011000080918638853008F0C4C090E00E94DB04EE
:101110008091763890917738892B09F0BFC00E9472
:10112000540180906A3890906B38A0906C38B090E1
:101130006D38681979098A099B09613E73498440B1
:10114000910508F4ABC084E090E00E94DB0482E0EB
:1011500090E00E94A901809188388823D1F00E94F4
:10116000540180906E3890906F38A0907038B09095
:101170007138681979098A099B09693873418105B1
:10118000910508F4EDC089E090E00E94A901109259
:10119000883861E08AE00E94390280917638909127
:1011A00077380197B1F40E94540180907238909082
:1011B0007338A0907438B0907538681979098A0925
:1011C0009B09613177428105910518F081E00E9409
:1011D000920180917838882351F08091863883304D
:1011E00031F461E08EE00E943902109278388091EB
:1011F0000B39882309F4B6C080915000897F809311
:1012000050000E9429038895A7CE80915E38909166
:101210005F38A0916038B0916138803D9740A1055A
:10122000B105E8F480910B3981110FC00E9454017F
:101230006093013970930239809303399093043994
:1012400010930B390E94290353CF809176389091E7
:1012500077380197B9F784E00E949201F3CF80912B
:10126000763890917738039719F40E94060540CF9D
:1012700060E08DE00E9439020E94F70464E670E0AD
:1012800080E090E00E94B10061E08DE00E943902B0
:101290002FCF84E090E00E94A9013ACF8091763868
:1012A00090917738029749F483E00E9421028111DE
:1012B00004C00E94EF0410920B398091763890910F
:1012C0007738019779F483E00E94210281110AC0E6
:1012D0000E94EF0468EE73E080E090E00E94B100AD
:1012E0000E9406058091763890917738029711F127
:1012F0008091763890917738039709F02CCF0E942F
:1013000054018090623890906338A0906438B09017
:101310006538681979098A099B0961307C458642DC
:10132000954008F418CF8AE090E00E94A9010E943D
:10133000060511CF0E94540180906638909067385E
:10134000A0906838B0906938681979098A099B09B2
:1013500061367A4E8105910558F20E94EF04FBCE6A
:1013600060E018CF80915000897F846048CF97FB60
:10137000072E16F4009407D077FD09D00E94F809D3
:1013800007FC05D03EF4909581959F4F0895709588
:1013900061957F4F0895A1E21A2EAA1BBB1BFD0188
:1013A0000DC0AA1FBB1FEE1FFF1FA217B307E40744
:1013B000F50720F0A21BB30BE40BF50B661F771F9C
:1013C000881F991F1A9469F760957095809590957C
:1013D0009B01AC01BD01CF0108950E94120AA59F97
:1013E000900DB49F900DA49F800D911D1124089520
:1013F000AA1BBB1B51E107C0AA1FBB1FA617B7073B
:1014000010F0A61BB70B881F991F5A95A9F7809556
:101410009095BC01CD010895EE0FFF1F0590F4914A
:10142000E02D0994A29FB001B39FC001A39F700D4E
:10143000811D1124911DB29F700D811D1124911DDC
:1014400008955058BB27AA270E94390A0C94830B91
:101450000E94750B38F00E947C0B20F039F49F3FFE
:1014600019F426F40C94720B0EF4E095E7FB0C943F
:101470006C0BE92F0E94940B58F3BA17620773079D
:101480008407950720F079F4A6F50C94B60B0EF4BA
:10149000E0950B2EBA2FA02D0B01B90190010C0184
:1014A000CA01A0011124FF27591B99F0593F50F49C
:1014B000503E68F11A16F040A22F232F342F4427F4
:1014C000585FF3CF469537952795A795F0405395EC
:1014D000C9F77EF41F16BA0B620B730B840BBAF0BC
:1014E0009150A1F0FF0FBB1F661F771F881FC2F727
:1014F0000EC0BA0F621F731F841F48F4879577953B
:101500006795B795F7959E3F08F0B0CF9395880FF4
:1015100008F09927EE0F9795879508950E94A20AE3
:101520000C94830B0E947C0B58F00E94750B40F0CA
:1015300029F45F3F29F00C946C0B51110C94B70BFC
:101540000C94720B0E94940B68F39923B1F355230A
:1015500091F3951B550BBB27AA27621773078407C6
:1015600038F09F5F5F4F220F331F441FAA1FA9F35C
:1015700035D00E2E3AF0E0E832D091505040E6954A
:10158000001CCAF72BD0FE2F29D0660F771F881FAB
:10159000BB1F261737074807AB07B0E809F0BB0B9E
:1015A000802DBF01FF2793585F4F3AF09E3F5105B2
:1015B00078F00C946C0B0C94B70B5F3FE4F3983EFF
:1015C000D4F3869577956795B795F7959F5FC9F79B
:1015D000880F911D9695879597F90895E1E0660F1C
:1015E000771F881FBB1F621773078407BA0720F095
:1015F000621B730B840BBA0BEE1F88F7E0950895FE
:101600000E949C0B88F09F5798F0B92F9927B751EB
:10161000B0F0E1F0660F771F881F991F1AF0BA9596
:10162000C9F714C0B13091F00E94B60BB1E0089533
:101630000C94B60B672F782F8827B85F39F0B93F25
:10164000CCF3869577956795B395D9F73EF4909549
:101650008095709561957F4F8F4F9F4F0895E894C7
:1016600009C097FB3EF490958095709561957F4FEA
:101670008F4F9F4F9923A9F0F92F96E9BB27939598
:10168000F695879577956795B795F111F8CFFAF4A8
:10169000BB0F11F460FF1BC06F5F7F4F8F4F9F4FD9
:1016A00016C0882311F096E911C0772321F09EE837
:1016B000872F762F05C0662371F096E8862F70E09D
:1016C00060E02AF09A95660F771F881FDAF7880F77
:1016D0009695879597F9089597F99F6780E870E048
:1016E00060E008959FEF80EC089500240A94161698
:1016F000170618060906089500240A941216130600
:10170000140605060895092E0394000C11F488238D
:1017100052F0BB0F40F4BF2B11F460FF04C06F5FA9
:101720007F4F8F4F9F4F089557FD9058440F551F7F
:1017300059F05F3F71F04795880F97FB991F61F053
:101740009F3F79F087950895121613061406551FCA
:10175000F2CF4695F1DF08C0161617061806991F36
:10176000F1CF86957105610508940895E894BB272B
:1017700066277727CB0197F908950E94D00B0C9428
:10178000830B0E94750B38F00E947C0B20F0952390
:1017900011F00C946C0B0C94720B11240C94B70B7D
:1017A0000E94940B70F3959FC1F3950F50E0551F65
:1017B000629FF001729FBB27F00DB11D639FAA27A6
:1017C000F00DB11DAA1F649F6627B00DA11D661FF5
:1017D000829F2227B00DA11D621F739FB00DA11D16
:1017E000621F839FA00D611D221F749F3327A00DD0
:1017F000611D231F849F600D211D822F762F6A2F6C
:1018000011249F5750409AF0F1F088234AF0EE0FD0
:10181000FF1FBB1F661F771F881F91505040A9F7FD
:101820009E3F510580F00C946C0B0C94B70B5F3FFE
:10183000E4F3983ED4F3869577956795B795F79539
:10184000E7959F5FC1F7FE2B880F911D96958795B1
:0818500097F90895F894FFCF09
:1018580010108000000000101010000000000000B0
:101868001000040506070504030201000001020335
:101878000102030000000000010101010101020250
:10188800020200000000102040802010080402011D
:1018980001020408020408010000000011012D01E2
:0A18A8005101DD000B01F900E5001D
:0618B2001D381138093851
:00000001FF
